:020000040800F2
:1000000038050020CD4000089340000895400008C6
:1000100097400008994000089B400008000000003D
:100020000000000000000000000000009D400008EB
:100030009F40000800000000A1400008A340000805
:10004000F7400008FB400008FF400008034100089B
:10005000074100080B4100080F4100081341000848
:10006000174100081B4100081F41000823410008F8
:10007000274100082B4100082F41000833410008A8
:10008000374100083B4100083F4100084341000858
:10009000474100084B4100084F4100085341000808
:1000A000574100085B4100085F41000863410008B8
:1000B000674100086B4100086F4100087341000868
:1000C000774100087B4100087F4100088341000818
:1000D000874100088B4100088F41000893410008C8
:1000E000974100089B4100089F4100082DE9F04F0F
:1000F0000FF2A41CA1B0DCE90089CDE900892A9D9A
:10010000DFF8109C049100248DF843500D944FF0BB
:10011000FF38824616461F460FE0B3462C461BF8B2
:10012000011B0498D0470028049000F0A2800D988D
:10013000401C641E0D90F2D176193078252808D124
:10014000002100220791089209910A920B910C92CA
:100150000DE06A464146304600F0F4FF050001D14B
:100160000D98A1E0D9D50125E6E741F0010116F887
:10017000010F2028F9D023280CD02B2804D02D28BB
:1001800005D0302809D076E041F00201EFE741F0D8
:100190000401ECE741F00801E9E741F01001E6E76E
:1001A0000F9209E00F98484505DA00EB800402EB56
:1001B0004402303A0F92761C3278A2F130000A28BD
:1001C000F0D330782E2818BFCDF8388022D116F819
:1001D000010F2A2807D138683860761C50F8042BA4
:1001E00038600E9216E02D280CBF761C00200022ED
:1001F0000E920AE040B90E9A4A4505DA02EB8204F3
:1002000003EB4403303B0E93761C3378A3F13002AA
:100210000A2AEFD3ADF8401021A0317800F09CFFFE
:1002200008B116F8010B8DF842009DF842006828CD
:1002300004D1307868280AD1622105E06C2804BF17
:1002400030786C2803D171218DF84210761C12A8E9
:1002500006903A4616F8013B02A9504600F064F8B1
:1002600038B912AA02A9504600F0CAF900287FF551
:1002700064AF404618E02A2892D13A683A6052F8B2
:10028000040B3A6000280F9003D540420F9041F0D4
:100290000401761C95E7000000000000000000004B
:1002A000686A6C747A4C000021B0BDE8F08F622857
:1002B00020D0682811D06A2803D06C2827D0712854
:1002C00025D10868C01D20F007000860D0E9002390
:1002D00008300860194610467047002A0A680A600C
:1002E000106803D0121D0A6000B217E0121D0A60E8
:1002F00080B217E0002A0A680A60106803D0121D55
:100300000A6040B20AE0121D0A60C0B20AE0002A88
:100310000A680A60106803D0121D0A60C11770478E
:10032000121D0A60002170477CB50D4611461C461F
:100330002E69B4F1250200F051811C3A00F086804C
:10034000121F022A40F282800E3A00F00B81521FE7
:100350005AD0093A7AD0921E16D0521E35D0521E6B
:10036000022A73D9121F30D0521F00F09A80521EF9
:100370004AD0521E00F0E480D21E00F00181921E8D
:1003800042D0D21E40D02FE195F83A406C2C09D0D3
:100390006869421C6A610A680A6052F8043B0A6094
:1003A00033542BE10A680A6052F8043B0A60009358
:1003B000002201924FF0FF332B636A46294600F07A
:1003C0009AF9002840F11A8105E195F83A000122D6
:1003D000FFF76DFFC5E900010023994204DA68695F
:1003E000411C69612D220DE0288F810704D56869C1
:1003F000411C69612B2205E0C00722D56869411CB8
:100400006961202232541CE095F83A000022FFF77F
:100410004EFFC5E9000195F83800010711D5D5E96F
:1004200000230020834208BF82420AD044F020000B
:10043000782806D1686930213154401C421C6A6119
:100440003454214668693044E86087E00868C01D7C
:1004500020F007000860D0E9002308300860C5E9F3
:100460000023D5E90001C80F04D06869411C696107
:100470002D220DE0288F810704D56869411C696130
:100480002B2205E0C00704D56869411C6961202260
:10049000325468693044E8602146284600F03AFA50
:1004A000ACE005F13A02507820B14FF0FF340FF67E
:1004B000343074E01078622808D0682824D06A2884
:1004C00012D06C282ED071280ED02BE00A680A605A
:1004D00052F8040B0A6020B94FF0FF340FF61C30BD
:1004E0005DE0E96A017089E00A680A6052F8040B6D
:1004F0000A6020B94FF0FF340FF600304FE0EA6A8F
:10050000D317C0E9002379E00A680A6052F8040BA7
:100510000A6020B94FF0FF340FF6E0203FE0E96AAF
:1005200001806BE00A680A6052F8040B0A6020B987
:100530004FF0FF340FF6C42031E0E96A01605DE05E
:100540000A680A6052F8040B0A60002120F00002D9
:1005500021F0FF33C5E90023EE607821284600F042
:100560002DF94BE06C2285F83A200B680B6053F8AC
:10057000042B0B6052BB4FF0FF340FF6B4200EE09B
:1005800095F83A206C2AF0D00868086050F8044BBF
:100590000860EC603CB94FF0FF340FF6782000F0B3
:1005A00003FE201A76BD2E6B002E04D5204600F0E7
:1005B0001BFE044608E032460021204600F03EFEC5
:1005C000002814BF041B3446AC6117E0294600F034
:1005D00092F8002812D54FF0FF3076BD6869411CB3
:1005E00069612522325409E06969481C6861252245
:1005F0007254210002D0431C6B613454002076BD3C
:100600002DE9F0410E4605469046726B7069316ADD
:10061000B46A121AB069521A716A121AF069521A3F
:10062000121A96F83800141B41070DD4002C0BDD6C
:100630002746B0682021A8470028B06057D0F06A4C
:10064000401C7F1EF062F4D1736942463146284651
:1006500000F0B0FC00284AD1376A002F0ADDB068EC
:100660003021A8470028B06041D0F06A401C7F1EAE
:10067000F062F4D1B369F2683146284600F09AFC82
:10068000A8BB776A002F09DDB0683021A847B060A9
:1006900068B3F06A401C7F1EF062F5D1F068B16962
:1006A000F36942183146284600F084FCF8B9B76A6D
:1006B000002F09DDB0683021A847B060B8B1F06AFA
:1006C000401C7F1EF062F5D196F8380041070BD52B
:1006D000002C09DDB0682021A847B06038B1F06A6D
:1006E000401C641EF062F5D10020BDE8F0814FF09F
:1006F000FF30BDE8F0812DE9F8470D46A3B02F6B20
:10070000002F0646904648BF6FF000470FF63C1496
:1007100000F0C0FDD4E90023696B4018CDE9012346
:10072000812828BF4FF0FF3042D20024002F33DD54
:10073000D8F8001001AA684600F006FD8146B9F11C
:10074000000F38D4D8F8000010B9B9F1010932D43B
:100750004F4521DB6869484481280AD30021696339
:1007600003AA29463046FFF74BFF040014D40020AB
:10077000686103ABD5F814A04A46694603EB0A004A
:1007800000F092FDCA44C5F814A058F8040B0028E4
:1007900018BFA7EB0907C9D14CB903AA29463046AF
:1007A000FFF72EFF044614B90020686168632046F5
:1007B00024B0BDE8F0874FF0FF34F8E72DE9FC479F
:1007C00007468C463E69BCF16F0F08BF082405D070
:1007D0004CF02000782814BF0A2410243C25D7E9C7
:1007E0000023BCF1640F18BFBCF1690F9046994615
:1007F00006D100218B4203DAD8F1000869EB4909E0
:100800004FF0000AD14508BFD0451FD1386BE8B979
:10081000082C4BD197F83800010747D530203B25ED
:1008200086F83B0042E000280ED597F8380000F02B
:100830001400102808D17B6B7969386A5B1A1B1A7F
:100840009A1A002AC8BF3A62BDE8F3878DF800C043
:10085000404649462246E31700F07AFD3032D0B2D6
:100860006D1E3A28019504DB9DF80000A0F15101AE
:100870008A187255404649462246E31700F068FD43
:1008800089468046D14508BFD04503D0F868711924
:100890008842DDD3082C09D197F83800010705D527
:1008A000705D302802D06D1E30207055C5F13C02BD
:1008B000BA617119F960386B8242B4DA821A3A620D
:1008C0004FF6EF70398F01403987BDE8F3872DE986
:1008D000D04306460F4614464FF00008DFF8389420
:1008E00012E0E00707D542464B463046394600F055
:1008F00047FE06460F464046494642464B4600F0F4
:100900003FFE641080468946002CEAD130463946C5
:10091000BDE8D0832DE9F34F054641F020048DB0AA
:10092000D5E90089612C02AE09D0286B002848BFA8
:10093000062003D408BF672C01D101202863D5E924
:10094000002358004015401C0ED119030CD0032081
:10095000A8619DF8381061391A2902D20FF2F461AA
:1009600011E00FF2F4610EE059004915491C0FD156
:1009700018030DD10320A8619DF8381061391A2998
:1009800014D30FF2DC61E868032200F08DFCD3E1A0
:10099000194621F00043B3F5801F10460DD2002701
:1009A000BB4208BFBA42019703D111E00FF2AC611C
:1009B000E9E701AA00F0B6FE0AE0DFF8607307EB92
:1009C0001352DFF85C3301921940DFF858331943B2
:1009D000C5E90001612C0ED1E86830210170821C4C
:1009E000EA609DF8381061290CBF782158214170C8
:1009F0006869801C6861D5E900AB2BF000430020DA
:100A00002AF00002834204BF8242002300F05B818F
:100A1000612C40F0AA80286B002847BF212100915B
:100A2000401C0090009F7F1C404649460022002346
:100A300000F0B0FED94601998DF8082038BF89F042
:100A40000049091F002FD04601910DF1090040F324
:100A50004981B349DFF8D0B20C9106464046494679
:100A60000022002300F0AEFE80F03B814800400DE4
:100A700000F11C0211D0002A0FDD40F2FF7082420B
:100A800005DB09F0004040EA0B01002013E00C9860
:100A9000014041EA025140460DE029F000430020A8
:100AA00028F00002834208BF82420FBF40461C224A
:100AB000404600F09FFE8046894600F039FFFF1F48
:100AC000002F044609DD00F051FF02460B46404668
:100AD000494600F05DFF80468946F01D072104E08D
:100AE00004F00F0200F8012D2411002C01DD491E35
:100AF000F6D5491E5CBF002200F8012DF9D5ECE0C7
:100B00000020194602AA0A4400E05B1E12F80149BF
:100B1000491E8442F9D00F2804D10DF10900425C2E
:100B2000521C4254002904D50198001D02AE5B1CE2
:100B30000190591E12D49DF838007218A0F13A079E
:100B4000147804F130085FFA88F43A2CA8BFB8444E
:100B5000491E02F80189F3D58DF83800286B00286A
:100B600040F1B080591E2963ACE04046494600225E
:100B7000002300F00FFE019938BF89F0004947F2C9
:100B800097504143694A91FBF2F20192D2F1070278
:100B900004DD40464946FFF79AFE0AE05242002033
:100BA0006349FFF794FE02460B464046494600F073
:100BB00061FF8046662C286BDFF878B106BF019F85
:100BC0000A3706273F18142FC8BF142730208DF886
:100BD000080089460DF1090000E03046002F34DDA1
:100BE00006464046494601F069F801460A4606F1C4
:100BF000080304200A26B2FBF6F606EB860EA2EBEB
:100C00004E02303203F8012C0A22B6FBF2F202EB5C
:100C1000820EA6EB4E063036401E03F8026DE9D177
:100C2000083F002F03F10806D7DD084601F05AF807
:100C300002460B464046494600F0AAFE00225B46AB
:100C400000F09EFC80468946CBE70DF10901401A71
:100C50000DF1090604E00199491E401E0191761C20
:100C600031783029F7D0662C02D10199491C03E074
:100C7000652C0CBF012100212B6BCB189842B8BF0B
:100C8000431E002B1ED4834204DAF05C3528A8BF33
:100C9000392000DA30201946721E02EB010800E00C
:100CA0005B1E18F80199491E8145F9D0392802D1F7
:100CB000705C401C7054002904D50198401C1646F5
:100CC0005B1C0190019800B200901BB29DF8381097
:100CD0003246284600F034F82EE0C61D002F3FF7BC
:100CE000BDAE30460DF10901401A00990346884215
:100CF000C8BF0B46002B0DF109063FF52FAF83420D
:100D0000BFF6FEAE0DF10900C15C07297FF7F8AE12
:100D10000F20F6E6CBCCCC0C0000244002FCFFFFF9
:100D2000FFFF0F800000E03F0000F07FA086010081
:100D30000000F03F84D797410FB0BDE8F08F00006E
:100D40002DE9F84783B006468A461746984600F0D4
:100D5000FDF9B8F1000F406A356B90F8009002DCA5
:100D60004FF00108BFA74AF02000BDF930406628C7
:100D700008BF641C15D0672840F0848014F1040F6C
:100D8000C0F28680AC4280F2838096F83800641C02
:100D9000010702D4A845B8BF454620B22D1A48BF66
:100DA00000250FFA84FAF068B169BAF1000F25DC6A
:100DB0004A1C30234354002D03DC96F83800010709
:100DC00003D5F06800F80290521C15EB0A0FB8BF6B
:100DD0006C4220B2441941424445B8BFA046B261BA
:100DE00071620FFA88F5F561F068B3692A463946F1
:100DF000184400F059FA641BB462C4E022B2904572
:100E0000084417DA4246394600F04EFAB0694044C9
:100E1000B061AAEB0801002D716203DC96F838106E
:100E20000A0705D5F16801F80090F069401CF061EF
:100E3000B562A8E0394600F037FAB069002D504499
:100E4000A8EB040803DC96F838100A0703D5F1680C
:100E500001F80090401CB0610FFA88F08542F368F9
:100E6000B069B8BFA8460FFA88F207EB0A01184428
:100E700000F01AFAB1690FFA88F00144B161281A3A
:100E8000706280E0BAF1610F14D14FF0700A16E081
:100E9000A84504DA96F838100A0758BF45466D1E73
:100EA00048BF0025BAF1670F14BF4FF0450A4FF055
:100EB000650A04E0BAF1410F08BF4FF0500AB1696A
:100EC000F368481CB061002D17F8012B5A5403DC5D
:100ED00096F838100A071BD5F168431CB36101F876
:100EE0000090002D14DDA8F101080FFA88F03946B2
:100EF0008542F768B8BFA8460FFA88F2F81800F0E4
:100F0000D3F9B0690FFA88F108446D1AB0617562BF
:100F1000F068B1690844002C80F800A003D42B22AB
:100F20004270811C03E02D2141706442811C00202D
:100F30006A460AE023460A2493FBF4F404EB840592
:100F4000A3EB450302F8013B401C24B2002CF1DC6A
:100F5000012806DC4AF02002652A04BF302201F88D
:100F6000012B48B9302001F8010B07E0401E1DF8A5
:100F70000030303301F8013B0028F7DCF268B0693B
:100F80001044091AF16196F8380000F01400102896
:100F90000DD17269B169706A8A18F1698218B06AF4
:100FA0008A188218706B8242BCBF821A326204B007
:100FB000BDE8F087F8B505460E4617461C460020EA
:100FC00074B117F8011BB068A847B06030B1F06A7F
:100FD000401CF0620020641EF3D1F2BD4FF0FF30E0
:100FE000F2BD00007072696E74665F733A20256E00
:100FF00020646973616C6C6F776564007072696EF0
:1010000074663A2062616420256E20617267756D96
:10101000656E74007072696E74665F733A20626107
:101020006420257320617267756D656E7400000021
:101030007072696E74665F733A2062616420256C19
:101040007320617267756D656E74000000000000AA
:10105000000000006E616E004E414E00696E660039
:10106000494E46003000F0B40246106895681318E7
:10107000506803EB5004C0071DD54D441BE013F826
:10108000017B05F8017B491EF9D1A0B1B60813F820
:10109000011B06F00306032E08BF13F8016B01EBDA
:1010A00006214942801C294405D011F8016B05F83E
:1010B000016B401EF9D1A3420ED013F8016B16F05C
:1010C000030104BF13F8011BC91C30090F28DAD132
:1010D00013F8010B0F30D6E7F0BC02F10C0070479B
:1010E0001B48704770B45368D418042B09DA41B117
:1010F000057804F8015B10F8016B16B15B1C491E02
:10110000F3E7536070BC704738B514461D4661B1B3
:10111000FFF7E8FF61686A6B204690476FF00102B5
:10112000811A02D0491E01D001E003E005E0002150
:10113000616032BD6FF0010032BD4FF0FF3032BD53
:10114000DA6B1047024BDFE7014BF9E701487047C4
:1011500048000020100000200278C9B28A421AB16B
:101160001CBF10F8012FF9E718BF0020704730B4FA
:10117000002513E050F8042BD30744BFA9F1010365
:101180009A18091F042942F8045BFAD213468C0707
:1011900044BF15809B1CC90748BF1D7050F8041B35
:1011A0000029E7D130BC704780B500B906A00549D9
:1011B0000B681BB122220021984701E000F09FFD3F
:1011C000222002BD30010020636F6E73747261696A
:1011D0006E742068616E646C65723A20626164208E
:1011E0006D6573736167650000F10103810704D0C9
:1011F00010F8011B820781B1FAD10268A2F1013116
:10120000914311F0803104BF50F8042FF6E709BA7A
:10121000B1FA81F100EBD100401CC01A7047B1F562
:10122000807F02D34FF0FF3070470170012070477C
:101230000078401E8041C043C00F7047C9B2830789
:1012400006D0521E22D310F8013B9942F7D11FE07D
:10125000083A13D302F1040241EA012141EA0141B3
:1012600050F8043B121F21BF4B40A3F1013C2CEA74
:10127000030C1CF0803FF3D0C9B2001F083210F8F5
:10128000013B521E28BF91EA030FF8D818BF012076
:10129000401E704780B5FFF723FF006C02BD026857
:1012A000531C03601170704762B38B0708D0521E45
:1012B00011F8013B00F8013B00F024808B07F6D1C8
:1012C000830740F0208000BF103A07D330B4B1E864
:1012D0003810103AA0E83810F9D230BC530724BFB8
:1012E000B1E80810A0E8081044BF51F8043B40F8EA
:1012F000043BD20724BF31F8022B20F8022B44BF55
:101300000B7803707047121F17D35B0009D151F897
:10131000043B20F8023B1B0C121F20F8023BF6D2C4
:101320000BE051F8043B00F8013B1B0A20F8023B9C
:101330001B0C121F00F8013BF3D238BF121D521EC6
:1013400024BF11F8013B00F8013BF8D870470000BA
:10135000BBBBE1B1B2F5803F80F07E80022A1ED98E
:101360008C46B1FBF2F102FB11C31B0443EA1043AC
:10137000B3FBF2FC02FB1C3380B240EA0343B3FB35
:10138000F2F002FB103240EA0C4000237047022AC0
:1013900005D98446B0FBF2F002FB10C270474AB197
:1013A00005D100F0010249085FEA300070470022D1
:1013B0000023704700F0A6BC0B00020000210020B3
:1013C0007047904271EB030CF6D3B3F5803F2FD2F8
:1013D000F0B5B3FA83F7B1FA81F4A7F10F0E3D1B14
:1013E0005340CEF1200602FA0EF2F3415340B5F11C
:1013F0000F0746D80F3C2C444140C4F12006A040C2
:10140000F1414140B1FBF3F603FB1611A2FB064587
:10141000001BA94102D2761E8018594180EA0102C0
:1014200021FA0EF362FA0EF200215A403046F0BD66
:1014300030B4B1FBF3FC03FB1C11A2FB0C45001BF9
:10144000A94103D2ACF1010C8018594130BC0246CD
:101450000B46604600217047B2F1807F65D3F0B53E
:10146000B2FA82F7B1FA81F4C7F10F063D1B22FAF6
:1014700006F307F1110EF24120355A40B5F10F077E
:10148000B8D94140C4F12006A040F1414140B1FB30
:10149000F3FC03FB1C11A2FB0C45001BA94103D26A
:1014A000BCF1010C801859410F2F12D30F3FC90313
:1014B00041EA5041B1FBF3F603FB1611A2FB0645CE
:1014C000D4EBC030A94102D2761E8018594146EAB9
:1014D000CC3C07B34140C7F12006B840F141414040
:1014E000B1FBF3F603FB1611A2FB0645001BA94155
:1014F00002D2761E8018594180EA010221FA0EF3C9
:10150000C7F1200462FA0EF20CFA07F05A402CFAE6
:1015100004F13043F0BD80EA010221FA0EF300210C
:1015200062FA0EF260465A40F0BD8C46B1FBF2F111
:1015300002FB11C31B0243EA1063B3FBF2FC02FB84
:101540001C331B024CEA002043EA1063B3FBF2FC9D
:1015500002FB1C331B024CEA002043EA1063B3FB7E
:10156000F2FC02FB1C331B024CEA002043EA10632E
:10157000B3FBF2FC02FB1C324CEA00200023704754
:10158000B0B581EA030C0CF0004C40F2FF7515EA8F
:1015900011541DBF15EA1357AC42AF4239E0E419AC
:1015A00023EA455343F48013C90241F0004141EA64
:1015B000505EC7021100A7FB020200284FF0000096
:1015C000EEFB01204FF00001E3FB072118BF42F0C2
:1015D0000102401800214941E3FB0E01A4F580649B
:1015E0000F0302D252004041494154F101046CDD25
:1015F000470872F1004250F1000051EB0451A1F58F
:1016000080115CBF41EA0C01B0BD4CEA05510020DD
:10161000B0BD05EA1357AC4214BFAF4241E050EAF7
:10162000410E1CBF52EA430E02E061460020B0BDED
:1016300024423C441BD15FEA070EF6D0090302BFE7
:1016400001460020AEF1140EB1FA81F7AEEB0704AB
:1016500001FA07FE0C37C7F1200100FA07F7C8406E
:101660004EEA000E23EA455343F48013A2E733F019
:101670000043B3FA83F704BFB2FA82FE77440B3F0C
:10168000E41BB7F1200E2FBF02FA0EF3BB40C7F1E7
:10169000200E22FA0EFE38BF43EA0E03BA40641C45
:1016A00082E750EA410E14BF52EA430E6FF0000188
:1016B0004FF4001717EB430F8ABF194617EB410F82
:1016C000B5E74CEA05510020B0BDD4F10104B4F1F6
:1016D00020070FDAC4F12007520828BF42F00102A8
:1016E00010FA07F501FA07F7E1BF2A43E040384353
:1016F000E1400FE0352C98DCC7F1200452EA4002AB
:1017000020FA07F218BF42F0010231FA07F0A140B7
:101710000A43002172F1004250F1000051EB0C012C
:10172000B0BD000010B5144600F002F8226010BDF4
:10173000C1F30A5343B14A0012F5001F28D2A3F2A5
:10174000FE32A1EB0251704750EA410C20D001F06B
:10175000004C31EA0C01B1FA81F204BFB0FA80F317
:10176000D2180B3AB2F120032CBF00FA03F19140DA
:1017700041EA0C013EBFC2F1200C20FA0CF31943E0
:101780009040524240F2FD33D21A01EB03517047B0
:10179000002270474FF4001C1CEB410F94BF1CEB60
:1017A000430F09E041EA030C50EA4C0C52EA0C0CDE
:1017B00003D2994208BF9042704714BF8B428242C5
:1017C000704700004FF4001C1CEB410F94BF1CEB52
:1017D000430F09E041EA030C50EA4C0C52EA0C0CAE
:1017E00003D28B4208BF8242704714BF9942904295
:1017F00070470000124254D440F2FF7C1CEA11539F
:101800000FD0634531D09B1863453CBF01EB0251BB
:10181000704701F0004141EA0C510020AFF3008015
:10182000704750EA410320D001F0004C91EA0C01CE
:101830001CD0B1FA81F30B3B9A420DD9D21A9940D0
:1018400051EA0C01C3F1200C20FA0CFC61449840D1
:10185000531C40F2FF7CD7E7914041EA0C01C2F1F2
:10186000200C20FA0CF3194390407047B0FA80F333
:101870001533202BE0D3202AEED3203A203B9A4286
:1018800009D9D21A00FA03F141EA0C010020531CD5
:1018900040F2FF7CB8E700FA02F141EA0C010020B7
:1018A0007047524240F2FF7C1CEA11530DD0634551
:1018B000DBD0B2EB030C3CBFA1EB025170470CF143
:1018C000010221EA035141F4801150EA410CCCD0CD
:1018D00001F0004C352A27DC30B481EA0C01B2F16A
:1018E000200309DAC2F12003044601FA03F5D040CF
:1018F0002843D1409C400CE0C3F12002450020FA6F
:1019000003F418BF44F0010421FA03F091400C43A2
:10191000002174F1004550F1000051EB0C0124420C
:1019200030BC7FF47BAF70476146002076E7000053
:10193000C1F30A5340F2FE329B1A14DDD3F12003A7
:101940004FEAE17208DDC90241EA505141F000401E
:10195000D84080185040704703F2E13010B1D243B4
:1019600082F000407047002070470000C11768B146
:101970004840401AB0FA80F29040D21CC907C2F524
:10198000846241EA025202EBD02140057047000018
:1019900070B44FF0004591EA030F40F1BD816B40F8
:1019A000841A71EB030603D2001BB1411219734173
:1019B0004FF4001C1CEB410F34BF7CEB430442E0AE
:1019C0000C0DA4EB1356352E4FDC45EAC323DB0A7E
:1019D00045EAC121C912B6F120050DDD63FA05F60D
:1019E000EB4086EA0305124218BF45F00105C01816
:1019F00051F100010CD213E062FA06F5F2405540B5
:101A0000F3415A40B340F3405A408018594107D33C
:101A100049085FEA30005FEA350528BF45F0010557
:101A200001F58011420875F1004250F1000041EBD0
:101A300004514E0016F5001F70BC38BF70470020DF
:101A4000090D090570471CEB410F10D252EA4306FD
:101A50000BD0BCEB410F05D80C0DAB43661E342EEA
:101A6000B6DD02E0AB438018594170BC704770BCD2
:101A700070470000F0B540F2FF7581EA030C0CF0EE
:101A8000004C15EA11541DBF15EA1357AC42AF4282
:101A9000E5E0BC41C1F31301C3F31303801A99417C
:101AA00043F4801304D2641E400049418018594118
:101AB000C90241EA5051B1FBF3F603FB1611A2FB38
:101AC0000675D7EBC020A94102D2761E8018594175
:101AD000C90241EA5051B1FBF3FE03FB1E11A2FB08
:101AE0000E75D7EBC020A94103D2AEF1010E8018CC
:101AF0005941890241EA9051760546EA8E2EB1FBA2
:101B0000F3F603FB1611A2FB0675D7EB8020A94163
:101B100002D2761E80185941C90241EA50514EEA5C
:101B2000060EB1FBF3F603FB1611A2FB0675D7EB0D
:101B3000C020A94102D2761E80185941C90241EA4B
:101B40005051B1FBF3F703FB1711A2FB0735D3EBA1
:101B5000C020A94167F100070CBF004247F0010710
:101B600066F3D5274FEA1E31B80814F5806412DDFC
:101B7000BD0775F1004250EB0E5051EB045111F5C9
:101B8000801F5CBF41EA0C01F0BD4CF07F6141F069
:101B9000E0410020F0BDBD076D0840EA0E5041F461
:101BA0008011D4F10104B4F120060ADAC4F1200650
:101BB0000200E04001FA06F3E1401843B240154349
:101BC0000EE0342C13DCC6F1200445EA40056D0814
:101BD00020FA06F2154321FA06F0A1400D43002138
:101BE00075F1004250F1000051EB0C01F0BD0020F6
:101BF0005FEA0C01F0BDCFB992185B41B3FA83F7ED
:101C000004BFB2FA82F6BF190B3FB7F120062FBF0F
:101C100002FA06F3BB40C7F1200622FA06F638BFE7
:101C20003343BA401CB1E419641E33E77F4231F0FC
:101C30000041B1FA81F404BFB0FA80F6A4190B3C5C
:101C4000B4F120062FBF00FA06F1A140C4F120062E
:101C500020FA06F638BF3143A0403C1B1AE7AC42DD
:101C60001ABF05EA1357AF4212E050EA41061CBF03
:101C700052EA4306BFE750EA4107304661461CBFBF
:101C800041EA0551F0BD52EA430C08BFC143F0BD23
:101C900000204FF4001616EB410F98BF16EB430FD0
:101CA00008BF16EB410F24BFC14305E016EB430FFD
:101CB0000CBF61464CEA0551F0BD0000400D4918CB
:101CC00040EA81200CD2490DA1F58061491C40F009
:101CD000004005DBD1F11F0154BFC840C017704759
:101CE00000207047014648B1B0FA80F18840C91C15
:101CF000C1F58461090501EBD02140057047012041
:101D000000F0C0B87047000070B44FF0004591EA91
:101D1000030F7FF545AE6B40841A71EB030604D2C6
:101D20006E40001BB141121973414FF4001C1CEBB3
:101D3000410F34BF7CEB430683E00C0DA4EB13563C
:101D4000362E00F37C80012E45EAC32341DC43EAB2
:101D5000525312BFD20292025B08240545EAC12108
:101D600041EA5051D2EBC020994125D407D1B0FAB5
:101D700080F610FA06F162D00020203608E0B1FAB1
:101D800081F6B140C6F1200220FA02F21143B040C0
:101D90004FEAF474B4EB465434F001064FEA74048D
:101DA0000AD8D6F50016760D04F00044F04061FA2A
:101DB00006F25040F1404840C00A40EA415021F04C
:101DC000004128BF5FEA500550F1000044EBD121EB
:101DD00035E0DB0A45EAC121C90AB6F120050EDD6E
:101DE00042EA0242120CC5F1200603FA06F6EB4065
:101DF00042EA06056D42984161F100010DE062FA88
:101E000006F5F240554063FA06FC82EA0C02F34004
:101E10005A406D42904161EB030111F4801F05D1DE
:101E2000641E620502D06D004041494121F48011D9
:101E3000430875F1004350F1000041EB045170BCC0
:101E400070471CEB410F15D223F0004352EA4306C2
:101E50000BD04FEA4C0CBCEB410F04D80C0D661EA6
:101E6000342EB7DDEBE7801A994150EA410608BFEE
:101E70000021E4E708BF1CEB430F28BF6FF000010F
:101E8000DDE7000080B5AFF30080024A11001820A2
:101E9000ABBEFBE72600020010B504003FD0607C1B
:101EA00020B900212174204600F0E1FA022060747C
:101EB000204600F075F980BB204600F0CDF960BBEC
:101EC00020684168C908C9004160A068DFF8C812ED
:101ED00018B148684008400048600A68A06822F4C9
:101EE000607202430A60606810F1010F04D10120A2
:101EF00000F062FB88B1401E21688A681209120155
:101F000042EA10428A6080B22168CA68120C40EA34
:101F10000240C86000F084F918B104206074012008
:101F200010BD0121E0736173A1736174002010BDC5
:101F30002DE9F04104000D4618BF002D37D0207C5C
:101F4000012808BF022036D000F0E9F83C272E789F
:101F50004FF461681AB96978A8784F430AE03046AF
:101F600000F0B7F90646687800F0B3F94743A8785F
:101F700000F0AFF908FB067686193146204600F0DE
:101F80003DF990B92068416821F005014160204683
:101F900000F048F910F1010F0BD0B04209D2DFF880
:101FA000FC11091800F0C1F818B100F0E9F801209F
:101FB00001E000F0EAF8BDE8F0812DE9F843040003
:101FC0000E4618BF002E914645D02068416848074C
:101FD00041D4204600F001F907464FF46160B7FB99
:101FE000F0F1024602FB11723C233C20B2FBF3F3FA
:101FF00000FB132218297370B2702ED31822B1FB84
:10200000F2F802FB18113170204600F00BF910F1C4
:10201000010F03D0874238BFC51B01D34FF0FF35F6
:10202000DFF8780100FB18773946204600F0E6F823
:1020300088B915F1010F08D0791900F076F850B978
:102040004146204600F04DF908E04FF0FF3100F026
:102050006CF80028F4D0012010E03170B9F1000FC5
:102060000BD0307800F02AF93070707800F026F943
:102070007070B07800F022F9B0700020BDE8F283F3
:1020800070B504000D4618BF002D43D0207C0128F8
:1020900001D1022070BD00F042F8E8782AB9E0735F
:1020A00068786073A978A1730AE000F012F9E07310
:1020B000687800F00EF96073A87800F00AF9A07350
:1020C000A27B617BE07B00F062F9207328702046E0
:1020D00000F083F805464FF46160B5FBF0F0182876
:1020E0001AD918212D4EB0FBF1F006FB10552946E8
:1020F000204600F083F858B9204600F093F810F11C
:10210000010F09D0A84207D2311800F00EF818B11B
:1021100000F036F8012070BD00F037F870BD0120E6
:1021200020740221617470473946204682E07CB5F4
:1021300004000FF2AC200D460168009118BF002D7D
:10214000164605D0002269462046FFF736FF08B143
:10215000012076BD207B2870E07BE870617B697090
:10216000A27BAA7056B100F0A9F8E870687800F078
:10217000A5F86870A87800F0A1F8A870002076BDD6
:1021800004206074002121747047012060740021D4
:1021900021740020704700002C6C00408051010029
:1021A00038B5040001D1012032BD00F010F800F074
:1021B0006FFA054620684168080706D400F068FAFF
:1021C00000F060F8F6D3032032BD002032BD206855
:1021D000416821F008014160704701688A69C86957
:1021E0008B6992B29BB29A4204D0C86980B240EA2D
:1021F0000340704780B240EA0240704770B5044621
:102200000D4600F029F8002638B92068290C8161B4
:10221000ADB2C56100F004F800B10126304670BDD2
:10222000204634E00068016A406A89B280B240EA20
:102230000140704770B504460D4600F00DF80026C9
:1022400038B92068290C0162ADB24562FFF7E8FF9A
:1022500000B10126304670BD38B5044600F018FACA
:102260000546206841688A0606D400F011FA00F09D
:1022700009F8F6D3032032BD416841F010014160F6
:10228000002032BD401B40F2E9318842704738B52A
:1022900004462068416821F01001416000F0F8F91F
:1022A000054620684168880606D400F0F1F9FFF77A
:1022B000E9FFF6D3032032BD002032BD002101E04A
:1022C000491C0A38C2B20A2AFAD240EA0110C0B246
:1022D000704701090A2200F00F0002FB0100C0B2A2
:1022E0007047F8B50646F37B747BB57B0A4600273A
:1022F00021E01D2D1ED1641C01251BE0022C19D1EB
:102300001C2D16D3F5D113F0030FF4D199B264202C
:10231000B1FBF0F04FF0640C0CFB101048B94FF417
:10232000C870B1FBF0F04FF4C87C0CFB1011002911
:10233000E1D16D1C7F1C97421FD2012C18BF032CCA
:1023400008D0052C18BF072C04D0082C1CBF0A2C61
:102350000C2C07D11E2DECD90C2CCCD1012401253D
:102360005B1CE7E7042C18BF062C03D0092C18BF10
:102370000B2CC3D11D2DBED8DBE7F3737473B5737B
:10238000EAB2E1B2184600F002F83073F1BD10B5C0
:1023900017234B430924B3FBF4F400F5FA60121938
:1023A0008218032903D2401E00F00CF802E000F06E
:1023B00009F8921E0724B2FBF4F4C4EBC404121B08
:1023C000D0B210BD02EB90026421121DB0FBF1F1FE
:1023D0004FF4C873521AB0FBF3F082187047000034
:1023E00000000000354881B0016841F00101016042
:1023F000026802F0010200920099426842F08052A5
:102400004260406800F08050009000982C480168BD
:1024100021F0E06141F00071016001B0704730B51A
:1024200085B0044601A8102100F038F92468254D34
:10243000AC421AD12148016841F4007101600323C4
:10244000026802F4007200920099026842F00802E9
:1024500002600222006800F00800009000990192DA
:10246000029301A9184800F01DF905B030BD0068BD
:102470001649884200D0704780B500F0FFF9144833
:10248000144A016841F0006101600121006800F018
:10249000006000900098116001BD81B000680E4995
:1024A000884209D10548026842F40062026000686F
:1024B00000F400600090009801B0704718100240CE
:1024C0000400014000240140000C014000280040AD
:1024D0001C1002403C044242002C01402DE9FC410A
:1024E0000646604D3078C10750D5A8690024C10068
:1024F00009D4A86940F08050A8610124A86900F0BF
:10250000805000900098584F3868C10519D4386839
:1025100040F48070386000F0BBF880463868C10530
:102520000FD400F0B5F8A0EB08006528F6D303201F
:102530003FE000F0ADF8C01B41F28931884217D36B
:10254000F5E7E86910F440701EBF716801F440714E
:10255000884210D04549E86901220A60002320F42E
:1025600040700B60E861C00705D500F091F80746A0
:10257000E8698107DDD5EA69706822F44072024398
:10258000EA611CB1A86920F08050A8613078810709
:1025900005D52A68B06822F4404202432A603178A7
:1025A000C80605D52968F06821F480010143296037
:1025B0000020BDE8F681000010B5002101282C4C58
:1025C00025D0022843D010284AD160682268D30160
:1025D00046D500BF29A1C0F38342C003895C0CD556
:1025E000606800BF29A3234AC0F34040185CB2FBD7
:1025F000F0F308461946414301E01F4A5143606821
:1026000042022DD449000320B1FBF0F128E0206AFA
:1026100040F202320240B2F5817F08BF4FF4004120
:102620001ED000F44072B2F5007F05D1626A9307B4
:1026300048BF49F6404113D400F44070B0F5407FE4
:102640000ED1206882030BD54FF2244108E000F040
:102650004EFB6168C1F38131491C4900B0FBF1F1C7
:10266000084610BD04100240007000404004424281
:102670000010024000127A0000093D000203040528
:10268000060708090A0B0C0D0E0F101001020000BE
:1026900001484068704700BF00000020002200F0A1
:1026A00053BB00002DE9F8470027BE46664A674B3A
:1026B0004FF00F0882460BE0D6683040D06006E04D
:1026C00094604C68A402F7D5D0680643D6607F1C9E
:1026D0000E6836FA07F000F0A380012000FA07F533
:1026E0002E40AE42F3D1486858B301281AD00228D0
:1026F0001FD0032833D0112817D012281DD0544CD6
:10270000A0421CBF534CA0421BD0534CA0421CBF44
:10271000524CA04215D0524CA0421CBF514CA0427A
:102720000FD01EE0D1F80CE01BE0C86800F1040EE9
:1027300017E0C86800F1080E13E0C86800F10C0E3D
:102740000FE0886810B94FF0040E0AE001284FF03E
:10275000080E14BFCAF81450CAF8105001E04FF028
:10276000000EB6F5807F03D250464FEA870C05E095
:10277000A7F108040AF104004FEA840C046808FA7F
:102780000CF5AC430EFA0CF52C4304604868C0000D
:102790009DD51868DFF8D0C040F0010018601C68B3
:1027A00004F001040094BC000098B8085CF82050C4
:1027B00004F00C0408FA04F925EA09092B4DAA458E
:1027C00008BF00250ED02A4DAA4508BF012509D013
:1027D000284DAA4508BF022504D0274DAA450CBFA5
:1027E0000325042505FA04F444EA09044CF82040C2
:1027F000F0434C68E40314684CBF34430440146055
:102800004C68A40354684CBF3443044054604C6883
:102810009568E4024CBF46EA050400EA05044FE768
:10282000BDE8F1878068084018BF0120C0B270473A
:1028300002B9090401617047C26801EA02039143C9
:1028400041EA034101617047000401401810024051
:1028500000001110000012100000211000002210D2
:102860000000311000003210080001400008014053
:10287000000C014000100140001401400249FFE734
:10288000012008607047000020000E422DE9F84347
:10289000040016D02078DFF86C64C10713D5706887
:1028A00000F00C00042807D0706800F00C00082825
:1028B00040D17068C1033DD53068810303D560689D
:1028C000002800F0F4802078DFF84874810719D5DB
:1028D000706810F00C0F07D0706800F00C0008282A
:1028E00060D17068C1035DD43068810703D5206969
:1028F000012840F0DC803168606921F0F80141EA8C
:10290000C00131602178080770D5A069DFF808148C
:10291000002865D001220A60FFF7BAFE0546706AFA
:10292000810700F1C680FFF7B3FE401B0228F6D9ED
:10293000032035E16068B0F5803F04D1306840F491
:102940008030306014E008B930680AE0B0F5A02F9C
:10295000306806D140F480203060316841F4803125
:1029600005E020F480303060316821F4802131604E
:10297000606858B1FFF78CFE054630688103A2D429
:10298000FFF786FE401B6528F7D3D1E7FFF780FEEF
:1029900005463068810396D5FFF77AFE401B65280F
:1029A000F7D3C5E7206970B101213960FFF770FEE8
:1029B00005463068810700F1B680FFF769FE401BCD
:1029C0000228F6D9B4E73860FFF762FE05463168A1
:1029D000880797D5FFF75CFE401B0228F7D9A7E7C9
:1029E0000860FFF755FE0546706A810770D5FFF74E
:1029F0004FFE401B0228F7D99AE708B9306A09E070
:102A00000528306A06D140F004003062306A40F098
:102A1000010005E0400840003062306A20F0040008
:102A2000306241F28938E06868B1FFF731FE8146D3
:102A3000306A810700F18480FFF72AFEA0EB0900CD
:102A40004045F5D374E7FFF723FE8146306A8107DE
:102A500076D5FFF71DFEA0EB09004045F6D367E7EA
:102A6000FFF716FE401B02287BD961E7FFF710FE37
:102A7000001B022840F28F805AE700F093F80446CA
:102A80003068810140F18B80FFF702FE001B0228B5
:102A9000F6D94DE701280AD07068226A00F4803127
:102AA000914202BF00F47010616A884277D0012021
:102AB00076E0DFF854020168C9084FF47A72B1FB7E
:102AC000F2F2009200BF0098411E00280091F9D157
:102AD0002078410739D5F0690025C10009D4F06993
:102AE00040F08050F0610125F06900F080500090C6
:102AF0000098DFF82882D8F80000C1051BD4D8F868
:102B0000000040F48070C8F80000FFF7C1FD814666
:102B1000D8F80000C1050ED4FFF7BAFDA0EB0900FC
:102B20006528F5D304E73068616920F0F80040EAD1
:102B3000C1003060E6E6E06801287FF45EAF65E73B
:102B40001DB1F06920F08050F061E06938B3716820
:102B500001F00C0108299DD002288ED100F022F846
:102B60000546306881013FF57BAF206AB0F5803FB4
:102B700005D17168A06821F4003101437160726869
:102B8000206A616A22F4741202430A4372600120CF
:102B900000F009F80446306881017FF567AF002036
:102BA000BDE8F28300203866FFF772BD2DE9F041E1
:102BB0000400884672D05A4E00F077F802D200F036
:102BC0006FF86BD120684F4D810712D5400703D5B0
:102BD000696841F4E06169602078010703D568689D
:102BE00040F4605068606968A06821F0F00101431A
:102BF00069602178C80749D56068012802D1296831
:102C00008A0303E00228296802D18A0102D445E040
:102C10008A0743D56968890840EA81006860FFF740
:102C200037FD07466868616800F00C00B0EB810F63
:102C30002CD0FFF72DFDC01B41F289318842F1D322
:102C4000032021E02078410705D56A68E06822F476
:102C5000E06202436A602178080706D56968206946
:102C600021F4605141EAC001696000F023F86A680C
:102C70002C49254BC2F30312895CC84018602448D4
:102C8000006800F07BF80020BDE8F081306800F0BB
:102C900007008045D6D200F003F8D3D00120F3E737
:102CA0003168C90848EAC1013160306800F00700A6
:102CB000404570471C4915480A6802F00C03082B70
:102CC00000D0704710B500BF1AA4C2F38343D203EB
:102CD000E35C08D5096858431AA3C1F340415A5C24
:102CE000B0FBF2F010BD18461049484310BD06482D
:102CF0000D4A006813680E49C3F3C222895CC840BC
:102D000070470000001002400C00002000127A0002
:102D1000080000200000424280044242007000404F
:102D200000200240BC4000080410024000093D00A1
:102D3000E840000802030405060708090A0B0C0D09
:102D40000E0F10100102000000B500BF13009646E0
:102D50009446103928BFA0E80C50FAD85FEA417CAD
:102D600028BF0CC048BF40F8042BC90728BF20F873
:102D7000022B48BF00F8012B00BD000038B50D4DF7
:102D80000D4B2A7804464FF47A711868B1FBF2F2C1
:102D9000B0FBF2F000F049F850B9102C08D2002234
:102DA00021464FF0FF3000F023F8AC60002032BD28
:102DB000012032BD000000200C00002009010200AB
:102DC00002D4244881547047234B02F00F021A4466
:102DD00002F8041C7047214B19684FF6FF020002ED
:102DE000114000F4E06008431D4908431860704733
:102DF00038B51A4B1C68C4F30223C3F10704052C31
:102E000028BF04241D1D072D34BF0023DB1E012510
:102E100005FA04F4641E2140994005FA03F35B1E91
:102E20001A401143BDE83440C8E710B5401EB0F168
:102E3000807F01D3012010BD0A4C60600F214FF04C
:102E4000FF30FFF7BBFF0021A160072020600020BA
:102E500010BD000000E400E018ED00E00CED00E023
:102E60000000FA0510E000E0F8B50446002700264F
:102E7000002C71D004F12405686820B9AE60287078
:102E80002046FFF7CCFA204600F052FA6968CA06DD
:102E90005ED401005CD1696821F4885141F00201DF
:102EA00069606368E269217B1343A268B2F5807FA1
:102EB00014BF012A4FF48077227D012A43EA41039F
:102EC0000FD131B9A169491E490341F400610F4393
:102ED00007E0696841F020016960A96841F00101DB
:102EE000A96021684A6822F4694217434F6022684A
:102EF000DFF8041497680F401F439760A168B1F58D
:102F0000807F18BF012902D12669761E3605216807
:102F1000CA6A22F470021643CE622468DFF8DC131A
:102F2000A2680A409A4208D10023AB60696821F088
:102F3000020141F001016960F2BD686820F0020001
:102F400040F010006860A86840F00100A86003E04D
:102F5000686840F0100068600120F2BD70B500F0B4
:102F600025F801D1022070BD00F0EFF801001CD15E
:102F70006A68DFF88C1300F0D5F80DD10E6816F4EE
:102F8000702F09D000F0C0F86B68DE0446BFAB6854
:102F900023F00603002305E000F0A8F8F4D500F0C4
:102FA000ACF8F1E700F0C9F8D3E09CE0044604F186
:102FB00024052878012870472DE9FC4105460020AA
:102FC00000900C46FFF764FB804628688168CA05BC
:102FD00005F1240707D5786840F0200078600021CB
:102FE0003970012075E04168CA0513D4C06A10F435
:102FF000700F0FD1286801688A074FD414F1010FB0
:10300000F8D0002C67D0FFF743FBA0EB0800844208
:10301000F0D260E00220FFF7CFFA2968DFF8E4E29F
:103020000E69DFF8E422DFF8E43216EA0E0F02BF81
:10303000CE68DFF8DCE216EA0E0F07D10E691E42F9
:1030400005BFC96811422926142610E00E691E42E8
:1030500004BFCB68134207D00B69DFF8B8221342D4
:1030600004BFC968114201D1542600E0FC26DFF8F4
:10307000A8120A68B2FBF0F046430099B1420DD2A3
:1030800014F1010F06D034B3FFF702FBA0EB0800E8
:10309000844220D30098401C0090EEE729686FF02E
:1030A000120008607A6842F400727A60286800F0C2
:1030B00066F804BF287B00280AD1786820F4807065
:1030C00078607868C10403D4786840F001007860C3
:1030D0000020BDE8F6810021786840F004007860A7
:1030E00039700320F5E70021297070BD6E6826F461
:1030F00080166E605B685E0570476B6823F4005352
:1031000043F480536B6070476B6843F480136B60CB
:103110000E68730505D56E6826F4005646F4805691
:103120006E6070470A4042F480726A602368DFF87C
:10313000EC21DFF8EC1193427047AB6000262E7053
:103140006FF0020325682B6070470120287020462D
:103150009CE023689C6804F46024B4F5602F09D1D6
:10316000934203D1096811F4702F03D1996841F497
:10317000A00102E0996841F48011996070BD8168F6
:1031800001F46021B1F5602F70470068C06C704792
:10319000F8B50A46002100F1240300911C78012CA7
:1031A00001D10220F2BD01241C701F27546815684C
:1031B0000668072C08D2641E04EB8404D6F834C0D9
:1031C00000F05EF8756312E00D2C08D2E41F04EBEA
:1031D0008404D6F830C000F053F8356307E00D3CA6
:1031E00004EB8404D6F82CC000F04AF8F5620727F7
:1031F0001668946805680A2E08D30A3E06EB460650
:10320000D5F80CC000F036F8EC6006E006EB460698
:10321000D5F810C000F02EF82C611468102C18BFDF
:10322000112C23D100683F4CA0421AD13E480568BA
:103230002C021BD4056845F40005056010681028B1
:1032400014D1354A394D1468B4FBF5F50A204543CD
:103250000095009800281EBF0098401E0090F8D1ED
:1032600004E00121586840F02000586000201870E8
:103270000846F2BDB7402CEA0707B4403C4370470C
:10328000A7402CEA0707A5403D43704738B50446E0
:103290000020009020688168CA072AD48168234AE8
:1032A00041F0010181601C480168B1FBF2F200921B
:1032B00002E00098401E009000980028F9D1FFF726
:1032C000E7F9054620688168C80712D4FFF7E0F9DE
:1032D000401B0328F6D304F124000022416841F08A
:1032E00010014160816841F001018160027001209C
:1032F00032BD002032BD0000FDF7E1FFFE0E1FFFD2
:10330000FEFDFFFF24499224922449009224491291
:1033100024499200499224000C000020002801401A
:1033200004240140002401400824014040420F00D1
:1033300038B5044620688168CA0719D581684908EC
:1033400049008160FFF7A4F9054620688168C80735
:103350000ED5FFF79DF9401B0328F6D3A06A40F075
:103360001000A062E06A40F00100E062012032BD7E
:10337000002032BDBE49096B00224A624A6A82427D
:10338000FCD370472DE9F04F8DB000F0A5F900F0A7
:10339000E0F800F01AF909A800F014F9CCA00FF237
:1033A0000839D0E90045CDE90045B248B04CB24DEE
:1033B00020631F2161630020A0634FF6FE7120642B
:1033C0006064A064E16304F1300000F097F94FF409
:1033D0008050099009A904F1300000F0E7F90021BC
:1033E0000091019104F13000694600F0ABFA00BF92
:1033F000B6A3A248B4A10A681968A067009100208A
:103400004FF0FF31C4F880000192E16704F17800C9
:10341000FEF742FD0820302100228DF804008DF8CF
:1034200005108DF8062001A9012204F17800FEF7AD
:103430007FFD042111228DF800108DF8012012214A
:1034400000228DF802108DF803206946012204F154
:103450007800FEF715FE684600210022002380E870
:103460000E004FF46020E0610026012020612173EE
:10347000217561602560A6602046FFF7F5FC0920F4
:10348000012100900191029669462046FFF780FED7
:1034900004F1300000F03FF900F086FA00F0D2FAB3
:1034A000DFF8DC5184A62BE00021022000F0DCFBD9
:1034B000304604E00021022000F0D6FB484600F030
:1034C0001CFCBAF11F0F07DB142400F03DF8642048
:1034D00000F01EFC641EF8D100F02EFC00F00EFB84
:1034E000684903A800F07CFA802000F09BFB03A849
:1034F00000F003FC00F028F84FF47A7000F008FCAC
:1035000000F052FA00F02AFC00F04DFC044600F0F6
:1035100067FC804600F064FC074600F061FC8246D0
:1035200000F05EFC834600F05BFC012CBCD14744FC
:1035300057445F44FFB28742BCD1504600F0AEFA18
:10354000404600F0BFFABCE74FF400512846FFF7B1
:1035500073B900B593B009A82821FFF79FF804A814
:103560001421FFF79BF800F02CF8052109910123A5
:103570004FF480310A910C930D9311910022022394
:103580004FF400210B921093129109A8FFF77EF9D6
:103590000F200221049005910022069207920892C2
:1035A000012104A8FFF702FB032000904FF4807173
:1035B0004FF48042019102926846FEF78FFF13B0EC
:1035C00000BD68461021FFF769B878B585B0FFF7F0
:1035D000F8FF2D482A4E04682C4D44F01004046076
:1035E00001682B4C01F0100104910499026842F02B
:1035F00020020260036803F0200304930499026828
:1036000042F004020260036803F004030493049987
:10361000026842F0080202600022006800F0080020
:1036200004904FF4005104983046FFF701F900224E
:10363000FE212046FFF7FCF800224FF48051284677
:10364000FFF7F6F84FF4005100F024F83046FFF78A
:1036500029F8FE2100F01EF82046FFF723F84FF46A
:10366000805100F017F82846FFF71CF806B070BD2F
:1036700090000020002C0140002401400028004060
:10368000001001402801002018100240000C0140E9
:1036900000080140009101220192002102910222C2
:1036A00003926946704700004552524F523A2043F8
:1036B0004845434B53554D004552524F523A2052C4
:1036C0004553504F4E5345000000000000000000DD
:1036D000000000000000000080B50748016841F0CC
:1036E000100101600320FFF776FB0020FFF746FB87
:1036F000FEF778FE002002BD0020024038B504002D
:1037000001D1012032BD00F046F818B900F03FF8B1
:10371000FEF7C3FE28E090F83D10012901D00120FA
:103720007047022180F83D100068DFF87420904255
:1037300018BFB0F1804F07D0DFF8681088421CBF77
:10374000DFF86420904209D1816801F00701062961
:1037500008D0016841F00101016003E0026842F015
:10376000010202600020704702206870211D20685D
:1037700000F079F80120A872A870E87028716871CB
:10378000A871E871287268726870002032BD00214B
:1037900029702046704704F13C05687870470000A6
:1037A000002C0140000400400008004038B500F043
:1037B0004EF801D1022032BD012020700222627039
:1037C000DFF800012A6893680340936008680200EC
:1037D00018BF10282DD0202818BF302829D0402805
:1037E00023D0502816D0602818D0702803D0B0F508
:1037F000005F07D021E000F025F82868816841F0DB
:10380000770105E000F01EF82868816841F48041E6
:10381000816012E000F012F850210BE0CA6849689C
:10382000286800F068F8602104E000F007F8402103
:1038300000E00146286800F070F80EE0CA684968A8
:10384000286849E0CB684A68896828686DE00546C1
:1038500005F13C04207801287047012060700021A8
:103860002170002032BD70B5174E0368174C184DFB
:10387000B04218BFB0F1804F03D0A84218BFA04299
:1038800009D14A6823F070031343B0421CBFB0F162
:10389000804FA84201D0A04203D1CA6823F44073EC
:1038A00013434A6923F0800313430360B0428B68DB
:1038B000C3620A68826202D10969064A1160012363
:1038C000436170BD8800FFFF002C014000080040EC
:1038D00000040040302C014010B5036A046A6408FB
:1038E0006400046223F00A03846924F0F00444EACB
:1038F0000214846123E010B5036A23F0100303620D
:103900008369046A23F4704343EA023324F0A00479
:10391000836144EA0114046210BD826822F07002DF
:10392000114341F007018160704710B5846824F4A9
:103930007F442143114341EA0321816010BD1943B3
:10394000016210BD70B500F13C031A78012A01D163
:10395000022070BD01221A7002245C7005686E6836
:10396000AC680A6826F0700616436E6002680B4861
:10397000824218BFB2F1804F05D0094882421CBF75
:10398000084DAA4204D1486824F08004044394609E
:10399000012159700020187070BD0000002C0140FA
:1039A0000004004000080040E0B5684600F05CFA02
:1039B0000A48BDF806109DF801208170C2709DF87C
:1039C000051041709DF8041001709DF802100171FE
:1039D0009DF80310417107BD000000002801002080
:1039E000F8B504460D46002614A7A85D00F00FF8B0
:1039F0000106090F303100F00F0021703030607087
:103A0000B85DA070E41C761C052EEEDBF1BD02460D
:103A10000020082100F00F03052BA8BFC01C00F0F8
:103A2000F003502BA8BF30304004000C130648BFF1
:103A300040F001005200491EECD170472F2F203A70
:103A40000000000080B500F020F90021002000F007
:103A50000BF900BF42A000F050F90021012000F056
:103A600003F900BF43A000F048F90021022000F054
:103A7000FBF800BF43A000F040F90021032000F054
:103A8000F3F800BF43A000F038F940F6B83000F07A
:103A90003FF9BDE8014000F0DDB8000018B585B081
:103AA00000F026F80021012000F0DEF84FEA0402C1
:103AB0003CA1684600F02AFA684600F01EF943204F
:103AC00012E0000018B585B000F012F800210220C5
:103AD00000F0CAF84FEA040235A1684600F016FA71
:103AE000684600F00AF9252000F0A8F806B010BDDD
:103AF000044668461421FEF7D1BD000010B586B01B
:103B0000044601A81421FEF7C9FD0021032000F09E
:103B1000ABF82046009000F019FA00F025FA0C4AA4
:103B20000C4BFDF72DFD0C4A0C4BFEF7EDF800F0A9
:103B30003FFA00F019FA02464FEA01031EA101A85C
:103B400000F0E4F901A800F0D8F806B010BD0000BC
:103B50003EB324404D2D8BBFA4703D0AD723414076
:103B6000426C756550696C6C3A2053656E736F7268
:103B70000000000056657273696F6E2076302E3239
:103B8000000000003037202F203031202F2032302D
:103B9000323100004C7563696120537563756E7A2C
:103BA0006100000054454D503A202564200000007B
:103BB00052483A202564200050483A2025662028A3
:103BC0002564290038B50446134DCAB2022100F01D
:103BD00026F8C4F3C002802100F021F8C4F380026B
:103BE000402100F01CF8C4F34002202100F017F837
:103BF00004F00102102100F012F8012200F00EF88A
:103C00001420FFF7B7FB002200F008F8BDE83240AF
:103C10001420FFF7AFBB0000000801400821284630
:103C2000FEF706BE10B5044600210009FFF7CAFFE3
:103C300004F00F00BDE810400021C3E710B50446B2
:103C400001210009FFF7BEFF04F00F00BDE810409E
:103C50000121B7E780B50120FFF7E4FFBDE802408E
:103C6000022000F055B8000003280CD8DFE800F06F
:103C70000205080A41F0800105E041F0C00102E0C0
:103C8000943100E0D431C8B2CCE780B5322000F0E6
:103C90003FF83020FFF7C6FF052000F039F830204C
:103CA000FFF7C0FF00F026F83020FFF7BBFF0A2027
:103CB00000F02EF82020FFF7B5FF0A2000F028F8CA
:103CC0002820FFF7AFFF00F015F80820FFF7AAFF44
:103CD00000F010F80120FFF7A5FF00F00BF800F04E
:103CE00009F80620FFF79EFF00F004F8BDE8024047
:103CF0000C2097E7012000F00BB810B5044603E054
:103D000014F8010BFFF79AFF20780028F8D110BDB6
:103D100038B50446FEF7BCFC14F1010F054602D08D
:103D2000044908780419FEF7B3FC401BA042FAD3FB
:103D300031BD00BF0000002010B5074C2046FFF742
:103D40000DF94FF0FF312046FFF736F92046FFF717
:103D50001CFA80B210BD00BF9000002010B52F4C9F
:103D60004FF48051204600F060F800F016F84FF450
:103D70007A60FFF7FFFA002200F010F844F250607A
:103D8000FFF7F8FA00F009F81E20FFF7F3FA2046D3
:103D9000BDE810404FF4805150E001224FF48051B3
:103DA0002046FEF745BD38B52820FFF7E3FA1B4D46
:103DB00000F011F8002440B95020FFF7DBFA00F0C2
:103DC0000AF800280CBFFF24012400F004F80028A2
:103DD000FBD1204632BD4FF480512846FEF722BD6C
:103DE000F8B500250D4E00F01BF80028FBD0282068
:103DF000FFF7C0FA0120C5F1070700FA07F700F046
:103E00000FF8002814BF3C43BC4300F009F8002819
:103E1000FBD16D1C082DE6DBE0B2F2BD000C0140C9
:103E20004FF480513046FEF7FDBC38B584B000F049
:103E300014F8009502210391012507E038B584B0FC
:103E400000F00BF8009501210291002501956946CB
:103E50002046FEF727FC05B030BD04460D466846F7
:103E60001021FEF71BBC00003EB504461D4D00228C
:103E700002A92846FEF7A1F8002201A94FEA050091
:103E8000FEF755F99DF80A009DF809309DF80820C5
:103E900016A100904FEA040000F038F89DF80700E2
:103EA0009DF805309DF8062014A100F5FA600090F9
:103EB0000D4800F02BF89DF80700E0809DF8050004
:103EC00060719DF8060020719DF8041021709DF826
:103ED000080060709DF80900A0709DF80A00E0706D
:103EE00037BD0000080100201C010020253032648D
:103EF0003A253032643A253032640000253032648D
:103F00002D253032642D2532640000000CB430B50C
:103F100083B00A4606A90291044600250194009543
:103F200002AB01A9084878441E30FCF7DFF8019A7B
:103F3000157000284EBF04460198041B204603B0AC
:103F400030BC5DF80CFB00BF57D3FFFF00280AD040
:103F5000B0FA80F18840D1F19D01C905020672F1E5
:103F6000004241EB10207047C0F3C75181B1FF29D7
:103F700006D0C110400721F0E04101F160517047C7
:103F800041020CBF40F4E0016FF000410020704797
:103F900000F0004100020AD0B0FA80FC00FA0CF0F8
:103FA00001F16051A1EB0C5101EBD02140057047AC
:103FB00001F000428B1AA3F16051B1F5801F0ADBBA
:103FC000B1F17F6F1FD242EAC102C10071F100411D
:103FD00042EB507070470B15C3F10903212B10D22F
:103FE000890241EA905180020128494141F0004193
:103FF00021FA03F0C3F12003994071F100415041CF
:104000007047100070476FF0000013EB103F5CBF6B
:10401000000E42EAC050704710B507497944183184
:10402000064C7C44163404E00A68081D1144884795
:104030000146A142F8D110BD080000002400000094
:104040002FD1FFFFA400000090000020000000001E
:1040500017D0FFFF4E0100006A00000000000020A2
:1040600000F00DF8002801D0FFF7D6FFAFF3008075
:104070000020AFF30080FFF785F900F002F801207F
:10408000704700F001B8000007463846FDF7FAFE19
:10409000FBE77047FEE7FEE7FEE7FEE77047704785
:1040A000704700F001B8000002494A680878821899
:1040B0004A607047000000207047000000000000C8
:1040C00000000000010203040607080901488047B8
:1040D00001480047B9400008DD400008AFF3008008
:1040E000AFF30080FFF7BCFF0000000001020304F3
:1040F00000002E004300FFF7FEBFFFF7FEBFFFF7F3
:10410000FEBFFFF7FEBFFFF7FEBFFFF7FEBFFFF7E3
:10411000FEBFFFF7FEBFFFF7FEBFFFF7FEBFFFF7D3
:10412000FEBFFFF7FEBFFFF7FEBFFFF7FEBFFFF7C3
:10413000FEBFFFF7FEBFFFF7FEBFFFF7FEBFFFF7B3
:10414000FEBFFFF7FEBFFFF7FEBFFFF7FEBFFFF7A3
:10415000FEBFFFF7FEBFFFF7FEBFFFF7FEBFFFF793
:10416000FEBFFFF7FEBFFFF7FEBFFFF7FEBFFFF783
:10417000FEBFFFF7FEBFFFF7FEBFFFF7FEBFFFF773
:10418000FEBFFFF7FEBFFFF7FEBFFFF7FEBFFFF763
:10419000FEBFFFF7FEBFFFF7FEBFFFF7FEBFFFF753
:1041A000FEBF43010001221008F0050724F400F0CF
:1041B0004000080452FF01F200F21410010000F464
:1041C0000C214C1148F31620000120023112000886
:0741D0002C431F123C2101EA
:04000005080040DDD2
:00000001FF
