:020000040800F2
:10000000A8160020C5EA000825E9000827E900082D
:1000100029E900082BE900082DE90008000000008C
:100020000000000000000000000000002FE90008B0
:1000300031E900080000000033E9000835E9000854
:10004000EFEA0008F3EA0008F7EA000839E90008D7
:10005000FBEA0008FFEA000803EB000807EB0008D2
:100060000BEB00080FEB000813EB000817EB000880
:100070001BEB00081FEB000823EB000827EB000830
:100080002BEB00082FEB000833EB000837EB0008E0
:100090003BEB00083FEB000843EB000847EB000890
:1000A0004BEB00084FEB000853EB000857EB000840
:1000B0005BEB00085FEB000863EB000867EB0008F0
:1000C0006BEB00086FEB000873EB000877EB0008A0
:1000D0007BEB00083FE9000845E900084BE9000810
:1000E0007FEB000883EB000887EB00088BEB000830
:1000F0008FEB000893EB000897EB00089BEB0008E0
:100100009FEB000851E90008A3EB0008A7EB0008EB
:1001100057E90008ABEB0008AFEB0008B3EB0008B1
:10012000B7EB0008BBEB0008BFEB00085DE9000877
:1001300063E90008C3EB0008C7EB0008CBEB00083D
:10014000CFEB0008D3EB0008D7EB0008DBEB00088F
:10015000DFEB0008E3EB000869E90008E7EB0008C3
:10016000EBEB0008EFEB0008F3EB0008F7EB0008FF
:10017000FBEB0008FFEB000803EC000800000000A8
:1001800007EC00080BEC00084178007840EA0120F9
:100190007047C178827842EA0122417841EA02211F
:1001A000007840EA012070470170090A41707047E9
:1001B0000170090A4170090A8170090AC17070470B
:1001C000002A05D011F8013B00F8013B521EF9D17D
:1001D000704700F8011B521EFBD1704710B4034654
:1001E00013F8014B11F8010B201A521E01D0002800
:1001F000F6D010BC704703461A78100003D088422E
:1002000001D05B1CF8E7704770B40A4600231C4617
:10021000022C26D2DFF8F41A01EB04152968002914
:1002200001D101230AE00668B14207D169688668F6
:10023000B14203D1A9684569A94212D0641CE7E71D
:1002400012200CE0002A07D1DFF8C00A00EB0410EE
:100250008089B0F5807F01D1102000E0002070BCC3
:100260007047022CEED1002B01D1022AE8D10020E8
:10027000F5E70021012909D8DFF8900A0A01805822
:10028000002803D0491CF5E7012070470229FBD163
:100290000020704770B40022DFF8703A022A23D29F
:1002A00014011D590668B5420AD11D1D2D598668D5
:1002B000B54205D103F108052C594569AC4213D06C
:1002C000521CEBE710011858002813D0521C0FE005
:1002D000002902D04FF4807001E09889401C988179
:1002E000521C104670BC70470446022A10D10022EE
:1002F000022AE7D3022A12D010011D1826682E60A8
:10030000A6686E60646903F1080634500020A88175
:1003100003EB02130029DBD098890028D8D00020F5
:10032000E0E710B4401E022814D20001DFF8DC1907
:100330000A1893891C46B4F5807F00D100231C0065
:1003400000D05B1E93819BB2002B01D100220A508A
:10035000002000E0022010BC704710B40021DFF83C
:10036000AC3906E00A019C58844201D100249C501B
:10037000491C0129F6D910BC7047F8B50546002480
:10038000E878002820D0EE6A0123324605F13001DA
:10039000687801F0B1FB002801D0012414E0204668
:1003A000E870286A301AA96988420DD2AF7809E04E
:1003B000A86986190123324605F13001687801F0F9
:1003C0009BFB7F1E012FF3D82046F2BD70B504467B
:1003D0000D460026E06A854211D02046FFF7CDFF8A
:1003E00006000CD101232A4604F13001607801F0A7
:1003F00078FB002802D04FF0FF350126E562304639
:1004000070BD38B50446FFF7B8FF05003BD1207832
:10041000032830D1207901282DD14FF4007200211A
:1004200004F13000FFF7D5FE4AF6552104F22E20E4
:10043000FFF7BAFEDFF8D81804F13000FFF7B8FE76
:10044000DFF8D01804F50570FFF7B2FE216904F556
:100450000670FFF7ADFEE16804F50770FFF7A8FE30
:10046000E269521CE262012304F13001607801F07C
:1004700043FB0020207100221146607801F047FB09
:10048000002800D00125284632BD891E4269921EEF
:10049000914201D3002070474289806A02FB01012A
:1004A000084670472DE9F0410C460568022C5AD3E6
:1004B0006869844257D24FF0FF362878012804D06B
:1004C00051D303283BD028D34DE004EB5407296ACD
:1004D00001EB57212846FFF779FF002844D105F1A9
:1004E0003000C7F3080110F801807F1C296A01EB76
:1004F00057212846FFF76AFF002835D1464605F107
:100500003000C7F30807C05D46EA0026E00701D5C2
:10051000360929E0C6F30B0626E0296A01EB14210F
:100520002846FFF753FF00281ED105F13000640074
:10053000C4F308042044FFF727FE064614E0296AA6
:1005400001EBD4112846FFF741FF00280CD105F13B
:100550003000A400C4F308042044FFF71AFE064646
:1005600026F0704600E001263046BDE8F0812DE916
:10057000F04105460E4614460227022E72D36869E2
:1005800086426FD22878012804D06BD303284FD03D
:1005900039D367E006EB5608296A01EB5821284653
:1005A000FFF714FF07005DD105F13000C8F3080123
:1005B000084408F10108F10705D5017801F00F01A1
:1005C00041EA041100E0214601700120E870296A27
:1005D00001EB58212846FFF7F9FE070042D105F14B
:1005E0003000C8F308084044F10701D5240906E0AB
:1005F000017801F0F001240A04F00F040C430470A8
:100600000120E8702EE0296A01EB16212846FFF749
:10061000DDFE070026D1214689B205F130007600C3
:10062000C6F308063044FFF7BFFD0120E87019E06B
:10063000296A01EBD6112846FFF7C8FE070011D141
:1006400005F13000B600C6F3080606443046FFF751
:10065000A0FD000F60F31F7421463046FFF7A8FD90
:100660000120E8703846BDE8F081F8B505460F4630
:1006700011462E68012F2ED9706987422BD200298E
:1006800006D04FF0FF323046FFF771FF010021D155
:1006900039462846FFF706FF04001AD0012C1AD06D
:1006A00014F1010F19D0002239463046FFF75FFFE1
:1006B00001000FD130697169891E884205D2401C42
:1006C0003061307940F0010030712746706987420F
:1006D000DED30020F2BD0220F2BD0120F2BD2DE9E3
:1006E000F04107460C003E6807D1F568002D02D0A6
:1006F000706985420ED301250CE0FFF7D3FE012877
:1007000001D8012046E010F1010F43D07169884201
:1007100040D32546A84608F101087069804503D3F7
:100720004FF00208012D0CD941463846FFF7BAFEBA
:10073000002808D001282DD010F1010F2AD0A8459B
:10074000E9D1002026E04FF0FF3241463046FFF766
:100750000EFF002806D1002C04D042462146304628
:10076000FFF705FF00280DD1C6F80C8030697169CC
:10077000891E814201D3401E3061307940F0010072
:10078000307106E0012802D14FF0FF3801E04FF050
:1007900001084046BDE8F081C26A121D490A00689E
:1007A0004089B1FBF0F003E0884206D3401A0832DA
:1007B00011680029F8D10020704751680818704767
:1007C0002DE9F04105460E462F68B6F5001F02D20E
:1007D00016F01F0F01D0022033E06E61AC68002CD0
:1007E00003D13878032800DB7C6A002C09D130461D
:1007F00040093989884201D3022022E0786AE86101
:1008000025E0B7F80A8006E0022C26D378698442F6
:1008100023D2A6EB4826B6EB482F214613D3284611
:10082000FFF740FE044614F1010FEDD1012008E06E
:1008300000EB5620E861C6F30806B819303028628C
:100840000020BDE8F0813846FFF71FFEE861AC618B
:10085000E8690028ECD10220F3E70220F1E72DE956
:10086000F04106460C463768D6F8148008F1200897
:10087000F069002802D0B8F5001F01D3042068E019
:100880005FEAC8515CD1401CF061B169002905D113
:10089000404640093989884252D312E07889401E87
:1008A00010EA582F4CD13046FFF7FCFD0546012DCC
:1008B00015D915F1010F38D0786985423AD3002C4B
:1008C00003D10020F061042043E0B1693046FFF716
:1008D00006FF050001D107203BE0012D01D10220D8
:1008E00037E015F1010F20D03846FFF746FD00280C
:1008F0001BD14FF40072002107F13000FFF769FCB3
:10090000002429463846FFF7C0FDF86203E0641C66
:10091000F86A401CF8627889844208D20120F87095
:100920003846FFF72AFD0028F1D0012011E0F86ACF
:10093000041BFC62B56129463846FFF7A6FDF0614D
:10094000C6F8148007F13000C8F30808404430624C
:100950000020BDE8F081F8B504460D462668002168
:10096000FFF72EFF01000FD10027E1693046FFF7A6
:100970002DFD010008D1206A0078E52801D000286B
:1009800008D17F1CAF4206D10846042800D10721B8
:100990000846F2BD002701212046FFF760FF010055
:1009A000E3D0F1E770B504460D4605F11A00FFF7F4
:1009B000EBFB06462078032805D105F11400FFF76C
:1009C000E3FB46EA0046304670BD70B504460D466E
:1009D0001646314689B205F11A00FFF7E5FB20788B
:1009E000032807D1360C314605F11400BDE87040EC
:1009F000FFF7DABB70BD70B5044625680021FFF72C
:100A0000DFFE060020D1E1692846FFF7DFFC060083
:100A10001AD1216A0878002815D0C87A00F03F0062
:100A2000A071206AC17A090706D40B2204F12401BF
:100A3000FFF7D4FB002807D000212046FFF70FFF67
:100A40000600E0D000E00426304670BD70B50446D4
:100A500025680121FFF77FFF060012D1E1692846D2
:100A6000FFF7B4FC06000CD120220021206AFFF71A
:100A7000B0FB0B2204F12401206AFFF7A1FB012047
:100A8000E870304670BD00002DE9F0470E4637682B
:100A900000F124080B2220214046FFF79AFB002595
:100AA000A9464FF0080A07E0BAF10B0F48D02E2CE8
:100AB00046D108254FF00B0A17F8094009F1010942
:100AC000202C38DD2F2C01D05C2C08D117F8090020
:100AD0002F2801D05C282ED109F10109F6E72E2C30
:100AE000E2D05545E0D2802C04DB00BF15A02044A5
:100AF00010F8804C4FEA040132A0FFF77CFB00287D
:100B00001ED1A4F161001A2800D2203C08F805404B
:100B10006D1CD1E798F80000E52802D1052088F87F
:100B20000000202C01DC042000E0002088F80B00ED
:100B30000020BDE8F08707EB09003060002DE9D107
:100B40000620F6E743554541414141434545454966
:100B5000494941414592924F4F4F5555594F554F35
:100B60009C4F9E9F41494F55A5A5A6A7A8A9AAABF2
:100B7000ACADAEAFB0B1B2B3B4414141B8B9BABB9C
:100B8000BCBDBEBFC0C1C2C3C4C54141C8C9CACB38
:100B9000CCCDCECFD1D145454549494949D9DADBFC
:100BA000DCDD49DF4FE14F4F4F4FE6E8E855555543
:100BB0005959EEEFF0F1F2F3F4F5F6F7F8F9FAFB24
:100BC000FCFDFEFF222A2B2C3A3B3C3D3E3F5B5D69
:100BD0007C7F000032B50446256802E00098401C86
:100BE0000090009800782F28F8D05C28F6D00020DC
:100BF000A06000980078202816D2802084F82F006A
:100C000000212046FFF7DCFD32BD490720D4A07942
:100C1000C0061CD56069C0F30800284400F130010B
:100C20002846FFF7BFFEA06069462046FFF72CFF6D
:100C300001000DD12046FFF7DEFE94F82F100200D0
:100C4000E3D0042A04D1490702D4052032BD05208F
:100C500032BD03464FF0FF301A68002A00D17047BA
:100C600010B411780C46212C06D33A2904D0521C1A
:100C7000F7E7002010BC70473A29FAD11C6814F835
:100C8000011B30390A29F5D29442F3D10029F1D160
:100C900000210846511C1960ECE710B504460020FD
:100CA000E0704FF0FF30E0622046FFF78FFB002836
:100CB00001D0042010BD04F22E20FFF765FA4AF699
:100CC0005521884201D0032010BD04F13000017885
:100CD000E92904D0EB2916D18078902813D104F1AA
:100CE0006600FFF756FA20F07F40DFF84C13884289
:100CF00007D004F18200FFF74CFADFF84013884276
:100D000001D1002010BD022010BD0000CC0D00203C
:100D100052526141727241612DE9FF418846144689
:100D20000021C8F80010FFF794FF070001D50B2041
:100D300027E1DFF80C63301D50F82750002D01D15A
:100D40000C201EE1C8F8005004F0FE0428780028AA
:100D50000BD0687800F0ACFE0146C90705D4002C22
:100D600001D0400710D400200BE1002028706F70E4
:100D7000687800F0A6FE0146C90701D5032000E10E
:100D8000002C03D0400701D50A20FAE000242146B8
:100D90002846FFF782FF02281BD1042C80F0F48044
:100DA00005EB041000F5F7710879002801D1002047
:100DB00003E001F10800FFF7ECF9694641F824006F
:100DC000641CEAE70320022803DB7F1C042FC0F029
:100DD000DC80042801D10120D3E0022880F28D803C
:100DE00005F13B00FFF7D0F9B0F5007F40F08580BA
:100DF00005F14600FFF7C8F9070004D105F15400DA
:100E0000FFF7C7F90746AF6105F13D00C178A9704A
:100E1000012901D0022970D14F4300786881010077
:100E20006BD0411E084268D105F14100FFF7ACF9D3
:100E3000288110F00F0F60D105F14300FFF7A4F9EE
:100E40008046B8F1000F04D105F15000FFF7A1F979
:100E5000804605F13E00FFF797F900284DD03A187B
:100E6000298902EB1112904547D3A8EB0208698942
:100E7000B8FBF1F1002940D04FF003084FF6F673AC
:100E8000994201D24FF0020840F6F673994201D21E
:100E90004FF00108891C6961EC6100192862121980
:100EA000AA62B8F1030F10D105F15A00FFF76CF9EF
:100EB000002822D1288900281FD105F15C00FFF706
:100EC00068F968626869800011E02889002814D0F8
:100ED000286A3F186F626869B8F1020F01D14000BB
:100EE00005E000EB400100F0010000EB5100A969B2
:100EF00000F2FF10B1EB502F01D20D2041E04FF076
:100F0000FF302861E86080202871B8F1030F2ED1EE
:100F100005F16000FFF738F9012828D1641C21464B
:100F20002846FFF753FA002821D10020287105F246
:100F30002E20FFF729F94AF65521884217D105F1ED
:100F40003000FFF726F93F49884210D105F50570BA
:100F5000FFF71FF93C49884209D105F50670FFF7F4
:100F600018F9286105F50770FFF713F9E86085F8AF
:100F700000803088401C3080E8802846FFF7EDF97B
:100F8000002004B0BDE8F0810027684650F82740F3
:100F9000002C3FF417AF21462846FFF77EFE12E7EC
:100FA00070B504460D460926002C0FD02168002993
:100FB0000CD00878002809D0A088CA88904205D1B2
:100FC000487800F075FDC00700D40026300001D13C
:100FD000206800E000202860304670BD73B582B004
:100FE0001546084600906846FFF733FE002801D5F5
:100FF0000B201EE0124901EB80067468002C04D01F
:101000002046FFF7AAF9002020700298002802D09D
:10101000002002990870029870600298002801D0A0
:10102000012D01D0002004E0002202A903A8FFF74F
:1010300073FE04B070BD0000464154004641543375
:10104000800E002052526141727241612DE9F241DD
:101050008DB004461746002C01D10920EFE007F0BF
:101060003F073A4669460DA8FFF756FE060040F0D6
:10107000E180009801900D9901A8FFF7ABFD0600F3
:101080000FD19DF83300000601D5062609E007F0D0
:10109000FE00411E8941C943C90F01A8FFF7B4F8FA
:1010A000064617F01C0F57D030000ED0042809D187
:1010B000FFF7DFF8002804D001A8FFF7C7FC0646B9
:1010C00000E0122647F0080709E09DF80A0010F03A
:1010D000110F01D0072602E0780700D5082630005E
:1010E00047D1380745D500F02DFD0546294609981A
:1010F0000E30FFF75DF8294609981630FFF758F8CB
:1011000020200999C872DDF8248041460098FFF735
:1011100049FC0546002241460098FFF756FC002195
:1011200009981C30FFF744F801200099C870002D81
:101130001FD00098D0F82C800022294601A8FFF784
:1011400094FA060015D141460098FFF73FF906468C
:101150006D1E0098C5600CE030000AD19DF80A00B1
:10116000C10601D5042604E0B90702D5C00700D5A1
:101170000726300015D1380701D547F04007009801
:10118000C06A60620998A06207F0FE00411E8941B2
:10119000C943C90F01A8FFF77DF82061002800D1DD
:1011A0000226300046D109990098FFF7FBFBA060AA
:1011B00009981C30FEF7EDFFE0600020E062009827
:1011C00020600098C088A08027750020607520628C
:1011D000A0614FF40072014604F13000FEF7F9FF00
:1011E000B80627D5E068002824D0A0610098478978
:1011F0007F02A168E568300024D1AF4222D22046A8
:10120000FFF750F90146022900D2022611F1010F21
:1012100000D10126ED1BEEE700EB552020620123F3
:10122000024604F130010098407800F05AFC002892
:1012300000D00126300001D00020206030460EB0E2
:10124000BDE8F081E1613000F4D1E805F2D000980A
:10125000FFF71BF90028DFD10226EBE72DE9FC4759
:1012600007468946144698460020C8F8000069469B
:101270003846FFF795FE010040F0BE80787D010002
:1012800040F0BA80387D800701D40720B4E0B86907
:101290002118814267D24FF0FF3104460C1B62E0F7
:1012A000F9693846FFF71BFA002800F0A0800128F2
:1012B00000F0A48010F1010F00F0A380F861B9687C
:1012C000002900D1B860387D00060ED501233A6AA6
:1012D00007F130010098407800F00EFC002840F043
:1012E0009080387D00F07F003875F9690098FFF72D
:1012F000CCF88246BAF1000F00F08080AA4426465E
:10130000760A4CD0009840897119884201D2451B59
:101310002E463346524649460098407800F0ECFB92
:1013200000286ED1386AA0EB0A0AB2450BD24FF4FE
:10133000007209EB4A2107F13000FEF741FF387DCA
:1013400000F07F0038757602B144B8693018B86192
:10135000F968884200D20846F860D8F800003018D2
:10136000C8F80000A41B002C41D0B969C80529D1D8
:10137000009845896D1E15EA5125A4D1002907D191
:10138000B868002890D100213846FFF7A8F98BE70C
:10139000F86A002884D03846FFF7FEF984E7386AF7
:1013A00050450DD0B869F968884209D201235246E8
:1013B00007F130010098407800F093FB002820D11D
:1013C000C7F820A0BB69C3F30803C3F50070264625
:1013D000844200D906463246494607F13000184497
:1013E000FEF7EEFE387D40F080003875ACE7387DC2
:1013F00040F0400038750020BDE8F687022078757F
:10140000FAE701207875F7E77CB504466946FFF7EF
:10141000C7FD010040D1217D4A063DD508060FD504
:101420000123226A04F130010098407800F064FB47
:10143000002801D0012076BD207D00F07F002075BE
:1014400000F080FB0546616A0098FEF7BFFF0100CF
:1014500022D1A66AF07A40F02000F072A2683146EC
:101460002068FFF7B2FAE16806F11C00FEF7A0FE63
:10147000294606F11600FEF79BFE002106F1120038
:10148000FEF792FE01200099C8700098FEF7B9FFA0
:10149000217D01F0BF01217576BD1CB50446FFF723
:1014A000B3FF01000CD169462046FFF779FD01002A
:1014B00006D12069FEF735FF010001D1002121602E
:1014C00016BD2DE9F94F87B00D46144607A8FFF762
:1014D000C0FB010001D50B2090E2DFF8640550F855
:1014E0002100002801D0002202708DF800109DF824
:1014F000000000F0E6FA0146C90701D503207DE2AD
:10150000400701D50A2079E202AA03219DF80000D4
:1015100000F0FDFA00280AD10298002807D048F20E
:101520000101884203D20146491E084201D0012030
:101530000290002C02D0B4F5007F42D3DFF80405FE
:1015400084423ED2601E04423BD11298640A400A93
:1015500004904002059000F0C28001AA01219DF88C
:10156000000000F0D4FA002801D0012046E28DF8F6
:1015700001502846000702D50020039001E03F20DB
:101580000390019803998842C0F0A980014603980E
:10159000091A019108468028C0F0A180802C10D83B
:1015A000294611F0020109D0284600F00700022860
:1015B00002D02846C00701D4032607E02846C0070A
:1015C00001D413201AE2022600E004462546032E29
:1015D00013D1002D40F01582019A520C00230125F1
:1015E0000FF2BC4030F81300002800F00A8282425B
:1015F000C0F007825B1C6D00F2E7002D40F0138203
:10160000019A120B002301250FF2844030F81300D9
:10161000002800F008828242C0F005825B1C6D0049
:10162000F2E7012607EB47077F1C7F08FF1C07F244
:10163000FF177F0A4FF0010A4FF02008DDF80CB0C9
:10164000D34407EB0B024244029B9B185B1E02989B
:10165000401E23EA0000801A032E03D1824458441E
:10166000834601E0C0190746019B02EB051203986F
:10167000121A934233D31846A0EB0A00C01BA0EB0A
:101680000800B0FBF5F9032E09D14FF6F67081453D
:1016900005D2002C23D12C46640897D11FE0022EDE
:1016A00017D14FF6F670814508D3002C02D168009F
:1016B00041288AD3002905D0032687E740F6F67033
:1016C000814506D2002C0AD12C466400802C06D815
:1016D0007CE7012E05D140F6F670814501D30E203E
:1016E0008CE1089C4FF4007200212046FEF771FD4A
:1016F0000B220FF268312046FEF762FD4FF40071B5
:1017000004F10B00FEF750FD6573514689B204F1F8
:101710000E00FEF749FD01202074032E01D10021A7
:1017200001E04FF4007104F11100FEF73DFD019856
:10173000B0F5803F014605D289B204F11300FEF7EF
:1017400033FD03E004F12000FEF732FDF820607560
:101750003F2104F11800FEF727FDFF2104F11A00D4
:10176000FEF722FD039904F11C00FEF721FD04F1B0
:10177000240A032E27D100F0E5F9014604F14300C5
:10178000FEF716FD39465046FEF712FD022104F120
:101790002C00FEF70DFD012104F13000FEF704FDE1
:1017A000062104F13200FEF7FFFC80208AF81C00BD
:1017B00029208AF81E0013220FF2AC2104F1470001
:1017C000FEF7FEFC19E000F0BDF9014604F1270028
:1017D000FEF7EEFC394689B204F11600FEF7E4FC90
:1017E00080208AF8000029208AF8020013220FF2D4
:1017F0008C2104F12B00FEF7E3FC4AF6552104F599
:10180000FF70FEF7D1FC0123039A21469DF80000EA
:1018100000F072F9002801D00120EFE0032E38D14A
:101820000123039A921D21469DF8000000F064F9FF
:101830004FF4007200212046FEF7CBFC824920467F
:10184000FEF7B6FC814904F5F270FEF7B1FCA9F190
:101850000109494604F5F470FEF7AAFC022104F5DB
:10186000F670FEF7A5FC4AF6552104F5FF70FEF769
:101870009BFC0123039AD21D21469DF8000000F035
:101880003BF90123039A521C21469DF8000000F009
:1018900033F9059A00212046FEF79BFC002026E044
:1018A000012E01D16A4901E06FF007012046FEF7E1
:1018B0007FFC3846A1460446DDF810A0A24500D9B9
:1018C000A24653465A4649469DF8000000F014F9D6
:1018D000002821D14FF4007200214846FEF779FC20
:1018E000D344B4EB0A0A5446E6D14C460120002802
:1018F00014D1032ED4D16FF007012046FEF758FC17
:101900004FF0FF31201DFEF753FC6FF0704104F1E2
:101910000800FEF74DFCCCE701206FE0032E18D144
:101920009DF80070DDF81080C146A84500D9A94691
:101930004B465A462146384600F0DEF800280AD1C8
:10194000CB44B5EB09094D46EED1032E05D10C254C
:101950000EE04546E4E7012050E00198B0F5803FF5
:1019600001D3062504E0022E01D1042500E0012563
:101970009DF80100000738D44FF400720021204682
:10198000FEF727FC4AF6552104F5FF70FEF70CFC24
:1019900004F5DF7100200870012048708870002075
:1019A000C8700D71039A0198821843F6C160B2FBAA
:1019B000F0F0FE224A710246920842F03F028A711C
:1019C000C871039904F5E370FEF7F2FB019904F581
:1019D000E570FEF7EDFB012300222146384600F0BA
:1019E0008BF8002801D0012008E00022114638467B
:1019F00000F08DF8401E8041C043C00F09B0BDE823
:101A0000F08F0198B0FBF5F2970007F207277F0AE5
:101A10004FF0200A4FF000080E4882180E4882420C
:101A2000FFF40CAE5BE60198B0FBF5F740F6F670FC
:101A30008742FFF4F6AD7F003F1DF8E5000000008F
:101A4000840E002001000001525261417272416116
:101A5000F8FFFF000A00FFFF0000FF0FEBFE904DB4
:101A600053444F53352E30004E4F204E414D4520AC
:101A70002020204641543332202020004E4F204E5B
:101A8000414D452020202046415420202020200088
:101A900001000400100040000001000200000000EE
:101AA00001000200040008001000200000000000F7
:101AB00001461D4A5018007A02EB810149684968C5
:101AC000084702460020184B995C002908D10120E4
:101AD00098549818007A03EB82014968096808470E
:101AE000704738B50446104D2819007A05EB840478
:101AF0006468A468A04732BD38B504460A4D281969
:101B0000007A05EB84046468E468A04732BD18B429
:101B10000346054CE018007A04EB83035B681B69FD
:101B200001B010BC18470000440E002010B5034C53
:101B3000211D034800F026F8207010BD780E00200B
:101B4000B0EA00080020704730B4044601200E4D72
:101B50006B7A002B14D100206B7AE854687A05EB7D
:101B600080004460687A28440272687A421C6A7273
:101B7000303008703A2048702F2088700020C870DC
:101B800030BC70470022DFE7440E002010B50D4C3A
:101B900000202070607001F03DFBA070322060607A
:101BA00010BD10B5074C0020607001F033FBA07031
:101BB0003220606010BD03494868002801D0401EF3
:101BC00048607047900E00202DE9F84F2DED028BF4
:101BD00084B0DFF8E8BC9BF8000040F008008BF808
:101BE00000009BF8000040F002008BF80000DFF8D6
:101BF000D04C207840F001002070207840F00400A4
:101C00002070DFF8C0AC9AF8000040F004008AF8B9
:101C100000009AF8000040F008008AF800009AF8E6
:101C2000000040F010008AF800009AF8000040F030
:101C300020008AF80000DFF8909CDFF8905C68686C
:101C4000002899F80000C0F300101AD100280AD02B
:101C500000202870687001F03BFB99F8000000F04C
:101C6000EF0089F80000DFF8680C0078C0F3C000CE
:101C7000002841F08F8004B0BDEC028BBDE8F14F2D
:101C80008FE7002807D101F0D6FA99F8000040F05C
:101C9000100089F80000DFF8386C307800F00F0091
:101CA0000F2801D03220686001F0B4FADFF8247CFC
:101CB000A978401AFA28C0F07B8101F0ABFAA8702D
:101CC0006878002802D0012840F0588107210020C0
:101CD00001F02BFB07F12108002088F8000009E043
:101CE000001D02F0EBF898F800100A46B854491CA1
:101CF00088F8001098F800000F28F1DD00203874F3
:101D00003A46014601F095FB172002F0D7F808EE9D
:101D1000100A162002F0D2F808EE900AB8EE480A2F
:101D2000F2EE040A80EE200A10EE100A02F0C0F96A
:101D3000CDE90201B8EE680AF2EE040A80EE200A4C
:101D400010EE100A02F0B4F9CDE90001DFF8880BBB
:101D5000006802F0ADF902460B46DFF8801B3846FA
:101D600002F0CAF93A460221002001F08CFBDFF8AC
:101D7000708B2078C0F34000002802D12078C00783
:101D800008D598F80500C00704D57BA202210020E1
:101D900001F079FB152002F091F80290142002F076
:101DA0008DF8029901910090DFF8380B006802F07D
:101DB0007FF902460B46DFF8301B384602F09CF9EB
:101DC0003A460321002001F05EFB2078C0F3C000FA
:101DD000002804D12078C0F38000002808D098F8AB
:101DE0000500C00704D564A20321002001F04BFBCD
:101DF0009AF80000C0F38000002804D0D2A2042189
:101E00000E2001F040FB98F80500C00704D5CFA2D2
:101E100004210E2001F037FB9AF80000C0F3C00047
:101E2000002804D0CAA20421122001F02CFB98F84B
:101E30000500C00704D5C5A20421122001F023FB30
:101E4000DFF8A80A0278DFF8A81A384602F054F939
:101E50003A460521002001F016FB9BF80000C00760
:101E600005D5BCA20521092001F00DFB0AE09BF875
:101E70000000C0F34000002804D0B7A205210920CB
:101E800001F001FB98F80500C00704D5B3A20521B5
:101E9000092001F0F8FA9AF80000C0F300100028B9
:101EA00004D0AFA205210E2001F0EDFA98F805004C
:101EB000C00704D5A5A205210E2001F0E4FA9AF886
:101EC0000000C0F34010002804D0A6A20521122073
:101ED00001F0D9FA98F80500C00704D59BA20521A6
:101EE000122001F0D0FADFF80C0A0278DFF8081AA5
:101EF000384602F001F93A460621002001F0C3FA03
:101F00009BF80000C0F38000002805D096A20621AF
:101F1000092001F0B8FA0AE09BF80000C0F3C00005
:101F2000002804D091A20621092001F0ACFA98F80B
:101F30000500C00704D589A20621092001F0A3FAF3
:101F4000384602F03BF93A4606210E2001F09BFA92
:101F50004146384602F070FB3A460721002001F066
:101F600092FA98F80500C00722D57CA207210B2021
:101F700001F089FA1CE000BF2020000003210020AE
:101F800001F0D3F9DFF874290021084601F07BFA4B
:101F90000020009001230246DFF8641907F12800B1
:101FA00002F0AAF807F128020121002001F06BFAE3
:101FB000697808469B2800F2E486DFE810F0CA053D
:101FC0009C00B500D900CA050A0164017F01CA0559
:101FD00091011A02CA056902D8020D03CA05DB0580
:101FE000E6020D03CA05DB05F3022103CA05DB0582
:101FF00000032103CA05DB05350338035604CA056F
:1020000046064A03E403CA05DB055803F803CA057C
:10201000DB056603F803CA05DB0574030C04CA0577
:10202000DB0582030C04CA05DB0590030C04CA051A
:10203000DB059E030C04CA05DB05AC032004CA05BE
:10204000DB05BA032004CA05DB05C8033404CA054E
:10205000DB05D6033404CA05DB05690438035604DE
:10206000CA0546064A03E403CA05DB055803F8031C
:10207000CA05DB056603F803CA05DB0574030C0417
:10208000CA05DB0582030C04CA05DB0590030C04BA
:10209000CA05DB059E030C04CA05DB05AC0320045E
:1020A000CA05DB05BA032004CA05DB05C8033404EE
:1020B000CA05DB05D6033404CA05DB0569046C04D4
:1020C000A304CA05C4042F053C05CA05DB05540555
:1020D000B405CA0546066B05B405CA054606820561
:1020E000B405CA0546069B05B405CA054606E206C0
:1020F000CA05E206C7053078C0F3C000002840F0EA
:1021000042860721002001F010F9002007F121018B
:1021100048702878002803D00A20687000F033BE89
:102120000220687000F02FBEDFF8A02C04210020F0
:1021300001F0A9F9002007F1210148706878401CDE
:10214000687000F020BE00BF4D49430020202000F1
:102150004D414300540000007400000020000000C6
:102160004845520041434900480000006800000013
:1021700007F121004078042826D8DFE800F0030AA0
:1021800011181F000FF654420521002001F07BF9C1
:102190001AE00FF658420521002001F074F913E00F
:1021A0000FF658420521002001F06DF90CE00FF602
:1021B0005C420521002001F066F905E00FF65C4263
:1021C0000521002001F05FF96878401C687000F07C
:1021D000DABD3078C0F3C000002800F06A813078A2
:1021E000C0F3800000280CD107F1210041780A4695
:1021F000042A80F2C885491C41700320687000F0F1
:10220000C2BD3078C0F3400000280BD107F1210196
:102210004878002800F0B785401E48700320687099
:1022200000F0B1BD3078C00700F1AD850721042072
:1022300001F07BF80620687007F12100407804283F
:102240001DD8DFE800F003080D121700012087F801
:10225000200000F098BD022087F8200000F093BD18
:10226000032087F8200000F08EBD042087F82000AE
:1022700000F089BD052087F8200000F084BD04200F
:10228000687000F080BD07F121000021017020235B
:1022900002E0BB54491C017001780A46082AF8DBA9
:1022A0000021397201700FF6E8320421002001F09C
:1022B000EAF86878401C687000F065BD3A46052170
:1022C000002001F0E0F897F82100012301467A1878
:1022D000052101F052F96878401C687000F053BD88
:1022E00007F121043078C0F38000002818D194F859
:1022F0000080B8F1080F13DA17F80800401C07F83F
:102300000800C0B200F098FD07F8080099F8000036
:1023100040F0010089F800000720687000F033BD2C
:102320003078C0F34000002818D194F80080B8F14C
:10233000080F13DA17F80800401E07F80800C0B2AB
:1023400000F090FD07F8080099F8000040F0010047
:1023500089F800000720687000F015BD3078C007CC
:1023600003D42078002840F051833078C0F3C000B7
:10237000002840F008852078401C2070C0B2082852
:1023800033DB0721042000F0D0FF002020702078EC
:10239000082809DA97F82010052911D1395C0FF6C1
:1023A0008C22105C814218D02078082819D197F827
:1023B00020002870002060700A20687000F0E3BCE4
:1023C0000FF67022114411F8011C401801F076FD3F
:1023D0002178795CC0B28142E6D12078401C20701F
:1023E000D5E70020687000F0CEBC0720687000F0D0
:1023F000CABC07F12100407804283ED8DFE800F08D
:102400000322293037002078C0F30010002806D1BD
:102410000FF68C220421002001F035F82DE0207801
:10242000C0F34010002806D10FF6842204210020BA
:1024300001F029F821E00FF688220421002001F0A4
:1024400022F81AE00FF688220421002001F01BF880
:1024500013E00FF68C220421002001F014F80CE0A8
:102460000FF68C220421002001F00DF805E00FF694
:1024700090220421002001F006F80FF69422052195
:10248000002001F000F86878401C687000F07BBC08
:102490003078C0F3C000002817D10721042000F0D5
:1024A00044FF07F121004178491C4170C9B2052958
:1024B00007DB0721042000F038FF0020687000F0DF
:1024C00062BC0A20687000F05EBC3078C00700F182
:1024D0005A840721042000F028FF07F121004178E9
:1024E000042940D8DFE801F0032B2F353B00287882
:1024F000002820D02078C0F3001000280ED12078CA
:1025000040F010002070207800F0DF0020700622DC
:10251000DFF8CC13DFF8B80802F00AF92078C0F32E
:1025200040100028207803D140F02000207002E005
:1025300000F0DF0020700020687000F024BC0D2047
:10254000687000F020BC1E2169700021417100F00C
:102550001ABC4F2169701B21417100F014BC80200E
:10256000687000F010BC0020687000F00CBC012006
:1025700007F1210188700FF6A811042000F0EAFF8E
:102580006878401C687000F0FEBB002007F1210154
:1025900088700FF6B011042000F0DCFF6878401C52
:1025A0006870F0E3032007F1210188700FF6B8117D
:1025B000042000F0CFFF6878401C6870E3E302203D
:1025C00007F1210188700FF6C011042000F0C2FF4E
:1025D0006878401C6870D6E307F12100807801F02C
:1025E0006DFC02460FF6C011384601F085FD3A46F3
:1025F0000521084600F047FF6878401C6870C2E378
:1026000007F12100807801F059FC02460FF6A01175
:10261000384601F071FD3A460521084600F033FFC7
:102620006878401C6870AEE30A206870ABE30FF670
:1026300088120421002000F026FF07F121004179D3
:10264000091D8170C170102101716878401C68708B
:1026500099E307F1210041791E3181700FF6701165
:10266000042000F077FF6878401C68708BE307F166
:10267000210041791C3181700FF66C11042000F0AB
:1026800069FF6878401C68707DE307F1210041799B
:102690001D3181700FF67411042000F05BFF687823
:1026A000401C68706FE307F1210041791831817097
:1026B0000FF67811042000F04DFF6878401C687018
:1026C00061E307F121004179193181700FF688111A
:1026D000042000F03FFF6878401C687053E307F166
:1026E000210041791A3181700FF69411042000F015
:1026F00031FF6878401C687045E307F1210041799B
:102700001B3181700FF6A411042000F023FF6878BC
:10271000401C687037E307F1210041791531817061
:102720000FF6BC11042000F015FF6878401C68709B
:1027300029E307F121004179143181700FF6D0119E
:10274000042000F007FF6878401C68701BE307F165
:1027500021004179173181700FF6E411042000F057
:10276000F9FE6878401C68700DE307F1210041799B
:10277000163181700FF6E411042000F0EBFE68784A
:10278000401C6870FFE207F12100807801F096FBA1
:1027900002460FF6E411384601F0AEFC3A46052138
:1027A000084600F070FE6878401C6870EBE207F1A4
:1027B0002100807801F082FB02460FF6C4113846F2
:1027C00001F09AFC3A460521084600F05CFE687864
:1027D000401C6870D7E207F12100807801F06EFBA1
:1027E00002460FF6A411384601F086FC3A46052150
:1027F000084600F048FE6878401C6870C3E207F1A4
:102800002100807801F05AFB02460FF68411384609
:1028100001F072FC3A460521084600F034FE687863
:10282000401C6870AFE207F12104A07801F046FB7C
:102830000646A07801F042FB0A21B6FBF1F101EB5C
:102840008102A6EB420633460A21B0FBF1F20FF6F5
:102850004811384601F050FC3A460521084600F080
:1028600012FE6878401C68708DE207F12104002098
:10287000207020782179884280F09182E178401898
:1028800001F01CFB21780A46B854491C2170F0E77E
:102890000A20687077E20622114907F1180001F05A
:1028A00047FF0FF6FC01042000F054FE002087F8DB
:1028B00021006878401C687065E200BF210E00208E
:1028C000510E0020650E0020F00D0020900E00201B
:1028D0006A0E0020680D002004000020A4E9000812
:1028E000700E002008000020BCE90008220E002025
:1028F000D0E90008230E0020DCE90008E8E9000820
:10290000F0E9000807F12104217807F1180001F02F
:10291000BBFE07F11801384601F08EFE3A4605214C
:10292000002000F0B0FD20780223014601EB4101B8
:102930007A18052100EB4000C0B200F01EFE687856
:10294000401C68701FE22A78012A2DD0022A2BD061
:102950003078C0F38000002810D197F82100384467
:10296000037EFF2B0AD05B1C0376DFF868044178F6
:1029700041F0040141708120687004E23078C0F3B6
:102980004000002810D197F821003B18187E00283D
:102990000AD0401E1876DFF83C04417841F004016B
:1029A000417081206870EEE13078C0F3C0000028EB
:1029B00023D1012A00F02481022A00F0218107F1AD
:1029C000210001780A46042A04DA491C017081209A
:1029D0006870D8E1DFF8FC034178C1F38001002979
:1029E00000F00E81417801F0FB0141700020787702
:1029F00007F1180001F0E8FD02E13078C00700F1AE
:102A0000C28197F82100002800F0BD8107F1210064
:102A10000278521E0270881E6870B4E15E2007F1D1
:102A2000210188700FF28871042000F093FD68780E
:102A3000401C6870A7E107F12100807801F03EFAA0
:102A400004230022394600B201F053FF0020387100
:102A50003A4605210A2000F016FD00F0E1FB6878F7
:102A6000401C68708FE12878022810D00FF24C7259
:102A70000421002000F007FD07F121003E218170B4
:102A8000C170082101716878401C68707BE18C205E
:102A9000687078E12878012810D00FF23472042190
:102AA000002000F0F0FC07F1210046218170C17088
:102AB000082101716878401C687064E1902068709A
:102AC00061E12878032801D0052810D10FF2147293
:102AD0000421002000F0D7FC07F121004E21817075
:102AE000C170082101716878401C68704BE1942026
:102AF000687048E12878042801D0052810D10FF229
:102B0000FC620421002000F0BEFC07F121005621E8
:102B10008170C170082101716878401C687032E1D1
:102B2000982068702FE107F12104002020702078A0
:102B30002179884280F03381E178401801F0BEF9B4
:102B400021780A46B854491C2170F0E70A206870C1
:102B500019E1307800F00F000F2802D1491C69708C
:102B600011E101F087FF002800F00D816878401C1A
:102B7000687008E12878012831D002282FD03178F8
:102B8000C1F3800100290ED107F121040121A078B1
:102B900001F0ABF990480068002817D10421A07813
:102BA00001F0A3F912E03178C1F34001002916D1F8
:102BB00007F121040121A07801F0A9F986480068F5
:102BC000002803D10421A07801F0A1F96878801EC3
:102BD00068708048417841F004014170D3E0317859
:102BE000C1F3C001002913D17A494A78C2F38002A7
:102BF000002A05D04A7802F0FB024A7001F0C4F9BD
:102C00000721042000F091FB6878401C6870BAE04E
:102C10003178C90700F1B7806E494A78C2F3800263
:102C2000002A05D04A7802F0FB024A7001F0ACF9A4
:102C30000721042000F079FB6878102802D11D20BC
:102C40006870A0E0C01F68709DE007F12104307833
:102C5000C0F3C00000281FD1A278521CA270D2B2CB
:102C6000E078121A2079824214DB5A484178C1F385
:102C70008001002906D0417801F0FB0141702878DD
:102C800001F082F90721042000F04FFB6878401C16
:102C9000687001E0881E68703078C0F380000028FA
:102CA0001ED10121A07801F020F94B4800680028CE
:102CB00003D10421A07801F018F9A07801F0FEF802
:102CC00080B200F0B9F80146A07801F0FBF868780E
:102CD000801E68703F48417841F00401417052E025
:102CE0003078C0F3400000281ED10121A07801F007
:102CF0000EF939480068002803D10421A07801F0BA
:102D000006F9A07801F0DAF880B200F0ABF80146DD
:102D1000A07801F0D7F86878801E68702D48417857
:102D200041F0040141702EE03078C0072BD4A07828
:102D3000401EA070E178C0B288421ED2254841787A
:102D4000C1F38001002906D0417801F0FB014170F8
:102D5000287801F019F90721042000F0E6FA6878D4
:102D6000212802D14E2068700DE0522802D17F2028
:102D7000687008E0C01F687005E06878801E6870A1
:102D800001E00020687004B0BDEC028BBDE8F14F9B
:102D900000F0A3BB04B0BDEC028BBDE8F18F0020B6
:102DA000217978543A46052100F06DFBE078A4784B
:102DB000012322460146521A3A440521201AC0B284
:102DC00000F0DBFB6878401C6870DCE7FCE9000879
:102DD000880E00209C0E00206C0E00204F70657243
:102DE00061646F7220312020202000004F706572D6
:102DF00061646F72203220202020000053757065BE
:102E0000727669736F7220312020000053757065EF
:102E1000727669736F722032202000004D617374E6
:102E2000657220202020202020200000303031300A
:102E3000313031303E464E560146302901DA3020DD
:102E40000EE00246A2F13A03062B01D8412007E02A
:102E50005B3A062A01D2612002E07B2900DB7A205E
:102E6000C0B2704701467B2901DB7A200EE00246A2
:102E7000A2F15B03062B01D25A2007E03A3A062A58
:102E800001D8392002E0302900DA2020C0B2704792
:102E9000496E677265736520636C6176650000003A
:102EA000496E696369617220202020202020000083
:102EB0004F706572617220202020202020200000A9
:102EC0005061757361722020202020202020000096
:102ED000436C696D6120416D6269656E74650000C7
:102EE000526563657461204E20312020202000004F
:102EF000526563657461204E20322020202000003E
:102F000053697374656D612020202020202000000B
:102F100020202020202020202020202020200000F1
:102F20003E2054656D7065726174757261206D61CB
:102F300078696D612064656C20616D6269656E748D
:102F4000650000003E2054656D7065726174757295
:102F500061206D696E696D612064656C20616D62D0
:102F600069656E74650000003E2048756D6564619A
:102F700064206D6178696D612064656C20616D62AB
:102F800069656E74650000003E2048756D6564617A
:102F900064206D696E696D612064656C20616D628D
:102FA00069656E7465000000256420430000000020
:102FB00025642025000000003E204E6F6D62726582
:102FC000206465206C612072656365746100000097
:102FD0003E20506572696F646F2064652063756C74
:102FE0007469766F000000003E20486F72612065B2
:102FF0006E206C612071756520636F6D69656E7AF6
:103000006120656C20646961000000003E20486F0B
:10301000726120656E206C61207175652074657227
:103020006D696E6120656C20646961003E204369B2
:10303000636C6F20646520726965676F206465202A
:1030400064ED613A20426F6D626120656E63656E6A
:1030500064696461000000003E204369636C6F2076
:10306000646520726965676F2064652064ED613A6C
:1030700020426F6D62612061706167616461000070
:103080003E204369636C6F20646520726965676FD9
:10309000206465206E6F6368653A20426F6D6261DF
:1030A00020656E63656E6469646100003E2043695B
:1030B000636C6F20646520726965676F20646520AA
:1030C0006E6F6368653A20426F6D62612061706166
:1030D000676164612028726563657461203129002D
:1030E0003E20456C656374726F436F6E64756374E4
:1030F00069766964616420206D6178696D6120641E
:1031000065206C6120736F6C7563696F6E000000E1
:103110003E20456C656374726F436F6E64756374B3
:1031200069766964616420206D696E696D612064EF
:1031300065206C6120736F6C7563696F6E000000B1
:103140003E205068206D6178696D6F206465206C49
:103150006120736F6C7563696F6E00003E2050686C
:10316000206D696E696D6F206465206C6120736FDE
:103170006C7563696F6E000025642064696173007B
:1031800025643A3030000000256420730000000000
:1031900025642070706D000025642E2564202000B9
:1031A0003E204665636861207920486F72610000A7
:1031B0003E20436F6E747261737465003E20436CF1
:1031C000617665204F70657261646F722031000016
:1031D0003E20436C617665204F70657261646F724A
:1031E000203200003E20436C617665205375706587
:1031F000727669736F722031000000003E20436CCC
:103200006176652053757065727669736F722032CE
:103210000000000001484068704700BF1400002013
:1032200080B5812000F0BDF95E2000F047FEC0B2FD
:10323000BDE80240B5E110B5DFF8904400224FF43C
:103240008061204601F0E9FD00224FF480412046D4
:1032500001F0E3FD01F0FAFD01224FF40061204688
:1032600001F0DBFD042001F05FFE01224FF48061DC
:10327000204601F0D2FD022001F056FEA22000F00F
:1032800090F9A02000F08DF9AE2000F08AF9C82056
:1032900000F087F92F2000F084F9252000F081F953
:1032A000FFF7BEFFAF2000F07CF90021084600F0D8
:1032B00098F90721002000F038F800F00EF901F02D
:1032C00047FE0021DFF80804BDE8104002F00AB80C
:1032D00010B5AE2000F065F9A52000F062F9DFF826
:1032E000EC4300224FF48061204601F096FD00225D
:1032F0004FF48041204601F090FDDFF8D80302F042
:103300007DFC0A2001F010FE00224FF400612046EF
:1033100001F083FDDFF8B8430021204602F068F891
:103320002046BDE8104001F04DBF30B4DFF8A823BF
:1033300053781C460546AC4206D30C469C4203D348
:10334000137903F0FB031371D3781C46AC4206D308
:103350000C469C4203D3137903F0F7031371491C05
:10336000C001DFF8785302E00024EC54401C03460F
:103370009BB20C46A4B2B3EBC41FF5DB107940F04E
:103380000100107130BC704730B4C90100EB40033C
:1033900001EB430100200DE00FF24834154605EB28
:1033A00085052C44234413F8A03CDFF830436354D4
:1033B000491C401C0346DBB2052BEDDB30BC7047DB
:1033C00030B4C90100EB400301EB430100200DE0E4
:1033D0000FF21034154605EB85052C44234413F8F1
:1033E000A03CDB43BD4C6354491C401C0346DBB28C
:1033F000052BEDDB30BC704730B4C00000EBC110D2
:10340000002112E00FF2B443144603EB041303EB64
:103410004103A3F500731B88B04CDD0025545B0904
:10342000044484F88030401C491C0829EADB30BC85
:103430007047F8B506460D461746A74C28466178F2
:10344000884203D1207900F0FB0020712846E17802
:10345000884203D1207900F0F700207138780028E5
:103460000CD03046C0B2102808DA17F8012B2946D4
:103470003046C0B2FFF7C0FF761CEFE7207940F07E
:1034800001002071F1BDF8B506460D461746924C75
:1034900028466178884203D1207900F0FB00207132
:1034A0002846E178884203D1207900F0F7002071A6
:1034B000387800280CD03046C0B2152808DA17F842
:1034C000012B29463046C0B2FFF75EFF761CEFE7BE
:1034D000207940F001002071F1BD10B5FFF79AFE90
:1034E0007D4CA168401AB0F5FA7F09D3FFF792FE30
:1034F000A0602079C0F38000002801D000F0B4F86B
:10350000FFF788FEE168401A40F24D11884209D366
:10351000FFF780FEE0602079C0F3C000002801D0F2
:1035200000F077F82079C00713D5207900F0FE006D
:10353000207100240BE0E100C9B2002000F051F836
:103540008021664800EBC41000F039F8641C082C98
:10355000F1DB10BD10B4604A03465478A34203D196
:10356000137903F0FB031371D0709161D16110796D
:1035700040F00800107110BC704770B4564C0D46F6
:10358000E678B54203D1257905F0F705257120705D
:103590006170A3702261207940F00400207170BC3A
:1035A000704701B500224FF48041484801F035FCD6
:1035B000022301226946474802F035FB01BD38B5B8
:1035C00004460D4601224FF48041404801F025FC9D
:1035D00005232A4621463F4801B0BDE8304002F0AD
:1035E00022BB38B504460D463D4804704570204660
:1035F000000940F01000FFF7D4FF04F00F0420464C
:10360000FFF7CFFFED0845F0B0052846BDE8324092
:10361000C7E7F8B5304CA569656100263046C0B2F1
:1036200014281BDC67693A78E178002A06D0304616
:10363000C0B2FFF7A9FE781C606106E02022304688
:10364000C0B2FFF7A1FEE0696061761CE6E7681C86
:10365000A061207940F001002071F1BD2878002898
:10366000F5D1E069A061F4E738B51B4C2079C0F3CF
:1036700040000028207911D000F0FD0020710025C5
:10368000A07885421CDA2069425D6178207828188C
:10369000C0B2FFF779FE6D1CEDB2F1E740F0020019
:1036A00020710025A07885420ADA2069425D6178A0
:1036B00020782818C0B2FFF783FE6D1CEDB2F1E749
:1036C000207940F00100207131BD00000010004859
:1036D000D00C00206C0C0020EC0D0020C800002055
:1036E000A40E0020000000000000002F00000007D2
:1036F000000700147F147F14242A7F2A12C4C810E4
:10370000264636495522500005030000001C224180
:10371000000041221C0014083E081408083E080856
:1037200000005030001010101010006060000020E9
:10373000100804023E5149453E00427F400042616C
:103740005149462141454B311814127F10274545F8
:1037500045393C4A4949300171090503364949490F
:1037600036064949291E003636000000563600004C
:1037700008142241001414141414004122140802E5
:1037800001510906324959513E7E1111117E7F497E
:103790004949363E414141227F4141221C7F4949EE
:1037A00049417F090909013E4149497A7F080808D2
:1037B0007F00417F41002040413F017F08142241AA
:1037C0007F404040407F020C027F7F0408107F3E14
:1037D0004141413E7F090909063E4151215E7F0971
:1037E000192946464949493101017F01013F4040BD
:1037F000403F1F2040201F3F4038403F63140814C3
:103800006307087008076151494543007F41410043
:10381000552A552A550041417F0004020102044007
:1038200040404040000102040020545454787F4836
:103830004444383844444420384444487F3854543D
:103840005418087E0901020C5252523E7F080404AB
:103850007800447D40002040443D007F1028440013
:1038600000417F40007C041804787C080404783808
:10387000444444387C14141408081414187C7C083C
:103880000404084854545420043F4440203C404021
:10389000207C1C2040201C3C4030403C4428102808
:1038A000440C5050503C4464544C44086C6A190811
:1038B000304E614E307E7E7E7E7E00000000000035
:1038C00000000000000000000000000000000000F8
:1038D00000000000000000000000000000000000E8
:1038E00000000000000000000000000000000000D8
:1038F00000000000000000000000000000000000C8
:1039000000000000000000000000000000000000B7
:1039100000000000000000000000000000000000A7
:103920000000000000000000000000000000000097
:103930000000000000000000000000000000000087
:103940000000000000000000000000000000000077
:103950000000000000000000000000000000000067
:103960000000000000000000000000000000200037
:103970002000F800F80020002000000000000000F7
:1039800000000000000000000000000020002000F7
:103990002000200020002000200000000000000087
:1039A000000000030003000000000000000200010E
:1039B000800040002000100008000000FC01FE0311
:1039C000620232021A02FE03FC010000000004023F
:1039D0000402FE03FE030002000200000C038E033B
:1039E000C202620232021E030C030000040106033D
:1039F000220222022202FE03DC01000060007000AD
:103A000058004C00FE03FE03400000003E013E0350
:103A1000220222022202E203C2010000FC01FE0394
:103A2000220222022202E603C40100000600060070
:103A3000E203F2031A000E0006000000DC01FE03A0
:103A4000220222022202FE03DC0100001C013E03CE
:103A5000220222022202FE03FC01000000000000FC
:103A60000000000098019801000000000000000024
:103A70000000000000000000000000000000000046
:103A80000000000000000000000000000000000036
:103A90000000000000000000000000000000000026
:103AA0000000000000000000000000000000000016
:103AB0000000000000000000000000000000000006
:103AC000000000000000000000000000F803FC03FC
:103AD000460042004600FC03F80300000202FE0319
:103AE000FE0322022202FE03DC010000FC01FE03B1
:103AF0000202020202028E038C0100000202FE0397
:103B0000FE0302020603FC01F80000000202FE03AD
:103B1000FE03220222022603060300000202FE0325
:103B2000FE0322022200260006000000FC01FE0324
:103B3000020202024202CE03CC010000FE03FE0399
:103B4000200020002000FE03FE0300000000000013
:103B50000202FE03FE030202000000008001800357
:103B600000020202FE03FE01020000000202FE0348
:103B7000FE037000D8008E03060300000202FE035D
:103B8000FE0302020002000200030000FE03FE0327
:103B90001C0070001C00FE03FE030000FE03FE0379
:103BA0001C007000C001FE03FE030000FC01FE03C8
:103BB000020202020202FE03FC0100000202FE03F6
:103BC000FE03220222003E001C000000FC01FE0356
:103BD0000202C2020203FE03FC0100000202FE0315
:103BE000FE036200E200BE031C0300000C011E0382
:103BF000320222026202C6038401000000000600B5
:103C00000202FE03FE03020206000000FE00FE01A7
:103C1000000300030003FE01FE0000007E00FE0022
:103C2000800100038001FE007E000000FE03FE0311
:103C3000C0017000C001FE03FE03000006038E03F6
:103C4000D8007000D8008E030603000000000600B4
:103C50001E02F003F0031E020600000006038603A6
:103C6000C20272021A020E030603000000000000E6
:103C70000000000000000000000000000000000044
:103C80000000000000000000000000000000000034
:103C90000000000000000000000000000000000024
:103CA0000000000000000000000000000000000014
:103CB0000000000000000000000000000000000004
:103CC0000000000000000000000000000000900163
:103CD000C80348024802F803F80300000000FE038E
:103CE000FE0310021002F003E00100000000F001EA
:103CF000F803080208021803100100000000E001A8
:103D0000F00310021002FE03FE0300000000F001A9
:103D1000F803480248027803700100000000000028
:103D2000FC03FE0322002600040000000000F00453
:103D3000F80D08091009F80FF80700000000FE034D
:103D4000FE0320001000F003F0030000000000005C
:103D50000000F803F8030000000000000000000C61
:103D600000080008F80FF807000000000000FE033C
:103D7000FE03C000A001300310020000000000009C
:103D80000202FE03FE03000200000000F003F8033D
:103D9000180070001800F803F00300000000F8039A
:103DA000F80310000800F803F80300000000F00119
:103DB000F80308020802F803F00100000000F80F01
:103DC000F80F08010801F801F00000000000F00001
:103DD000F80108010801F80FF80F000000000802C0
:103DE000F803F0030802080018000000000030018A
:103DF000780248024802C803900100000000080051
:103E0000FE01FE0308020003000100000000F801AB
:103E1000F80300020002F803F80100000000780037
:103E2000F80100030003F80178000000F801F8032E
:103E30000003C0010003F803F801000008021803A2
:103E4000B001E000B0011803080200000000F00417
:103E5000F80D00090009F80FF8070000000018032A
:103E60008803C8026802380218030000000000003E
:103E70000000000000000000000000000000000042
:103E80000000000000000000000000000000000032
:103E90000000000000000000000000000000000022
:103EA0000000000000000000000000000000000012
:103EB000000000000000000000000000754951F8FB
:103EC000200070475F280FD2734A52F820208A42A0
:103ED00001D2114605E0714A52F82020914200D2E9
:103EE00011466C4A42F82010704730B4694A52F8C3
:103EF0002030694C54F82040E51A8D4203D3C9188C
:103F000042F8201001E042F8204030BC704730B445
:103F1000624A52F820205F4B53F82040A51A8D4288
:103F200003D3611A43F8201001E043F8202030BC8D
:103F3000704738B55A48006881B24FF6FF72914217
:103F400002D14FF4801402E0564C04EA802404F1BC
:103F5000FF6404F5FF24002513E0204602F078F901
:103F60004C4941F82500241D4C4A52F825204A4B63
:103F700053F82530834201D3904201D241F82520E5
:103F80006D1C5F2DE9D331BDF8B5002444480068AD
:103F900081B24FF6FF72914202D14FF4801502E0D8
:103FA000404D05EA802505F1FF6505F5FF2526460C
:103FB0000AE0284602F04CF9364951F827108142B0
:103FC00000D001242D1D761C3746FFB25F2FF0DB99
:103FD000002C08D000F009F8002801D00120F2BD23
:103FE000BDE8F14001E00120F2BDF8B52E4881683E
:103FF00041F0404181604CF2FA310160284E326854
:104000004FF6FF7490B2A04202D14FF4801102E04B
:10401000244901EA822102D14FF4801002E02148B4
:1040200000EA8220214D6FF078425118281802F0E2
:104030005DF8012801D00020F2BD316888B2A042AD
:1040400002D14FF4801002E0164800EA8120114F9F
:104050004FF4BE723946281801F0E6FF012801D05E
:104060000020F2BD306881B2A14202D14FF480132A
:1040700002E00C4B03EA80234FF4BE723946ED1880
:10408000284602F0E7F8012801D00020F2BD012007
:10409000F2BD0000F806002070E50008F4E3000817
:1040A000E075FF1F00FCFF031020024000F8FF072F
:1040B000C0F3C75181B1FF2906D0C110400721F0DC
:1040C000E04101F16051704741020CBF40F4E00152
:1040D0006FF000410020704700F0004100020AD05C
:1040E000B0FA80FC00FA0CF001F16051A1EB0C5128
:1040F00001EBD021400570470CB430B583B00A46BF
:1041000006A90291044600250194009502AB01A97D
:10411000084878441E3002F0D7F8019A157000283C
:104120004EBF04460198041B204603B030BC5DF826
:104130000CFB00BF83380000E0B51E20FFF7BEFE79
:104140000246D2B2DFF82414684600F0B5FADFF870
:1041500020049DF80010027891420AD169464A78FD
:1041600043789A4205D189788078814201D1012033
:104170000EBD00200EBD704770470A46042802D9C4
:10418000401F06D070474FF480614FF0904000F020
:1041900044BE002A00D1EFE7EDE7002806D0012257
:1041A0004FF480614FF0904000F037BE00224FF492
:1041B00080614FF0904000F030BE7047DFF8B413DC
:1041C0004A78C2F30012002A03D10FF2BC31FFF784
:1041D00093BF4A78C2F34012002A03D10FF2B031E4
:1041E000FFF78ABF09780C2920D8DFE801F0071310
:1041F0000B0F13131313130F170B1B000FF2983130
:10420000FFF77ABF0FF29831FFF776BF0FF29831C0
:10421000FFF772BF0FF29831FFF76EBF0FF29831C0
:10422000FFF76ABF0FF29831FFF766BF7047D149B9
:104230004868002801D0401E48608868002801D0E6
:10424000401E88607047000038B5CA4C20780C28A2
:1042500000F28881DFE810F00D0042005300620098
:104260006E007D00CF00DE0030013E014B015401A5
:1042700073016078C0F30010002800F07581607849
:10428000C0F34010002800F06F811C20FFF716FEDD
:10429000B74DE97881420AD31D20FFF70FFEE97878
:1042A000814204D21920FFF709FEA06003E01B2021
:1042B000FFF704FEA060B0480078C0F3400000287B
:1042C00004D101202070BDE8314054E70120FFF700
:1042D00064FF022020703C20606031BDA648007859
:1042E000C0F34000002800F03F81FFF745FF0120A8
:1042F000FFF753FF022020703C20606031BD6068F2
:10430000002840F031810020FFF747FF0220FFF72F
:1043100054FF032020701E20606031BD60680028BB
:1043200040F022810020FFF748FF042020701E206B
:10433000606031BD6068002840F016818F480178C8
:1043400041F040010170012002F08AFF0520207039
:1043500031BD012002F089FF002800F00581162000
:10436000FFF7ACFD864D0A21B0FBF1F000EE100A1C
:10437000B8EE400AD5ED000AB4EE600AF1EE10FA8C
:1043800060780CDB40F0020060700520A070012115
:10439000FFF7F3FE062020701420606031BD00F0AE
:1043A000FD0060701720FFF789FD0A21B0FBF1F0D6
:1043B00000EE100AB8EE400AD5ED000AF4EE400A0D
:1043C000F1EE10FA60780CDB40F001006070042020
:1043D000A0700121FFF7D1FE062020701E20606032
:1043E00031BD00F0FE006070072020700220BDE8A3
:1043F000324002F035BF6068002840F0B5800021EF
:10440000A078FFF7BAFE012002F02AFF2078401EB4
:10441000207031BD022002F028FF002800F0A480A7
:104420001420FFF74BFD00EE100A564DB8EE400A7F
:10443000D5ED000AF4EE400AF1EE10FA60780CD5E2
:1044400040F0080060700120A0700146FFF795FE63
:10445000082020701E20606031BD00F0F700607001
:104460001520FFF72BFD00EE100AB8EE400AD5ED3F
:10447000000AB4EE600AF1EE10FA60780CD540F054
:10448000040060700520A0700121FFF776FE08206F
:1044900020701420606031BD00F0FB0060700320CC
:1044A000FFF78BFE3548017801F0BF01017009204C
:1044B00020701E20606031BD6068002854D100214A
:1044C000A078FFF75AFE022002F0CAFE2078401EB4
:1044D000207031BD6068002846D10020FFF76DFED6
:1044E00001210020FFF749FE0A20207031BDA0689D
:1044F0003C2839D20120FFF750FE0B20207031BD3F
:10450000A068002830D10020FFF747FE0C20207063
:104510001C20FFF7D3FC164DE97881420AD31D20F9
:10452000FFF7CCFCE978814204D21820FFF7C6FCE3
:10453000606031BD1A20FFF7C1FC606031BD60686A
:10454000002811D100210846FFF717FEFFF7F4FD00
:10455000002807D0607800F0EF006070607800F00D
:10456000DF0060700020207031BD0000880E002048
:10457000700E0020500E0020650E0020010000206B
:10458000040000200800002053696E43756C200071
:104590005061757361202000496E69202020200041
:1045A0005265766F6C2020004D6F764520202000EC
:1045B0005072657020202000457370652020200017
:1045C000526965676F2020001CB5044603F029F886
:1045D000A078ADF8060060788DF8050020788DF899
:1045E0000400E0788DF8010020798DF802006079F0
:1045F0008DF80300684602F0C6FF012002F0FCFFC0
:1046000013BDE0B5684602F099FF0A48BDF80610F0
:1046100081709DF8051041709DF8041001709DF89F
:104620000110C1709DF8021001719DF803104171D5
:1046300007BD0000700E002070B504460D46002630
:1046400011E0A85D00F0D5F90146C9B20909303181
:10465000217000F00F003030607000BF32A0805D2C
:10466000A070E41C761C052EEBDB70BD417802299E
:1046700005D1807810F0030F01D11D20704700BFD5
:1046800021A0405C7047000070B504460D462E46E0
:1046900021A0805DA15D814200D2A055280003D1F8
:1046A0002046FFF7E3FF01E01DA0805D615D8842C9
:1046B00000D90846A05570BD70B5044615460622BF
:1046C00000F036F800260FE0012020706070A0781E
:1046D000401CA07007E060780C28F5D20120207003
:1046E0006078401C6070761C30462946C0B2884213
:1046F00009D22046FFF7BAFF21780A468242EAD261
:10470000491C2170EFE770BD001F1C1F1E1F1E1FDC
:104710001F1E1F1E1F0000000101000000000000FE
:104720001F0C63173B0000002F2F203A00000000F1
:1047300062B38B0708D0521E11F8013B00F8013B11
:1047400000F024808B07F6D1830740F0208000BF63
:10475000103A07D330B4B1E83810103AA0E8381056
:10476000F9D230BC530724BFB1E80810A0E8081004
:1047700044BF51F8043B40F8043BD20724BF31F852
:10478000022B20F8022B44BF0B7803707047121FD6
:1047900017D35B0009D151F8043B20F8023B1B0CF6
:1047A000121F20F8023BF6D20BE051F8043B00F850
:1047B000013B1B0A20F8023B1B0C121F00F8013BB7
:1047C000F3D238BF121D521E24BF11F8013B00F86E
:1047D000013BF8D87047F0B402461068956813188A
:1047E000506803EB5004C0071DD54D441BE013F87F
:1047F000017B05F8017B491EF9D1A0B1B60813F879
:10480000011B06F00306032E08BF13F8016B01EB32
:1048100006214942801C294405D011F8016B05F896
:10482000016B401EF9D1A3420ED013F8016B16F0B4
:10483000030104BF13F8011BC91C30090F28DAD18A
:1048400013F8010B0F30D6E7F0BC02F10C007047F3
:1048500010B400220A704A708A70102243E00B786C
:104860001C4604F00F04052C01DBDB1C0B704B789D
:104870001C4604F00F04052C01DBDB1C4B704B784D
:104880001C4604F0F004502C01DB30334B708B7865
:104890001C4604F00F04052C01DBDB1C8B708B78AD
:1048A0001C4604F0F004502C01DB30338B700B7885
:1048B0005B000B704C78240602D543F001030B70AB
:1048C0004B785B004B708C78240602D543F00103D3
:1048D0004B708B785B008B70040402D543F00103AE
:1048E0008B704000521E1346DBB2002BB7D110BCB8
:1048F00070472DE9F84306460C46154699463000A8
:1049000003D576422D2004F8010B27466946304630
:1049100000B2284180B2FFF79BFFB9F1040F06DD1A
:104920009DF8000000F00F00303004F8010BE8465D
:10493000B9F1030F05DD98F801000009303004F8E3
:10494000010BB9F1020F06DD98F8010000F00F002D
:10495000303004F8010BB9F1020F05DB98F80200C2
:104960000009303004F8010B98F8020000F00F0045
:10497000303020702E206070C5F11000864044F663
:10498000206100200C2205E0330400D540184908BE
:104990007600521E1346DBB2002BF5D1694680B279
:1049A0008008FFF755FF98F8010000093030A0702B
:1049B00098F8010000F00F003030E07098F8020025
:1049C00000093030207198F8020000F00F003030FC
:1049D0006071052D08DD3020A07105E038783028A1
:1049E00005D1202007F8010B78782E28F6D1BDE8F4
:1049F000F18301460020024611E000F00F03052B71
:104A000000DBC01C00F0F003502B00DB3030400016
:104A100080B20B0601D540F001004900521C13463C
:104A2000DBB2082BE9DB704738B53A4C3A4D02212E
:104A3000284600F0EAF9800020700121284600F0A5
:104A4000E4F9217841EAC0012170344D4FF400713E
:104A5000284600F0DAF9217841EA400121704FF44C
:104A60008071284600F0D1F92178084320706070E9
:104A7000A07031BD27494868002803D10220486052
:104A8000012070470020704710B5FEF7C3FB244C8F
:104A90002168401A0F2804D300F004F8FEF7BAFB8F
:104AA000206010BD38B51B4C1B4D0221284600F07C
:104AB000ACF9800020700121284600F0A6F9217889
:104AC00041EAC0012170154D4FF48071284600F075
:104AD0009CF9217841EA400121704FF40071284689
:104AE00000F093F9217801432170607802460B466B
:104AF0009A4201D0617031BDA178814203D0A0708B
:104B00006420606031BD6068002802D06068401E8B
:104B1000606031BD680E00200010004800040048AD
:104B2000980E0020F8B503460A4600242DE04FF009
:104B3000070C05E0DFF8F0C26345F8D14FF0060C32
:104B40000CFA06FC4CEA070C45F821C0B7490E6880
:104B5000C5432E405768FF0300D506430E604E68DC
:104B60002E405768BF0300D506434E608E682E4026
:104B70005768FF0200D506438E60CE682E40556808
:104B8000AD0200D50643CE60641C10680146E140CA
:104B900000F0A1800126A6403040F5D06100032539
:104BA0008D40ED435768012F05D0022F03D0112F00
:104BB00001D0122F13D19F682F40D2F80CC00CFAED
:104BC00001FC4CEA07079F605F68B743D2F804C056
:104BD000CCF3001C0CFA04FC4CEA07075F60D2F827
:104BE00004C00CF00307032F06D1DF6AB743CCF3F0
:104BF000C006A6403743DF62DE682E4097688F40CC
:104C00003E43DE605668022E01D0122E15D1264694
:104C1000F60803EB86073E6A4FEA840C0CF01C0C86
:104C20004FF00F0E0EFA0CFE26EA0E06D2F810E038
:104C30000EFA0CFC4CEA06063E621E682E40157900
:104C400005F0030505FA01F10E431E605168C90025
:104C50009AD577490D6845F001050D60096801F0A6
:104C600001010091009921468908724D55F8217083
:104C7000A60006F00C064FF00F0C0CFA06FC27EA13
:104C80000C07B3F1904F02D14FF0000C58E7DFF85A
:104C9000A8C1634502D14FF0010C51E7DFF89CC178
:104CA000634502D14FF0020C4AE7DFF894C1634537
:104CB00002D14FF0030C43E7DFF888C1634502D10E
:104CC0004FF0040C3CE7DFF880C163457FF432AF5E
:104CD0004FF0050C34E7F1BD2DE9F0470A460023FB
:104CE00001460F2550E04FF0070A05E0DFF838A134
:104CF0005145F8D14FF0060A0AFA08FAD14520D1F9
:104D0000C043DFF82881D8F8009000EA0909C8F804
:104D10000090D8F8049000EA0909C8F80490D8F87F
:104D2000089000EA0909C8F80890D8F80C9000EA41
:104D30000900C8F80C005CF8270020EA0E0E4CF8B9
:104D400027E00327580007FA00F00F6807430F60B9
:104D50001F46FF0801EB8707D7F820C004F01C04AA
:104D600005FA04F42CEA04043C62C0438C68044055
:104D70008C60F6434C6834404C60CC682040C8607E
:104D8000C86A0640CE625B1C1046D8403BD0012664
:104D90009E4016EA0200F6D01F46BF08DFF894C016
:104DA0005CF827909C0004F00C0805FA08FE0EEA57
:104DB0000909B1F1904F02D14FF0000A9CE7DFF8EA
:104DC00078A0514502D14FF0010A95E7DFF86CA0B9
:104DD000514502D14FF0020A8EE7DFF864A0514539
:104DE00002D14FF0030A87E7DFF858A0514502D1FE
:104DF0004FF0040A80E7DFF850A051457FF476AF0A
:104E00004FF0050A78E7BDE8F087006901400846E1
:104E1000401E8041C043C00F7047002A01D081610D
:104E2000704781627047000000180048000401408C
:104E300060100240080001400004004800080048DB
:104E4000000C0048001000480014004880B53148AC
:104E5000314901604FF482714160002181604FF45B
:104E6000E061C1600021016141614FF480218161F5
:104E70000021C1610162416281620721C16200219A
:104E800001630821416300F045FE002803D0BDE81E
:104E9000014002F078BD01BD10B586B0044601A8FE
:104EA000142102F085FD20681B49884221D11B484E
:104EB000416941F480514161416901F4805100919F
:104EC0000099016841F010010160006800F01000D5
:104ED000009000984FF43040019002200290002092
:104EE0000390032004900520059001A90C48FFF7CA
:104EF00019FE06B010BD00680749884209D109486B
:104F0000016821F4805101604FF430410448FFF7FB
:104F1000E3BE70476C0C0020003001404C10024092
:104F2000001000486010024038B50446FEF772F9E0
:104F3000054614F1010F02D0044800782418FEF74A
:104F400069F9401BA042FAD331BD00BF1400002014
:104F500018B599B015A8102102F02AFD6846002165
:104F60000A460B4680E80E000EA81C2102F020FD28
:104F700003A82C2102F01CFD7A4C7B482060002005
:104F80006060A0604FF4FA40E06000202061606142
:104F9000A061204600F0F2F8002801D002F0F3FCF6
:104FA0004FF48050159015A9204600F022FB0028F0
:104FB00001D002F0E8FC204600F070F9002801D092
:104FC00002F0E1FC0020009001900290694620462A
:104FD00002F0F6FC002801D002F0D5FC60200E9013
:104FE0004FF4FA600F9000201090119012901390DF
:104FF000149002460EA9204600F06AFA002801D05B
:1050000002F0C1FC002003900490059006900790E8
:105010004FF400500890002009900A904FF0007063
:105020000B9000200C900D9003A9204602F006FD85
:10503000002801D002F0A7FC204600F05AF81AB070
:1050400010BD18B587B003A8102102F0B1FC684666
:1050500000210A460B4680E80E00444C4FF0804089
:1050600020601F2060600846A0604FF6FE70E06080
:1050700008462061A061204600F080F8002801D099
:1050800002F081FC4FF48050039003A9204600F009
:10509000B0FA002801D002F076FC002000900290C7
:1050A0006946204602F08CFC002801D002F06BFC1F
:1050B00008B010BD81B000682B4988420AD12C4845
:1050C000816841F400618160806800F400600090B4
:1050D00000980CE0B0F1804F09D12548016841F0FB
:1050E00001010160006800F001000090009801B02B
:1050F000704710B586B0044601A8142102F058FC90
:1051000020681949884217D11A48016841F01001F6
:105110000160006800F01000009000984FF40070EB
:10512000019002200290002003900490012005903D
:1051300001A91148FFF7F6FC06B010BD00680A4946
:10514000884205D10A48816821F400618160704776
:10515000B0F1804F04D10648016849084900016058
:1051600070470000D00C0020002C01401C0D0020D6
:10517000581002404C1002400010004838B504009E
:1051800001D1012032BD04F13C056878002804D12A
:10519000002028702046FFF78DFF02206870211D37
:1051A000206800F08DFA01202873A870E87028713B
:1051B0006871A871E87128726872A872E8726870E4
:1051C000002032BD10B500F13C040221617001687D
:1051D0000A6A41F211131A4208D10A6A40F24443A2
:1051E0001A4203D10A68520852000A60FFF7A6FF6C
:1051F00000202073A070E07020716071A071E071D8
:1052000020726072A072E0726070207010BD90F821
:105210003D10012901D001207047022180F83D1086
:105220000168DFF85C00814216D0B1F1804F13D0E5
:10523000DFF8500081420FD0DFF84C0081420BD0E4
:10524000DFF84800814207D0DFF84400814203D0F4
:10525000DFF8400081420DD18A68DFF83C0002404F
:10526000062A0BD0B2F5803F08D0086840F0010054
:10527000086003E0086840F0010008600020704703
:10528000002C01400004004000080040000C0040D9
:1052900000340140004001400700010038B504001F
:1052A00001D1012032BD04F13C056878002804D109
:1052B00000202870204602F011FC02206870211D99
:1052C000206800F0FDF901202873A870E8702871AB
:1052D0006871A871E87128726872A872E8726870C3
:1052E000002032BD10B5044604F13E00002901D172
:1052F000027810E0042901D142780CE0082901D19C
:10530000827808E00C2901D1C27804E0102901D18B
:10531000027900E04279012A01D0012010BD002964
:1053200002D10222027015E0042902D10222427049
:1053300010E0082902D1022282700BE00C2902D170
:105340000222C27006E0102902D10222027101E09D
:10535000022242710122206800F0B0FB2068DFF8D1
:10536000501188420DD0DFF84C21904209D0DFF86F
:105370004821904205D04C4A904202D04B4A90427C
:1053800001D1012200E00022002A03D0426C42F445
:105390000042426422688A4216D0B2F1804F13D094
:1053A000DFF8180182420FD0DFF8140182420BD0DF
:1053B000DFF81001824207D0DFF8F800824203D004
:1053C000DFF8F40082420DD19168DFF8FC00014063
:1053D00006290BD0B1F5803F08D0106840F00100DD
:1053E000106003E0106840F001001060002010BD64
:1053F00038B505460C460022286800F05FFB286897
:10540000DFF8AC1088420ED0DFF8A81088420AD02E
:10541000DFF8A410884206D02349884203D0DFF881
:10542000AC10884201D1012100E0002141F21112AB
:1054300000290BD0016A114208D1016A40F24443AD
:10544000194203D1416C21F4004141642868016A8A
:10545000114208D1016A40F24442114203D101686D
:1054600049084900016005F13E00002C02D10121EC
:10547000017015E0042C02D10121417010E0082CCC
:1054800002D1012181700BE00C2C02D10121C170ED
:1054900006E0102C02D10121017101E001214171CE
:1054A000002032BD000000000044014000480140DF
:1054B000002C014000340140004001400004004045
:1054C00000080040000C00400700010000480140B7
:1054D00038B504460D4694F83C00012801D102205D
:1054E00032BD012084F83C00002A0AD0042A1BD0D7
:1054F000082A2DD00C2A3ED0102A50D0142A61D070
:1055000073E0206800F03FF92068816941F00801EC
:1055100081612068816921F00401816121688A69C3
:10552000286902438A6160E0206800F076F920680B
:10553000816941F4006181612068816921F48061A1
:105540008161206881692A6941EA022181614CE018
:10555000206800F09EF92068C16941F00801C1612E
:105560002068C16921F00401C1612168CA69286904
:105570000243CA6139E0206800F0C5F92068C169BA
:1055800041F40061C1612068C16921F48061C16199
:105590002068C1692A6941EA0221C16125E02068C9
:1055A00000F0DFF92068416D41F008014165206895
:1055B000416D21F00401416521684A6D286902436B
:1055C0004A6512E0206800F0F8F92068416D41F466
:1055D000006141652068416D21F48061416520686A
:1055E000416D2A6941EA02214165002084F83C00AE
:1055F00032BD38B5054605F13C042078012801D1BB
:10560000022032BD01202070022060702B689A6851
:10561000DFF8040402409A600868020047D0102AAC
:1056200045D0202A43D0302A41D0402A35D0502AB4
:105630001FD0602A27D0702A03D0B2F5005F0CD0AB
:1056400039E0CB684A688968286800F02CFA296834
:10565000886840F0770088602DE0CB684A688968E8
:10566000286800F020FA2868816841F48041816050
:1056700021E0CA684968286800F0E8F950212868E4
:1056800000F009FA17E0CA684968286800F0F0F9E4
:105690006021286800F0FFF90DE0CA6849682868B1
:1056A00000F0D4F94021286800F0F5F903E0014644
:1056B000286800F0F0F9012060700020207032BDF1
:1056C00010B40468DFF85433984212D0B0F1804F20
:1056D0000FD0DFF84C2390420BD0DFF848239042E4
:1056E00007D0DFF84423904203D0DFF840239042F4
:1056F00003D124F070044A68144398421ED0B0F1DC
:10570000804F1BD0DFF81823904217D0DFF8142306
:10571000904213D0DFF8102390420FD0DFF80C2313
:1057200090420BD0DFF80823904207D0DFF8042323
:10573000904203D0DFF80023904203D124F4407458
:10574000CA68144324F080044A69144304608A68D8
:10575000C2620A68826298420FD0DFF8D02290427B
:105760000BD0DFF8CC22904207D0DFF8C82290425D
:1057700003D0DFF8C422904201D1096901630121FD
:10578000416110BC704770B4026A52085200026254
:10579000046A43688569DFF8A42215400A68154346
:1057A00024F002048A681443DFF87062B0420FD01C
:1057B000DFF8782290420BD0DFF87422904207D0B5
:1057C000DFF87022904203D0DFF86C22904205D1BE
:1057D00024F00804CA68144324F00404B0420FD033
:1057E000DFF8482290420BD0DFF84422904207D0E5
:1057F000DFF84022904203D0DFF83C22904205D1EE
:1058000023F440734A6913438A69134343608561F3
:1058100049684163046270BC704770B4026A22F048
:1058200010020262046A43688569DFF81422154099
:105830000A6845EA022524F020048A6844EA021432
:10584000764A904202D0794EB04206D124F08004CC
:10585000CE6844EA061424F0400490420BD0734A08
:10586000904208D0724A904205D0724A904202D0CB
:10587000714A904206D123F440634E698A69164307
:1058800043EA86034360856149688163046270BCB2
:10589000704770B4026A22F480720262046A43683C
:1058A000C569664A15400A68154324F400748A687D
:1058B00044EA0224594A904202D05C4EB04206D1DA
:1058C00024F40064CE6844EA062424F48064904200
:1058D0000BD0564A904208D0554A904205D0554ABE
:1058E000904202D0544A904206D123F440534E696C
:1058F0008A69164343EA06134360C5614968C16378
:10590000046270BC704730B4026A22F480520262B2
:10591000036A4468C5694A4A15400A6845EA02258F
:1059200023F400538A6843EA02333C4A90420BD086
:105930003E4A904208D03E4A904205D03D4A9042AD
:1059400002D03D4A904204D124F480444A6944EA9A
:1059500082144460C56149680164036230BC7047C9
:10596000000030B4026A22F480320262036A4468A2
:10597000456D344A15400A68154323F400338A689C
:1059800043EA0243254A90420BD0284A904208D06D
:10599000274A904205D0274A904202D0264A904298
:1059A00004D124F480344A6944EA02244460456501
:1059B00049688165036230BC704730B4026A22F4E2
:1059C00080120262036A4468456D1F4A15400A68E6
:1059D00045EA022523F400138A6843EA02530F4A7A
:1059E00090420BD0114A904208D0114A904205D003
:1059F000104A904202D0104A904204D124F48024EC
:105A00004A6944EA8224446045654968C165036285
:105A100030BC7047000000008800FEFF002C0140F1
:105A20000004004000080040000C00400034014029
:105A30000040014000440140004801408CFFFEFF4F
:105A4000FF8CFFFE8FFFFEFFFF8FFFFE10B4036A87
:105A5000046A640864000462846924F0F00444EA7F
:105A60000214846123F00A031943016210BC7047D9
:105A700010B4036A23F0100303628369046A23F4F9
:105A8000704343EA0233836124F0A00444EA011422
:105A9000046210BC7047826822F07002114341F02A
:105AA00007018160704710B4846824F47F44214367
:105AB000114341EA0321816010BC704710B401F02A
:105AC0001F01036A01248C40A3430362036A02FAA4
:105AD00001F11943016210BC704730B4002513E096
