:020000040800F2
:100000000014002095CE0008EDCC0008EFCC0008CD
:10001000F1CC0008F3CC0008F5CC0008000000008B
:10002000000000000000000000000000F7CC000805
:10003000F9CC000800000000FBCC0008FDCC000853
:10004000BFCE0008C3CE0008C7CE00080BCD000805
:10005000CBCE0008CFCE0008D3CE0008D7CE000804
:10006000DBCE0008DFCE0008E3CE0008E7CE0008B4
:10007000EBCE0008EFCE0008F3CE0008F7CE000864
:10008000FBCE0008FFCE000803CF000807CF000812
:100090000BCF00080FCF000813CF000817CF0008C0
:1000A0001BCF00081FCF000823CF000827CF000870
:1000B0002BCF00082FCF000833CF000837CF000820
:1000C0003BCF00083FCF000843CF000847CF0008D0
:1000D0004BCF000811CD000817CD00081DCD00083A
:1000E0004FCF000853CF000857CF00085BCF000860
:1000F0005FCF000863CF000867CF00086BCF000810
:100100006FCF000823CD000873CF000877CF000819
:1001100029CD00087BCF00087FCF000883CF0008DF
:1001200087CF00088BCF00088FCF00082FCD0008A5
:1001300035CD000893CF000897CF00089BCF00086B
:100140009FCF0008A3CF0008A7CF0008ABCF0008BF
:10015000AFCF0008B3CF00083BCD0008B7CF0008F1
:10016000BBCF0008BFCF0008C3CF0008C7CF00082F
:10017000CBCF0008CFCF0008D3CF0008000000008D
:10018000D7CF0008DBCF000810B50D4C0020207041
:10019000607001F03DFBA0703220606010BD10B5B2
:1001A000074C0020607001F033FBA07032206060CB
:1001B00010BD03494868002801D0401E48607047C0
:1001C000E00B00202DE9F84F2DED028B84B0DFF815
:1001D000E8BC9BF8000040F008008BF800009BF89A
:1001E000000040F002008BF80000DFF8D04C2078CF
:1001F00040F001002070207840F004002070DFF80B
:10020000C0AC9AF8000040F004008AF800009AF8A8
:10021000000040F008008AF800009AF8000040F062
:1002200010008AF800009AF8000040F020008AF8D8
:100230000000DFF8909CDFF8905C6868002899F86F
:100240000000C0F300101AD100280AD00020287046
:10025000687001F03BFB99F8000000F0EF0089F8AE
:100260000000DFF8680C0078C0F3C000002841F0FF
:100270008F8004B0BDEC028BBDE8F14F8FE7002802
:1002800007D101F0D6FA99F8000040F0100089F883
:100290000000DFF8386C307800F00F000F2801D034
:1002A0003220686001F0B4FADFF8247CA978401AA3
:1002B000FA28C0F07B8101F0ABFAA87068780028BA
:1002C00002D0012840F058810721002001F02BFBCB
:1002D00007F12108002088F8000009E0001D02F065
:1002E000EBF898F800100A46B854491C88F800103A
:1002F00098F800000F28F1DD002038743A460146D6
:1003000001F095FB172002F0D7F808EE100A16202E
:1003100002F0D2F808EE900AB8EE480AF2EE040AAB
:1003200080EE200A10EE100A02F0BEF9CDE90201BB
:10033000B8EE680AF2EE040A80EE200A10EE100A07
:1003400002F0B2F9CDE90001DFF8880B006802F095
:10035000ABF902460B46DFF8801B384602F0C8F9BD
:100360003A460221002001F08CFBDFF8708B2078E8
:10037000C0F34000002802D12078C00708D598F8C3
:100380000500C00704D57BA20221002001F079FB03
:10039000152002F091F80290142002F08DF80299D5
:1003A00001910090DFF8380B006802F07DF90246F9
:1003B0000B46DFF8301B384602F09AF93A46032123
:1003C000002001F05EFB2078C0F3C000002804D1BB
:1003D0002078C0F38000002808D098F80500C007F6
:1003E00004D564A20321002001F04BFB9AF8000021
:1003F000C0F38000002804D0D2A204210E2001F016
:1004000040FB98F80500C00704D5CFA204210E20B8
:1004100001F037FB9AF80000C0F3C000002804D0B8
:10042000CAA20421122001F02CFB98F80500C00795
:1004300004D5C5A20421122001F023FBDFF8A80A8D
:100440000278DFF8A81A384602F052F93A46052138
:10045000002001F016FB9BF80000C00705D5BCA2E8
:100460000521092001F00DFB0AE09BF80000C0F314
:100470004000002804D0B7A20521092001F001FBAB
:1004800098F80500C00704D5B3A20521092001F0A2
:10049000F8FA9AF80000C0F30010002804D0AFA2C8
:1004A00005210E2001F0EDFA98F80500C00704D5EB
:1004B000A5A205210E2001F0E4FA9AF80000C0F38D
:1004C0004010002804D0A6A20521122001F0D9FA7C
:1004D00098F80500C00704D59BA20521122001F061
:1004E000D0FADFF80C0A0278DFF8081A384602F072
:1004F000FFF83A460621002001F0C3FA9BF80000FD
:10050000C0F38000002805D096A20621092001F042
:10051000B8FA0AE09BF80000C0F3C000002804D03D
:1005200091A20621092001F0ACFA98F80500C00755
:1005300004D589A20621092001F0A3FA384602F069
:1005400039F93A4606210E2001F09BFA4146384619
:1005500002F06EFB3A460721002001F092FA98F86B
:100560000500C00722D57CA207210B2001F089FAE3
:100570001CE000BF202000000321002001F0D3F97F
:10058000DFF874290021084601F07BFA0020009072
:1005900001230246DFF8641907F1280002F0A8F8E9
:1005A00007F128020121002001F06BFA6978084662
:1005B0009B2800F2E486DFE810F0CA059C00B50035
:1005C000D900CA050A0164017F01CA0591011A0216
:1005D000CA056902D8020D03CA05DB05E6020D0350
:1005E000CA05DB05F3022103CA05DB05000321036D
:1005F000CA05DB05350338035604CA0546064A0317
:10060000E403CA05DB055803F803CA05DB056603E6
:10061000F803CA05DB0574030C04CA05DB05820375
:100620000C04CA05DB0590030C04CA05DB059E0318
:100630000C04CA05DB05AC032004CA05DB05BA03BC
:100640002004CA05DB05C8033404CA05DB05D6034C
:100650003404CA05DB05690438035604CA05460696
:100660004A03E403CA05DB055803F803CA05DB05A2
:100670006603F803CA05DB0574030C04CA05DB0531
:1006800082030C04CA05DB0590030C04CA05DB05D4
:100690009E030C04CA05DB05AC032004CA05DB0578
:1006A000BA032004CA05DB05C8033404CA05DB0508
:1006B000D6033404CA05DB0569046C04A304CA0527
:1006C000C4042F053C05CA05DB055405B405CA055D
:1006D00046066B05B405CA0546068205B405CA057B
:1006E00046069B05B405CA054606E206CA05E206AB
:1006F000C7053078C0F3C000002840F042860721CB
:10070000002001F010F9002007F12101487028783D
:10071000002803D00A20687000F033BE0220687001
:1007200000F02FBEDFF8A02C0421002001F0A9F971
:10073000002007F1210148706878401C687000F0C3
:1007400020BE00BF4D494300202020004D41430002
:1007500054000000740000002000000048455200D2
:1007600041434900480000006800000007F12100F3
:100770004078042826D8DFE800F0030A11181F008B
:100780000FF654420521002001F07BF91AE00FF624
:1007900058420521002001F074F913E00FF6584289
:1007A0000521002001F06DF90CE00FF65C420521F7
:1007B000002001F066F905E00FF65C4205210020FB
:1007C00001F05FF96878401C687000F0DABD30789D
:1007D000C0F3C000002800F06A813078C0F38000C8
:1007E00000280CD107F1210041780A46042A80F242
:1007F000C885491C41700320687000F0C2BD307884
:10080000C0F3400000280BD107F1210148780028EF
:1008100000F0B785401E48700320687000F0B1BD3D
:100820003078C00700F1AD850721042001F07BF886
:100830000620687007F12100407804281DD8DFE801
:1008400000F003080D121700012087F8200000F0C7
:1008500098BD022087F8200000F093BD032087F8A0
:10086000200000F08EBD042087F8200000F089BD34
:10087000052087F8200000F084BD0420687000F097
:1008800080BD07F1210000210170202302E0BB544C
:10089000491C017001780A46082AF8DB00213972E8
:1008A00001700FF6E8320421002001F0EAF86878C0
:1008B000401C687000F065BD3A460521002001F03B
:1008C000E0F897F82100012301467A18052101F08C
:1008D00052F96878401C687000F053BD07F121049C
:1008E0003078C0F38000002818D194F80080B8F167
:1008F000080F13DA17F80800401C07F80800C0B208
:1009000000F098FD07F8080099F8000040F0010099
:1009100089F800000720687000F033BD3078C0F31C
:100920004000002818D194F80080B8F1080F13DABD
:1009300017F80800401E07F80800C0B200F090FD4C
:1009400007F8080099F8000040F0010089F800005D
:100950000720687000F015BD3078C00703D42078F8
:10096000002840F051833078C0F3C000002840F0E8
:1009700008852078401C2070C0B2082833DB07218E
:10098000042000F0D0FF002020702078082809DA29
:1009900097F82010052911D1395C0FF68C22105CD4
:1009A000814218D02078082819D197F820002870A3
:1009B000002060700A20687000F0E3BC0FF670221F
:1009C000114411F8011C401801F076FD2178795C82
:1009D000C0B28142E6D12078401C2070D5E70020CB
:1009E000687000F0CEBC0720687000F0CABC07F148
:1009F0002100407804283ED8DFE800F003222930A7
:100A000037002078C0F30010002806D10FF68C22A2
:100A10000421002001F035F82DE02078C0F34010CB
:100A2000002806D10FF684220421002001F029F8C5
:100A300021E00FF688220421002001F022F81AE0BC
:100A40000FF688220421002001F01BF813E00FF6B6
:100A50008C220421002001F014F80CE00FF68C2207
:100A60000421002001F00DF805E00FF6902204218A
:100A7000002001F006F80FF694220521002001F075
:100A800000F86878401C687000F07BBC3078C0F3D8
:100A9000C000002817D10721042000F044FF07F10F
:100AA00021004178491C4170C9B2052907DB0721A3
:100AB000042000F038FF0020687000F062BC0A20BB
:100AC000687000F05EBC3078C00700F15A840721DE
:100AD000042000F028FF07F121004178042940D8C4
:100AE000DFE801F0032B2F353B002878002820D0C9
:100AF0002078C0F3001000280ED1207840F01000BC
:100B00002070207800F0DF0020700622DFF8CC1380
:100B1000DFF8B80802F008F92078C0F34010002888
:100B2000207803D140F02000207002E000F0DF00C8
:100B300020700020687000F024BC0D20687000F068
:100B400020BC1E2169700021417100F01ABC4F21A8
:100B500069701B21417100F014BC8020687000F0A6
:100B600010BC0020687000F00CBC012007F12101CE
:100B700088700FF6A811042000F0EAFF6878401C86
:100B8000687000F0FEBB002007F1210188700FF6AD
:100B9000B011042000F0DCFF6878401C6870F0E3BE
:100BA000032007F1210188700FF6B811042000F02E
:100BB000CFFF6878401C6870E3E3022007F1210151
:100BC00088700FF6C011042000F0C2FF6878401C46
:100BD0006870D6E307F12100807801F06DFC0246D1
:100BE0000FF6C011384601F083FD3A46052108464C
:100BF00000F047FF6878401C6870C2E307F12100ED
:100C0000807801F059FC02460FF6A011384601F039
:100C10006FFD3A460521084600F033FF6878401C16
:100C20006870AEE30A206870ABE30FF68812042107
:100C3000002000F026FF07F121004179091D817095
:100C4000C170102101716878401C687099E307F148
:100C5000210041791E3181700FF67011042000F0DF
:100C600077FF6878401C68708BE307F121004179B9
:100C70001C3181700FF66C11042000F069FF687858
:100C8000401C68707DE307F1210041791D318170BE
:100C90000FF67411042000F05BFF6878401C687048
:100CA0006FE307F121004179183181700FF6781157
:100CB000042000F04DFF6878401C687061E307F184
:100CC00021004179193181700FF68811042000F05C
:100CD0003FFF6878401C687053E307F121004179B9
:100CE0001A3181700FF69411042000F031FF6878FA
:100CF000401C687045E307F1210041791B31817088
:100D00000FF6A411042000F023FF6878401C6870DF
:100D100037E307F121004179153181700FF6BC11DD
:100D2000042000F015FF6878401C687029E307F183
:100D300021004179143181700FF6D011042000F0A8
:100D400007FF6878401C68701BE307F121004179B8
:100D5000173181700FF6E411042000F0F9FE687875
:100D6000401C68700DE307F1210041791631817054
:100D70000FF6E411042000F0EBFE6878401C687068
:100D8000FFE207F12100807801F096FB02460FF6A2
:100D9000E411384601F0ACFC3A460521084600F063
:100DA00070FE6878401C6870EBE207F121008078E3
:100DB00001F082FB02460FF6C411384601F098FCA0
:100DC0003A460521084600F05CFE6878401C6870D1
:100DD000D7E207F12100807801F06EFB02460FF6A2
:100DE000A411384601F084FC3A460521084600F07B
:100DF00048FE6878401C6870C3E207F121008078E3
:100E000001F05AFB02460FF68411384601F070FCDF
:100E10003A460521084600F034FE6878401C6870A8
:100E2000AFE207F12104A07801F046FB0646A07866
:100E300001F042FB0A21B6FBF1F101EB8102A6EBC6
:100E4000420633460A21B0FBF1F20FF6481138464C
:100E500001F04EFC3A460521084600F012FE687883
:100E6000401C68708DE207F121040020207020787A
:100E70002179884280F09182E178401801F01CFBD2
:100E800021780A46B854491C2170F0E70A2068709E
:100E900077E20622114907F1180001F045FF0FF62D
:100EA000FC01042000F054FE002087F8210068783F
:100EB000401C687065E200BF710B0020A10B002090
:100EC000B50B0020080B0020E00B0020BA0B00201F
:100ED000280A00200400002074CD0008C00B002068
:100EE000080000208CCD0008720B0020A0CD000867
:100EF000730B0020ACCD0008B8CD0008C0CD0008B1
:100F000007F12104217807F1180001F0B9FE07F17B
:100F10001801384601F08CFE3A460521002000F009
:100F2000B0FD20780223014601EB41017A1805212A
:100F300000EB4000C0B200F01EFE6878401C6870F4
:100F40001FE22A78012A2DD0022A2BD03078C0F354
:100F50008000002810D197F821003844037EFF2B31
:100F60000AD05B1C0376DFF86804417841F0040185
:100F700041708120687004E23078C0F3400000289E
:100F800010D197F821003B18187E00280AD0401E87
:100F90001876DFF83C04417841F00401417081206B
:100FA0006870EEE13078C0F3C000002823D1012A38
:100FB00000F02481022A00F0218107F1210001784C
:100FC0000A46042A04DA491C017081206870D8E1BD
:100FD000DFF8FC034178C1F38001002900F00E81A5
:100FE000417801F0FB0141700020787707F118008B
:100FF00001F0E6FD02E13078C00700F1C28197F808
:101000002100002800F0BD8107F121000278521E66
:101010000270881E6870B4E15E2007F121018870BB
:101020000FF28871042000F093FD6878401C68700E
:10103000A7E107F12100807801F03EFA04230022A5
:10104000394600B201F051FF002038713A460521BF
:101050000A2000F016FD00F0E1FB6878401C687083
:101060008FE12878022810D00FF24C720421002062
:1010700000F007FD07F121003E218170C1700821B9
:1010800001716878401C68707BE18C20687078E1A1
:101090002878012810D00FF234720421002000F0CB
:1010A000F0FC07F1210046218170C1700821017117
:1010B0006878401C687064E19020687061E128786D
:1010C000032801D0052810D10FF21472042100204A
:1010D00000F0D7FC07F121004E218170C17008217A
:1010E00001716878401C68704BE19420687048E199
:1010F0002878042801D0052810D10FF2FC620421C1
:10110000002000F0BEFC07F1210056218170C17063
:10111000082101716878401C687032E1982068707D
:101120002FE107F1210400202070207821798842E6
:1011300080F03381E178401801F0BEF921780A4649
:10114000B854491C2170F0E70A20687019E1307822
:1011500000F00F000F2802D1491C697011E101F065
:1011600085FF002800F00D816878401C687008E158
:101170002878012831D002282FD03178C1F380019E
:1011800000290ED107F121040121A07801F0ABF96B
:1011900090480068002817D10421A07801F0A3F935
:1011A00012E03178C1F34001002916D107F1210482
:1011B0000121A07801F0A9F986480068002803D130
:1011C0000421A07801F0A1F96878801E6870804839
:1011D000417841F004014170D3E03178C1F3C0019E
:1011E000002913D17A494A78C2F38002002A05D037
:1011F0004A7802F0FB024A7001F0C4F9072104208A
:1012000000F091FB6878401C6870BAE03178C9073B
:1012100000F1B7806E494A78C2F38002002A05D0F7
:101220004A7802F0FB024A7001F0ACF90721042071
:1012300000F079FB6878102802D11D206870A0E0CA
:10124000C01F68709DE007F121043078C0F3C00032
:1012500000281FD1A278521CA270D2B2E078121AD4
:101260002079824214DB5A484178C1F38001002979
:1012700006D0417801F0FB014170287801F082F935
:101280000721042000F04FFB6878401C687001E0E3
:10129000881E68703078C0F3800000281ED10121BC
:1012A000A07801F020F94B480068002803D1042100
:1012B000A07801F018F9A07801F0FEF880B200F0F3
:1012C000B9F80146A07801F0FBF86878801E6870D4
:1012D0003F48417841F00401417052E03078C0F35A
:1012E000400000281ED10121A07801F00EF93948F4
:1012F0000068002803D10421A07801F006F9A07845
:1013000001F0DAF880B200F0ABF80146A07801F005
:10131000D7F86878801E68702D48417841F0040144
:1013200041702EE03078C0072BD4A078401EA0700A
:10133000E178C0B288421ED225484178C1F38001CD
:10134000002906D0417801F0FB014170287801F0B6
:1013500019F90721042000F0E6FA6878212802D163
:101360004E2068700DE0522802D17F20687008E09E
:10137000C01F687005E06878801E687001E000207A
:10138000687004B0BDEC028BBDE8F14F00F0A3BB68
:1013900004B0BDEC028BBDE8F18F002021797854B8
:1013A0003A46052100F06DFBE078A478012322463F
:1013B0000146521A3A440521201AC0B200F0DBFB64
:1013C0006878401C6870DCE7CCCD0008D80B0020A2
:1013D000EC0B0020BC0B00204F70657261646F72D3
:1013E00020312020202000004F70657261646F72F0
:1013F00020322020202000005375706572766973BA
:101400006F72203120200000537570657276697309
:101410006F722032202000004D61737465722020AD
:101420002020202020200000303031303130313079
:101430003E464E560146302901DA30200EE0024683
:10144000A2F13A03062B01D8412007E05B3A062AB5
:1014500001D2612002E07B2900DB7A20C0B2704714
:1014600001467B2901DB7A200EE00246A2F15B03F4
:10147000062B01D25A2007E03A3A062A01D8392031
:1014800002E0302900DA2020C0B27047496E67724E
:1014900065736520636C617665000000496E696361
:1014A0006961722020202020202000004F7065728A
:1014B00061722020202020202020000050617573C0
:1014C000617220202020202020200000436C696DC4
:1014D0006120416D6269656E7465000052656365E7
:1014E0007461204E20312020202000005265636569
:1014F0007461204E20322020202000005369737434
:10150000656D612020202020202000002020202048
:101510002020202020202020202000003E20546574
:101520006D7065726174757261206D6178696D614D
:101530002064656C20616D6269656E7465000000F1
:101540003E2054656D7065726174757261206D69BD
:101550006E696D612064656C20616D6269656E7491
:10156000650000003E2048756D65646164206D6112
:1015700078696D612064656C20616D6269656E7467
:10158000650000003E2048756D65646164206D69EA
:101590006E696D612064656C20616D6269656E7451
:1015A000650000002564204300000000256420251C
:1015B000000000003E204E6F6D6272652064652061
:1015C0006C61207265636574610000003E205065A7
:1015D00072696F646F2064652063756C7469766FDF
:1015E000000000003E20486F726120656E206C6133
:1015F0002071756520636F6D69656E7A6120656C19
:1016000020646961000000003E20486F726120651F
:101610006E206C6120717565207465726D696E61F4
:1016200020656C20646961003E204369636C6F2013
:10163000646520726965676F2064652064ED613AB6
:1016400020426F6D626120656E63656E64696461DE
:10165000000000003E204369636C6F2064652072C7
:101660006965676F2064652064ED613A20426F6DA3
:101670006261206170616761646100003E204369BE
:10168000636C6F20646520726965676F20646520F4
:101690006E6F6368653A20426F6D626120656E63AC
:1016A000656E6469646100003E204369636C6F206D
:1016B000646520726965676F206465206E6F63687A
:1016C000653A20426F6D626120617061676164619B
:1016D0002028726563657461203129003E20456CC5
:1016E000656374726F436F6E647563746976696461
:1016F000616420206D6178696D61206465206C6192
:1017000020736F6C7563696F6E0000003E20456C3E
:10171000656374726F436F6E647563746976696430
:10172000616420206D696E696D61206465206C6163
:1017300020736F6C7563696F6E0000003E20506807
:10174000206D6178696D6F206465206C6120736F16
:101750006C7563696F6E00003E205068206D696E85
:10176000696D6F206465206C6120736F6C756369AF
:101770006F6E0000256420646961730025643A304F
:1017800030000000256420730000000025642070F4
:10179000706D000025642E25642020003E204665E3
:1017A000636861207920486F726100003E20436FBA
:1017B0006E747261737465003E20436C61766520BF
:1017C0004F70657261646F72203100003E20436C7F
:1017D000617665204F70657261646F72203200001F
:1017E0003E20436C6176652053757065727669732F
:1017F0006F722031000000003E20436C617665204E
:1018000053757065727669736F7220320000000044
:1018100001480068704700BFF00B002080B58120B0
:1018200000F0BDF95E2000F047FEC0B2BDE8024006
:10183000B5E110B5DFF8904400224FF480612046F6
:1018400001F0E2FD00224FF48041204601F0DCFD72
:1018500001F0F2FD01224FF40061204601F0D4FDB9
:10186000042001F06BFE01224FF48061204601F05C
:10187000CBFD022001F062FEA22000F090F9A02032
:1018800000F08DF9AE2000F08AF9C82000F087F949
:101890002F2000F084F9252000F081F9FFF7BEFF2A
:1018A000AF2000F07CF90021084600F098F90721EC
:1018B000002000F038F800F00EF901F06BFE002176
:1018C000DFF80804BDE8104001F0DBBF10B5AE2022
:1018D00000F065F9A52000F062F9DFF8EC43002282
:1018E0004FF48061204601F08FFD00224FF48041CB
:1018F000204601F089FDDFF8D80302F0C1FB0A2081
:1019000001F01CFE00224FF40061204601F07CFD36
:10191000DFF8B8430021204601F0DEFF2046BDE895
:10192000104001F06EBF30B4DFF8A82353781C4696
:101930000546AC4206D30C469C4203D3137903F010
:10194000FB031371D3781C46AC4206D30C469C4271
:1019500003D3137903F0F7031371491CC001DFF8B7
:10196000785302E00024EC54401C03469BB20C4622
:10197000A4B2B3EBC41FF5DB107940F00100107185
:1019800030BC704730B4C90100EB400301EB4301A8
:1019900000200DE00FF24834154605EB85052C4478
:1019A000234413F8A03CDFF830436354491C401C27
:1019B0000346DBB2052BEDDB30BC704730B4C90108
:1019C00000EB400301EB430100200DE00FF2103467
:1019D000154605EB85052C44234413F8A03CDB4356
:1019E000BD4C6354491C401C0346DBB2052BEDDBA8
:1019F00030BC704730B4C00000EBC110002112E0D1
:101A00000FF2B443144603EB041303EB4103A3F5B5
:101A100000731B88B04CDD0025545B09044484F836
:101A20008030401C491C0829EADB30BC7047F8B5FF
:101A300006460D461746A74C28466178884203D1D2
:101A4000207900F0FB0020712846E178884203D11C
:101A5000207900F0F7002071387800280CD030464B
:101A6000C0B2102808DA17F8012B29463046C0B258
:101A7000FFF7C0FF761CEFE7207940F001002071EE
:101A8000F1BDF8B506460D461746924C28466178DA
:101A9000884203D1207900F0FB0020712846E178CC
:101AA000884203D1207900F0F700207138780028AF
:101AB0000CD03046C0B2152808DA17F8012B294699
:101AC0003046C0B2FFF75EFF761CEFE7207940F0AA
:101AD00001002071F1BD10B5FFF79AFE7D4CA168A1
:101AE000401AB0F5FA7F09D3FFF792FEA060207983
:101AF000C0F38000002801D000F0B4F8FFF788FEA2
:101B0000E168401A40F24D11884209D3FFF780FE88
:101B1000E0602079C0F3C000002801D000F077F821
:101B20002079C00713D5207900F0FE002071002431
:101B30000BE0E100C9B2002000F051F880216648B6
:101B400000EBC41000F039F8641C082CF1DB10BD68
:101B500010B4604A03465478A34203D1137903F0CA
:101B6000FB031371D0709161D161107940F00800CE
:101B7000107110BC704770B4564C0D46E678B542F3
:101B800003D1257905F0F705257120706170A370E8
:101B90002261207940F00400207170BC704701B5CB
:101BA00000224FF48041484801F02EFC022301221C
:101BB0006946474802F079FA01BD38B504460D463A
:101BC00001224FF48041404801F01EFC05232A46C3
:101BD00021463F4801B0BDE8304002F066BA38B552
:101BE00004460D463D48047045702046000940F00B
:101BF0001000FFF7D4FF04F00F042046FFF7CFFFDB
:101C0000ED0845F0B0052846BDE83240C7E7F8B515
:101C1000304CA569656100263046C0B214281BDC33
:101C200067693A78E178002A06D03046C0B2FFF7FB
:101C3000A9FE781C606106E020223046C0B2FFF7A2
:101C4000A1FEE0696061761CE6E7681CA06120796E
:101C500040F001002071F1BD28780028F5D1E0693D
:101C6000A061F4E738B51B4C2079C0F34000002890
:101C7000207911D000F0FD0020710025A078854268
:101C80001CDA2069425D617820782818C0B2FFF71D
:101C900079FE6D1CEDB2F1E740F0020020710025E5
:101CA000A07885420ADA2069425D61782078281898
:101CB000C0B2FFF783FE6D1CEDB2F1E7207940F072
:101CC0000100207131BD000000100048680A0020AA
:101CD000C4090020040B00209C000020F80B002009
:101CE000000000000000002F0000000700070014A3
:101CF0007F147F14242A7F2A12C4C810264636492E
:101D00005522500005030000001C22410000412222
:101D10001C0014083E081408083E08080000503053
:101D20000010101010100060600000201008040265
:101D30003E5149453E00427F4000426151494621A3
:101D400041454B311814127F1027454545393C4A0F
:101D5000494930017109050336494949360649495F
:101D6000291E0036360000005636000008142241B5
:101D7000001414141414004122140802015109061D
:101D8000324959513E7E1111117E7F494949363EF3
:101D9000414141227F4141221C7F494949417F09FC
:101DA0000909013E4149497A7F0808087F00417FBF
:101DB00041002040413F017F081422417F404040C4
:101DC000407F020C027F7F0408107F3E4141413E6C
:101DD0007F090909063E4151215E7F0919294646BE
:101DE0004949493101017F01013F4040403F1F20E7
:101DF00040201F3F4038403F6314081463070870B9
:101E000008076151494543007F414100552A552A41
:101E1000550041417F00040201020440404040401F
:101E2000000102040020545454787F484444383858
:101E300044444420384444487F3854545418087E5D
:101E40000901020C5252523E7F0804047800447D7E
:101E500040002040443D007F1028440000417F4066
:101E6000007C041804787C0804047838444444381E
:101E70007C14141408081414187C7C080404084802
:101E800054545420043F4440203C4040207C1C20BB
:101E900040201C3C4030403C44281028440C50500A
:101EA000503C4464544C44086C6A1908304E614EEE
:101EB000307E7E7E7E7E000000000000000000007C
:101EC0000000000000000000000000000000000012
:101ED0000000000000000000000000000000000002
:101EE00000000000000000000000000000000000F2
:101EF00000000000000000000000000000000000E2
:101F000000000000000000000000000000000000D1
:101F100000000000000000000000000000000000C1
:101F200000000000000000000000000000000000B1
:101F300000000000000000000000000000000000A1
:101F40000000000000000000000000000000000091
:101F50000000000000000000000000000000000081
:101F60000000000000000000000020002000F80039
:101F7000F800200020000000000000000000000029
:101F800000000000000000002000200020002000D1
:101F900020002000200000000000000000000003DE
:101FA000000300000000000000020001800040006B
:101FB0002000100008000000FC01FE036202320253
:101FC0001A02FE03FC010000000004020402FE03EA
:101FD000FE030002000200000C038E03C202620234
:101FE00032021E030C030000040106032202220237
:101FF0002202FE03DC0100006000700058004C006B
:10200000FE03FE03400000003E013E0322022202C6
:102010002202E203C2010000FC01FE0322022202AE
:102020002202E603C401000006000600E203F203F8
:102030001A000E0006000000DC01FE03220222024C
:102040002202FE03DC0100001C013E0322022202E8
:102050002202FE03FC01000000000000000000005E
:10206000980198010000000000000000000000003E
:102070000000000000000000000000000000000060
:102080000000000000000000000000000000000050
:102090000000000000000000000000000000000040
:1020A0000000000000000000000000000000000030
:1020B0000000000000000000000000000000000020
:1020C0000000000000000000F803FC03460042008E
:1020D0004600FC03F80300000202FE03FE03220296
:1020E0002202FE03DC010000FC01FE0302020202E8
:1020F00002028E038C0100000202FE03FE030202B4
:102100000603FC01F80000000202FE03FE032202A7
:1021100022022603060300000202FE03FE0322023F
:102120002200260006000000FC01FE03020202025B
:102130004202CE03CC010000FE03FE03200020007B
:102140002000FE03FE030000000000000202FE0368
:10215000FE03020200000000800180030002020270
:10216000FE03FE01020000000202FE03FE037000F7
:10217000D8008E03060300000202FE03FE030202E3
:102180000002000200030000FE03FE031C007000BA
:102190001C00FE03FE030000FE03FE031C00700093
:1021A000C001FE03FE030000FC01FE030202020266
:1021B0000202FE03FC0100000202FE03FE032202F3
:1021C00022003E001C000000FC01FE030202C202CD
:1021D0000203FE03FC0100000202FE03FE03620094
:1021E000E200BE031C0300000C011E0332022202A7
:1021F0006202C60384010000000006000202FE0322
:10220000FE03020206000000FE00FE0100030003C0
:102210000003FE01FE0000007E00FE0080010003BE
:102220008001FE007E000000FE03FE03C00170007E
:10223000C001FE03FE03000006038E03D8007000F9
:10224000D8008E0306030000000006001E02F00303
:10225000F0031E020600000006038603C20272029B
:102260001A020E0306030000000000000000000038
:10227000000000000000000000000000000000005E
:10228000000000000000000000000000000000004E
:10229000000000000000000000000000000000003E
:1022A000000000000000000000000000000000002E
:1022B000000000000000000000000000000000001E
:1022C000000000000000000000009001C803480268
:1022D0004802F803F80300000000FE03FE031002AA
:1022E0001002F003E00100000000F001F803080212
:1022F00008021803100100000000E001F0031002C2
:102300001002FE03FE0300000000F001F803480283
:10231000480278037001000000000000FC03FE0387
:1023200022002600040000000000F004F80D080957
:102330001009F80FF80700000000FE03FE0320005C
:102340001000F003F0030000000000000000F8039C
:10235000F8030000000000000000000C0008000866
:10236000F80FF807000000000000FE03FE03C000A5
:10237000A001300310020000000000000202FE0372
:10238000FE03000200000000F003F80318007000D4
:102390001800F803F00300000000F803F803100031
:1023A0000800F803F80300000000F001F803080239
:1023B0000802F803F00100000000F80FF80F080110
:1023C0000801F801F00000000000F000F801080129
:1023D0000801F80FF80F000000000802F803F003EE
:1023E00008020800180000000000300178024802CE
:1023F0004802C8039001000000000800FE01FE032F
:1024000008020003000100000000F801F8030002C8
:102410000002F803F801000000007800F801000352
:102420000003F80178000000F801F8030003C00180
:102430000003F803F801000008021803B001E000EF
:10244000B0011803080200000000F004F80D0009B4
:102450000009F80FF8070000000018038803C802FD
:1024600068023802180300000000000000000000AD
:10247000000000000000000000000000000000005C
:10248000000000000000000000000000000000004C
:10249000000000000000000000000000000000003C
:1024A000000000000000000000000000000000002C
:1024B0000000000000000000744951F8200070473F
:1024C0005F280FD2724A52F820208A4201D2114668
:1024D00005E0704A52F82020914200D211466B4A22
:1024E00042F82010704730B4684A52F82030684CE7
:1024F00054F82040E51A8D4203D3C91842F8201041
:1025000001E042F8204030BC704730B4614A52F8D4
:1025100020205E4B53F82040A51A8D4203D3611A48
:1025200043F8201001E043F8202030BC704738B554
:102530005948008801464FF6FF72914202D14FF48C
:10254000801402E0554C04EA802404F1FF6404F591
:10255000FF24002513E0204602F06DF84B4941F8B6
:102560002500241D4B4A52F82520494B53F82530AD
:10257000834201D3904201D241F825206D1C5F2D8A
:10258000E9D331BDF8B500244348008801464FF631
:10259000FF72914202D14FF4801502E03F4D05EAEF
:1025A000802505F1FF6505F5FF2526460AE028464A
:1025B00002F041F8354951F82710814200D001243A
:1025C0002D1D761C3746FFB25F2FF0DB002C08D0A4
:1025D00000F009F8002801D00120F2BDBDE8F1406B
:1025E00001E00120F2BDF8B52D48816841F00041BD
:1025F00081604CF2FA310160274E32884FF6FF7449
:10260000A24202D14FF4801103E01046234901EAAF
:10261000802102D14FF4801002E0204800EA82209D
:10262000204D6FF078425118281801F051FF012811
:1026300001D00020F2BD3188A14202D14FF48010B8
:1026400002E0164800EA8120104F4FF4BE7239466E
:10265000281801F0DDFE012801D00020F2BD3088ED
:10266000A04202D14FF4801302E00C4B03EA802316
:102670004FF4BE723946ED18284601F0DEFF0128FE
:1026800001D00020F2BD0120F2BD00009C0400201A
:102690002CC90008B0C70008E075FF1F00FC3F0010
:1026A0001020024000F8FF07C0F3C75181B1FF2995
:1026B00006D0C110400721F0E04101F160517047A0
:1026C00041020CBF40F4E0016FF000410020704770
:1026D00000F0004100020AD0B0FA80FC00FA0CF0D1
:1026E00001F16051A1EB0C5101EBD0214005704785
:1026F0000CB430B583B00A4606A902910446002501
:102700000194009502AB01A9084878441E3001F0FD
:10271000D5FF019A157000284EBF04460198041B8E
:10272000204603B030BC5DF80CFB00BF0B2F00004F
:10273000E0B51E20FFF7C0FE0246D2B2DFF8241437
:10274000684600F0B5FADFF820049DF80010027822
:1027500091420AD169464A7843789A4205D18978EC
:102760008078814201D101200EBD00200EBD70474E
:1027700070470A46042802D9401F06D070474FF41C
:1027800080614FF0904000F03FBE002A00D1EFE79B
:10279000EDE7002806D001224FF480614FF0904011
:1027A00000F032BE00224FF480614FF0904000F004
:1027B0002BBE7047DFF8B4134A78C2F30012002A28
:1027C00003D10FF2BC31FFF793BF4A78C2F3401236
:1027D000002A03D10FF2B031FFF78ABF09780C2924
:1027E00020D8DFE801F007130B0F13131313130F97
:1027F000170B1B000FF29831FFF77ABF0FF29831D9
:10280000FFF776BF0FF29831FFF772BF0FF29831E2
:10281000FFF76EBF0FF29831FFF76ABF0FF29831E2
:10282000FFF766BF7047D1494868002801D0401EB5
:1028300048608868002801D0401E8860704700000A
:1028400038B5CA4C20780C2800F28881DFE810F0F7
:102850000D004200530062006E007D00CF00DE00DC
:1028600030013E014B01540173016078C0F3001048
:10287000002800F075816078C0F34010002800F057
:102880006F811C20FFF718FEB74DE97881420AD30B
:102890001D20FFF711FEE978814204D21920FFF7CD
:1028A0000BFEA06003E01B20FFF706FEA060B0480F
:1028B0000078C0F34000002804D101202070BDE85A
:1028C000314054E70120FFF764FF022020703C20D4
:1028D000606031BDA6480078C0F34000002800F0D9
:1028E0003F81FFF745FF0120FFF753FF02202070D3
:1028F0003C20606031BD6068002840F031810020DC
:10290000FFF747FF0220FFF754FF032020701E202F
:10291000606031BD6068002840F022810020FFF730
:1029200048FF042020701E20606031BD60680028D0
:1029300040F016818F48017841F04001017001207C
:1029400002F07EFE0520207031BD012002F07DFEE8
:10295000002800F005811620FFF7AEFD864D0A2104
:10296000B0FBF1F000EE100AB8EE400AD5ED000A17
:10297000B4EE600AF1EE10FA60780CDB40F0020071
:1029800060700520A0700121FFF7F3FE0620207083
:102990001420606031BD00F0FD0060701720FFF76B
:1029A0008BFD0A21B0FBF1F000EE100AB8EE400AF0
:1029B000D5ED000AF4EE400AF1EE10FA60780CDB77
:1029C00040F0010060700420A0700121FFF7D1FEEB
:1029D000062020701E20606031BD00F0FE00607097
:1029E000072020700220BDE8324002F029BE606856
:1029F000002840F0B5800021A078FFF7BAFE012042
:102A000002F01EFE2078401E207031BD022002F030
:102A10001CFE002800F0A4801420FFF74DFD00EEFE
:102A2000100A564DB8EE400AD5ED000AF4EE400A01
:102A3000F1EE10FA60780CD540F0080060700120CB
:102A4000A0700146FFF795FE082020701E206060F0
:102A500031BD00F0F70060701520FFF72DFD00EE8E
:102A6000100AB8EE400AD5ED000AB4EE600AF1EEA5
:102A700010FA60780CD540F0040060700520A0705A
:102A80000121FFF776FE082020701420606031BD20
:102A900000F0FB0060700320FFF78BFE35480178E3
:102AA00001F0BF010170092020701E20606031BD5F
:102AB0006068002854D10021A078FFF75AFE022058
:102AC00002F0BEFD2078401E207031BD60680028F5
:102AD00046D10020FFF76DFE01210020FFF749FEDF
:102AE0000A20207031BDA0683C2839D20120FFF7B0
:102AF00050FE0B20207031BDA068002830D100208E
:102B0000FFF747FE0C2020701C20FFF7D5FC164D68
:102B1000E97881420AD31D20FFF7CEFCE978814293
:102B200004D21820FFF7C8FC606031BD1A20FFF7FF
:102B3000C3FC606031BD6068002811D100210846E7
:102B4000FFF717FEFFF7F4FD002807D0607800F0CC
:102B5000EF006070607800F0DF006070002020708F
:102B600031BD0000D80B0020C00B0020A00B0020BE
:102B7000B50B002001000020040000200800002008
:102B800053696E43756C200050617573612020009D
:102B9000496E6920202020005265766F6C2020004D
:102BA0004D6F764520202000507265702020200057
:102BB0004573706520202000526965676F202000F2
:102BC0001CB5044602F03BFFA078ADF80600607823
:102BD0008DF8050020788DF80400E0788DF801006C
:102BE00020798DF8020060798DF80300684602F0C4
:102BF000D8FE012002F00EFF13BDE0B5684602F0DA
:102C0000ABFE0A48BDF8061081709DF805104170B2
:102C10009DF8041001709DF80110C1709DF802101C
:102C200001719DF80310417107BD0000C00B002029
:102C300070B504460D46002611E0A85D00F0D5F9F8
:102C40000146C9B209093031217000F00F0030305F
:102C5000607000BF32A0805DA070E41C761C052E61
:102C6000EBDB70BD4178022905D1807810F0030FAD
:102C700001D11D20704700BF21A0405C70470000BB
:102C800070B504460D462E4621A0805DA15D8142AF
:102C900000D2A055280003D12046FFF7E3FF01E052
:102CA0001DA0805D615D884200D90846A05570BDB9
:102CB00070B504461546062200F036F800260FE0EF
:102CC000012020706070A078401CA07007E0607840
:102CD0000C28F5D2012020706078401C6070761CB2
:102CE00030462946C0B2884209D22046FFF7BAFFD3
:102CF00021780A468242EAD2491C2170EFE770BD72
:102D0000001F1C1F1E1F1E1F1F1E1F1E1F00000056
:102D100001010000000000001F0C63173B000000D1
:102D20002F2F203A0000000062B38B0708D0521EFC
:102D300011F8013B00F8013B00F024808B07F6D12D
:102D4000830740F0208000BF103A07D330B4B1E8C9
:102D50003810103AA0E83810F9D230BC530724BF1D
:102D6000B1E80810A0E8081044BF51F8043B40F84F
:102D7000043BD20724BF31F8022B20F8022B44BFBA
:102D80000B7803707047121F17D35B0009D151F8FD
:102D9000043B20F8023B1B0C121F20F8023BF6D22A
:102DA0000BE051F8043B00F8013B1B0A20F8023B02
:102DB0001B0C121F00F8013BF3D238BF121D521E2C
:102DC00024BF11F8013B00F8013BF8D87047F0B47C
:102DD0000246106895681318506803EB5004C0074A
:102DE0001DD54D441BE013F8017B05F8017B491EFE
:102DF000F9D1A0B1B60813F8011B06F00306032EA3
:102E000008BF13F8016B01EB06214942801C2944DD
:102E100005D011F8016B05F8016B401EF9D1A342F2
:102E20000ED013F8016B16F0030104BF13F8011B59
:102E3000C91C30090F28DAD113F8010B0F30D6E77F
:102E4000F0BC02F10C00704710B400220A704A7006
:102E50008A70102243E00B781C4604F00F04052C06
:102E600001DBDB1C0B704B781C4604F00F04052CB7
:102E700001DBDB1C4B704B781C4604F0F004502C3B
:102E800001DB30334B708B781C4604F00F04052CAB
:102E900001DBDB1C8B708B781C4604F0F004502C9B
:102EA00001DB30338B700B785B000B704C782406A1
:102EB00002D543F001030B704B785B004B708C78AC
:102EC000240602D543F001034B708B785B008B70B6
:102ED000040402D543F001038B704000521E1346D8
:102EE000DBB2002BB7D110BC70472DE9F843064682
:102EF0000C4615469946300003D576422D2004F83D
:102F0000010B27466946304600B2284180B2FFF7E0
:102F10009BFFB9F1040F06DD9DF8000000F00F00E3
:102F2000303004F8010BE846B9F1030F05DD98F8DD
:102F300001000009303004F8010BB9F1020F06DD81
:102F400098F8010000F00F00303004F8010BB9F1DF
:102F5000020F05DB98F802000009303004F8010B7D
:102F600098F8020000F00F00303020702E206070C2
:102F7000C5F11000864044F6206100200C2205E0D7
:102F8000330400D5401849087600521E1346DBB2C0
:102F9000002BF5D1694680B28008FFF755FF98F8FD
:102FA000010000093030A07098F8010000F00F0017
:102FB0003030E07098F8020000093030207198F845
:102FC000020000F00F0030306071052D08DD302068
:102FD000A07105E03878302805D1202007F8010BD2
:102FE00078782E28F6D1BDE8F1830146002002460C
:102FF00011E000F00F03052B00DBC01C00F0F00314
:10300000502B00DB3030400080B20B0601D540F081
:1030100001004900521C1346DBB2082BE9DB704764
:1030200038B53A4C3A4D0221284600F0E5F98000C7
:1030300020700121284600F0DFF9217841EAC00123
:103040002170344D4FF40071284600F0D5F92178F5
:1030500041EA400121704FF48071284600F0CCF91C
:103060002178084320706070A07031BD27494868FE
:10307000002803D1022048600120704700207047DB
:1030800010B5FEF7C5FB244C2168401A0F2804D365
:1030900000F004F8FEF7BCFB206010BD38B51B4CF7
:1030A0001B4D0221284600F0A7F980002070012165
:1030B000284600F0A1F9217841EAC0012170154DA0
:1030C0004FF48071284600F097F9217841EA4001D9
:1030D00021704FF40071284600F08EF921780143E9
:1030E0002170607802460B469A4201D0617031BD72
:1030F000A178814203D0A0706420606031BD606817
:10310000002802D06068401E606031BDB80B00200E
:103110000010004800040048E80B0020F8B4034603
:103120000A4600242DE04FF0070C05E0DFF8E4C26A
:103130006345F8D14FF0060C0CFA06FC4CEA070C7C
:1031400045F821C0B4490E68C5432E405768FF03B7
:1031500000D506430E604E682E405768BF0300D569
:1031600006434E608E682E405768FF0200D5064326
:103170008E60CE682E405568AD0200D50643CE6005
:10318000641C10680146E14000F0A2800121A140CA
:103190000840F5D05568022D01D0122D13D12546D7
:1031A000ED0803EB8506356AA70007F01C074FF012
:1031B0000F0C0CFA07FC25EA0C05D2F810C00CFA2B
:1031C00007F73D4335621F6865000326AE40F643AE
:1031D000374092F804C00CF0030C0CFA05FC4CEAE2
:1031E00007071F605768012F05D0022F03D0112F4A
:1031F00001D0122F13D19F683740D2F80CC00CFABF
:1032000005FC4CEA07079F605F688F43D2F804C053
:10321000CCF3001C0CFA04FC4CEA07075F60D2F800
:1032200004C00CF00307032F06D1DF6A8F43CCF3F1
:10323000C001A1400F43DF62D9683140966806FAA9
:1032400005F52943D9605168C90099D573490D68BE
:1032500045F001050D60096801F001010091009938
:10326000214689086E4D55F82170A60006F00C061F
:103270004FF00F0C0CFA06FC27EA0C07B3F1904F45
:1032800002D14FF0000C57E7DFF898C1634502D137
:103290004FF0010C50E7DFF890C1634502D14FF0C9
:1032A000020C49E7DFF884C1634502D14FF0030CFB
:1032B00042E7DFF87CC1634502D14FF0040C3BE7E5
:1032C000DFF870C163457FF431AF4FF0050C33E791
:1032D000F1BC70472DE9F0410246002321E04FF098
:1032E000070E05E0DFF82CE17245F8D14FF0060E2D
:1032F0000EFA05FEF44513D157F8265025EA0404CA
:1033000047F82640C043444C256805402560656861
:1033100005406560A5680540A560E5682840E06057
:103320005B1C0846D84065D001269E4016EA010085
:10333000F6D003245F0004FA07F714683C431460D6
:103340001C46E40802EB840C9D000F24DCF820E00E
:1033500005F01C0804FA08F82EEA080ECCF820E064
:10336000FF43D2F808C007EA0C0CC2F808C0F643C5
:10337000D2F804C006EA0C0CC2F804C0D2F80CC0A3
:1033800007EA0C07D760D76A3E40D6621E46B608E9
:10339000234F57F826C005F00C05AC4004EA0C0C8E
:1033A000B2F1904F02D14FF0000EA1E7DFF874E0C8
:1033B000724502D14FF0010E9AE7DFF86CE07245DA
:1033C00002D14FF0020E93E7DFF860E0724502D1C0
:1033D0004FF0030E8CE7DFF858E0724502D14FF052
:1033E000040E85E7DFF84CE072457FF47BAF4FF0C9
:1033F000050E7DE7BDE8F081006901400846401EEA
:103400008041C043C00F7047002A01D081617047DE
:1034100081627047001800480004014060100240BB
:10342000080001400004004800080048000C004863
:10343000001000480014004880B52C482C49016059
:103440004FF482714160002181604FF4E061C160FE
:103450000021016141614FF4802181610021C1613E
:103460000162416281620721C1620021016308217A
:10347000416300F0ABFD002805D051211FA0BDE83D
:10348000044002F062BC01BD00681949884200D0C6
:10349000704780B586B01748016841F480510160DB
:1034A000006800F48050009000984FF43040019084
:1034B0000220029000200390032004900520059034
:1034C00001A90D48FFF72AFE07B000BD00680849B2
:1034D000884209D10748016821F4805101604FF406
:1034E00030410548FFF7F6BE70470000C4090020D0
:1034F000003001406010024000100048433A5C5523
:10350000736572735C4E616875656C5C4465736B62
:10351000746F705C4C756369615C486964726F704C
:103520006F6E69615C486964726F5F76312E325CE0
:103530005372635C7370692E6300000038B50446F3
:10354000FEF766F9054614F1010F00D0641CFEF782
:103550005FF9401BA042FAD331BD30B4002513E01F
:1035600050F8042BD30744BFA9F101039A18091F8F
:10357000042942F8045BFAD213468C0744BF158035
:103580009B1CC90748BF1D7050F8041B0029E7D1D8
:1035900030BC704730B599B0784C79482060002035
:1035A0006060A0604FF4FA40E0600020206160613C
:1035B00077A5204600F00CF9002803D04C212846BE
:1035C00002F0C3FB4FF48050159015A9204600F07F
:1035D00061FA002803D05221284602F0B6FB2046AB
:1035E00000F036F9002803D05721284602F0ADFB41
:1035F00000200090019002906946204602F0C6FB30
:10360000002803D05F21284602F09FFB60200E9027
:103610004FF4FA600F9000201090119012901390C8
:10362000149002460EA9204600F0A0F9002803D00D
:103630006B21284602F089FB00200390049005903E
:10364000069007904FF400500890002009900A90CF
:103650004FF000700B9000200C900D9003A92046B5
:1036600002F0BCFB002803D07B21284602F06DFB52
:10367000204600F059F819B030BD000018B587B0E9
:10368000404C4FF0804020601F2060600020A06010
:103690004FF6FE70E06000202061204600F098F8B0
:1036A000002804D05FF08E0139A002F04EFB4FF4E9
:1036B0008050039003A9204600F0ECF9002804D0C4
:1036C0005FF0940132A002F040FB002000900290D5
:1036D0006946204602F05AFB002804D05FF09B01A7
:1036E0002BA002F032FB08B010BD81B00068244965
:1036F00088420AD12448816841F400618160806871
:1037000000F40060009000980CE0B0F1804F09D107
:103710001D48016841F001010160006800F00100EE
:103720000090009801B0704700681549884200D0A9
:10373000704700B585B04FF40070009002200190F2
:103740000020029003900120049069460F48FFF783
:10375000E5FC05B000BD00680949884205D10A486A
:10376000816821F4006181607047B0F1804F04D11D
:10377000054801684908490001607047680A00204F
:10378000002C0140A40A00205810024000100048FC
:10379000433A5C55736572735C4E616875656C5C29
:1037A0004465736B746F705C4C756369615C4869E8
:1037B00064726F706F6E69615C486964726F5F7686
:1037C000312E325C5372635C74696D2E63000000AD
:1037D00038B5040001D1012032BD04F13805687804
:1037E000002804D1002028702046FFF77EFF022029
:1037F0006870211D206800F0D1F901206870002058
:1038000032BD10B500F138040221617001680A6A06
:1038100041F211131A4208D10A6A40F244431A4293
:1038200003D10A68520852000A60FFF794FF002093
:103830006070207010BD022180F8391001680A689C
:1038400042F001020A60012180F83910002070471F
:1038500038B5040001D1012032BD04F13805687883
:10386000002804D100202870204602F001FB02202D
:103870006870211D206800F091F901206870002017
:1038800032BD10B504460122206800F083FB206899
:10389000DFF8C41088420FD0DFF8C01088420BD088
:1038A000DFF8BC10884207D0DFF8B810884203D098
:1038B000DFF8B410884201D1012100E00021002985
:1038C00003D0416C41F4004141642068016841F03B
:1038D00001010160002010BD10B5044600222068DF
:1038E00000F058FB2068DFF8701088420FD0DFF836
:1038F0006C1088420BD0DFF86810884207D0DFF8E0
:103900006410884203D0DFF86010884201D10121A1
:1039100000E0002141F2111200290BD0016A11428E
:1039200008D1016A40F24443194203D1416C21F4A9
:10393000004141642068016A114208D1016A40F2E5
:103940004442114203D10168490849000160012045
:1039500084F83900002010BD002C014000340140E3
:1039600000400140004401400048014070B5064657
:103970000D4606F138042078012801D1022070BDDF
:103980000120207002206070002A0AD0042A1BD077
:10399000082A2DD00C2A3ED0102A50D0142A61D0EB
:1039A00073E0306800F059F93068816941F008012E
:1039B00081613068816921F00401816131688A691F
:1039C000286902438A6160E0306800F090F930684D
:1039D000816941F4006181613068816921F480610D
:1039E0008161306881692A6941EA022181614CE084
:1039F000306800F0B8F93068C16941F00801C16170
:103A00003068C16921F00401C1613168CA6928695F
:103A10000243CA6139E0306800F0DFF93068C169FB
:103A200041F40061C1613068C16921F48061C16104
:103A30003068C1692A6941EA0221C16125E0306824
:103A400000F0F8F93068416D41F0080141653068D7
:103A5000416D21F00401416531684A6D28690243D6
:103A60004A6512E0306800F011FA3068416D41F4A7
:103A7000006141653068416D21F4806141653068C5
:103A8000416D2A6941EA02214165012060700020F0
:103A9000207070BD38B5054605F13804207801283E
:103AA00001D1022032BD01202070022060702B68FD
:103AB0009A68DFF8340402409A600868002854D0FD
:103AC000102857D020285AD030285DD0402842D026
:103AD00050282CD0602834D070280DD0B0F5805FED
:103AE00003D0B0F5005F16D052E029688A68DFF88D
:103AF000FC0302408A604BE0CB684A68896828680A
:103B000000F03DFA2A689168DFF8E403014041F0D3
:103B1000770191603CE0CB684A688968286800F0CA
:103B20002EFA2868816841F48041816030E0CA68DB
:103B30004968286800F0F6F95021286800F017FA63
:103B400026E0CA684968286800F0FEF96021286804
:103B500000F00DFA1CE0CA684968286800F0E2F934
:103B60004021286800F003FA12E00021286800F0E4
:103B7000FEF90DE01021286800F0F9F908E0202195
:103B8000286800F0F4F903E03021286800F0EFF92C
:103B9000012060700020207032BD000010B4046865
:103BA000DFF85033984212D0B0F1804F0FD0DFF8D9
:103BB000482390420BD0DFF84423904207D0DFF82F
:103BC0004023904203D0DFF83C23904203D124F0FD
:103BD00070044A68144398421ED0B0F1804F1BD045
:103BE000DFF81423904217D0DFF81023904213D04F
:103BF000DFF80C2390420FD0DFF8082390420BD05F
:103C0000DFF80423904207D0DFF80023904203D06E
:103C1000DFF8FC22904203D124F44074CA681443B4
:103C200004608A68C2620A68826298420FD0DFF834
:103C3000D42290420BD0DFF8D022904207D0DFF898
:103C4000CC22904203D0DFF8C822904201D109690A
:103C500001630121416110BC704770B4026A5208CF
:103C600052000262046A43688569DFF8A8221540A1
:103C70000A68154324F002048A681443DFF874626A
:103C8000B0420FD0DFF87C2290420BD0DFF87822D0
:103C9000904207D0DFF87422904203D0DFF8702200
:103CA000904205D124F00804CA68144324F00404A7
:103CB000B0420FD0DFF84C2290420BD0DFF8482200
:103CC000904207D0DFF84422904203D0DFF8402230
:103CD000904205D123F440734A6913438A69134320
:103CE0004360856149684163046270BC704770B489
:103CF000026A22F010020262046A43688569DFF8F2
:103D0000182215400A6845EA022524F020048A6832
:103D100044EA0214774A904202D07A4EB04206D169
:103D200024F08004CE6844EA061424F04004904253
:103D30000BD0744A904208D0734A904205D0734A1F
:103D4000904202D0724A904206D123F440634E69F9
:103D50008A69164343EA8603436085614968816343
:103D6000046270BC704770B4026A22F4807202620E
:103D7000046A4368C569674A15400A68154324F414
:103D800000748A6844EA02245A4A904202D05D4E86
:103D9000B04206D124F40064CE6844EA062424F438
:103DA000806490420BD0574A904208D0564A9042C5
:103DB00005D0564A904202D0554A904206D123F48B
:103DC00040534E698A69164343EA06134360C5614E
:103DD0004968C163046270BC704730B4026A22F45F
:103DE00080520262036A4468C5694B4A15400A68FA
:103DF00045EA022523F400538A6843EA02333D4A28
:103E000090420BD03F4A904208D03F4A904205D0A2
:103E10003E4A904202D03E4A904204D124F480446B
:103E20004A6944EA82144460C561496801640362D6
:103E300030BC704730B4026A22F480320262036AF6
:103E40004468456D354A15400A68154323F400332C
:103E50008A6843EA0243274A90420BD0294A90429B
:103E600008D0294A904205D0284A904202D0284AD8
:103E7000904204D124F480344A6944EA0224446024
:103E8000456549688165036230BC704730B4026A99
:103E900022F480120262036A4468456D204A15408C
:103EA0000A6845EA022523F400138A6843EA0253AC
:103EB000104A90420BD0134A904208D0124A9042C6
:103EC00005D0124A904202D0114A904204D124F403
:103ED00080244A6944EA8224446045654968C16592
:103EE000036230BC704700008800FEFFF8FFFEFF51
:103EF00088FFFEFF002C0140000400400008004045
:103F0000000C0040003401400040014000440140EA
:103F1000004801408CFFFEFFFF8CFFFE8FFFFEFF7D
:103F2000FF8FFFFE10B4036A046A64086400046231
:103F3000846924F0F00444EA0214846123F00A0343
:103F40001943016210BC704710B4036A23F01003D8
:103F500003628369046A23F4704343EA0233836192
:103F600024F0A00444EA0114046210BC7047826883
:103F700022F07002114341F007018160704710B4D4
:103F8000846824F47F442143114341EA0321816082
:103F900010BC704710B4036A01248C40A343036231
:103FA000036A02FA01F11943016210BC7047B1F5CE
:103FB000807F02D34FF0FF307047017001207047BF
:103FC0000078401E8041C043C00F704738B50400E0
:103FD00001D1012032BD0020A06204F15C056878A7
:103FE000002804D1002028702046FFF74DFA022057
:103FF00068702068016821F040010160E068B0F558
:10400000E06F01D9002101E04FF48051B0F5706FED
:1040100004D0B0F5E06F01D00020A062206B002832
:1040200008D1E068B0F5E06F02D90220206301E01A
:10403000012020636268A06802432069024360692E
:104040000243A06900F400700243E0690243206A61
:104050000243A06A024320680260A269120C02F0C7
:104060000402606A0243606B0243E068024311434A
:10407000206841600020686001206870002032BD27
:1040800010B5002801D1012010BD00F15C0402210F
:10409000617001680A6822F040020A60FFF716FAB0
:1040A000002060606070207010BD2DE9F8438046EC
:1040B0000D4691461C46002708F14406307E012833
:1040C00001D10220D3E001203076FDF7A1FB717E03
:1040D000012901D00227C5E0290002D04A46002A62
:1040E00001D10127BEE0032272763A46F261C8F898
:1040F0003810A8F83C90A8F83E90C8F840203280CC
:104100007280F260B260D8F80820B2F5004F05D195
:10411000D8F80020136843F480431360D8F80020D7
:1041200013685B0603D4136843F040031360D8F8A8
:104130000420D8F80C3040F20175AB422FD3002A8E
:1041400003D0B8F83E20012A09D131F8022BD8F863
:104150000030DA60B8F83E20521EA8F83E208946AA
:10416000054607E039F8021BC160B8F83E00401E62
:10417000A8F83E00B8F83E00002859D0D8F8000052
:1041800081688907EED4002C07D014F1010FF1D01B
:10419000FDF73EFB401BA042ECD3032762E0002A60
:1041A00003D0B8F83E20012A0DD1D8F80020B8F885
:1041B0003E30022B0AD331F8023BD360B8F83E20E0
:1041C000921EA8F83E208946054610E011F8013BF2
:1041D0001373B8F83E20521EA8F83E20F3E739F8D2
:1041E000021BC160B8F83E00801EA8F83E00B8F877
:1041F0003E0000281CD0D8F80000816889070CD543
:10420000B8F83E100229EAD219F8011B0173B8F878
:104210003E00401EA8F83E00E9E7002CBDD014F196
:10422000010FE4D0FDF7F4FA401BA042DFD3B4E75E
:104230002A462146404600F0B7F8002801D0202049
:10424000F061D8F80800002808D138460090D8F866
:104250000000C1680091806800900098F069002813
:1042600000D0012701207076002030763846BDE866
:10427000F2832DE9F04105460E4617461C46DDF84F
:104280001880286880683040B04201D1012000E0E9
:104290000020B84235D014F1010FF2D0002C05D027
:1042A000FDF7B6FAA0EB0800A042EAD328684168FF
:1042B00021F0E00141606868B0F5827F0BD1A86809
:1042C000B0F5004F02D0B0F5806F04D128680168C6
:1042D00021F040010160A86AB0F5005F09D12868AB
:1042E000016821F4005101602868016841F400511F
:1042F000016005F15C000121417000210170032083
:1043000000E00020BDE8F0812DE9FC4106460F46A3
:1043100014461D46DDF82080306881683940A1428E
:104320003FD0B7F5C06F06D1002C04D1007B8DF8CB
:1043300000009DF8000015F1010FEDD0002D05D013
:10434000FDF766FAA0EB0800A842E5D330684168A3
:1043500021F0E00141607068B0F5827F0BD1B06858
:10436000B0F5004F02D0B0F5806F04D1306801681D
:1043700021F040010160B06AB0F5005F09D13068FA
:10438000016821F4005101603068016841F4005176
:10439000016006F15C0001214170002101700320E1
:1043A00000E00020BDE8F6817CB504460D461646C7
:1043B00000962B4600224FF4C051FFF7A5FF0028BE
:1043C00005D0206E40F020002066032076BD0096C8
:1043D0002B46002280212046FFF74BFF002805D006
:1043E000206E40F020002066032076BD00962B460C
:1043F00000224FF4C0612046FFF786FF002805D059
:10440000206E40F020002066032076BD002076BD9F
:104410002DE9F84380460F469146A44C21884FF67B
:10442000FF75A94202D14FF4801003E00A46A0486C
:1044300000EA822000F1FE6000F57F20804517D35E
:1044400019F0070005D009F108094A468146A2EB98
:104450000909A94202D14FF4801202E0944A02EA0B
:1044600081226FF07840821809EB0800824201D265
:1044700000202BE001F057FD48F291008D490860C3
:10448000002602E008F10808761CB6EBD90F1AD214
:104490002088A84202D14FF4801102E0844901EA49
:1044A00080218548411841450DD307EBC600D0E96E
:1044B00000234146002001F0DDFC0028E2D001F09D
:1044C0003EFD002002E001F03AFD0120BDE8F2834C
:1044D000F0B585B006460F46B7421FD3734C20880F
:1044E0004FF6FF75A84202D14FF4801103E0024657
:1044F0006F4901EA822101F1FE6101F57F218E42BF
:104500000CD3A84202D14FF4801102E0684901EABD
:1045100080216FF078404118B94201D2002088E034
:1045200001F001FD00200190304600F097F80646AA
:10453000384600F093F807462088A84202D14FF48D
:10454000801102E05A4901EA80214910C90AB142AA
:1045500027D30396012002902088A84202D14FF46D
:10456000801103E00246524901EA82214910C90A3A
:10457000B9420DD2A84202D14FF4801102E04C4959
:1045800001EA80214910C6EBD120401C049002E0D2
:10459000B81B401C0490694601A801F09BFD00284F
:1045A00040D12088A84202D14FF4801102E0404956
:1045B00001EA80214910C90AB94237D2022002908B
:1045C0002088A84202D14FF4801103E00246384906
:1045D00001EA82214910C90AB14204D20396BE1BE6
:1045E000761C049618E0A84202D14FF4801102E034
:1045F0002F4901EA80214910C90A491C03912088EA
:10460000A84202D14FF4801102E0294901EA802139
:104610004910A7EBD1270497694601A801F05AFD7C
:10462000002803D001F08BFC002002E001F087FCA1
:10463000012005B0F0BD0068704710B4002A07D013
:1046400010F8013B11F8014BA34201D1521EF5E7CE
:104650001046401E8041C00F10BC704710B400F1DE
:104660007840C00A114909884FF6FF720B4614467C
:10467000A34202D14FF4801303E00C460C4B03EA33
:1046800084235B10B0EBD32F0DD30B46934202D1A2
:104690004FF4801202E0064A02EA812200F580709F
:1046A0005210A0EBD22010BC70470000E075FF1F35
:1046B00000FC3F0010200240F7FFFF072DE9F04FFC
:1046C0000FF2A41CA1B0DCE90089CDE900892A9D84
:1046D000DFF8109C049100248DF843500D944FF0A6
:1046E000FF38824616461F460FE0B3462C461BF89D
:1046F000011B0498D0470028049000F0A2800D9878
:10470000401C641E0D90F2D176193078252808D10E
:10471000002100220791089209910A920B910C92B4
:104720000DE06A464146304601F0E4FD050001D146
:104730000D98A1E0D9D50125E6E741F0010116F871
:10474000010F2028F9D023280CD02B2804D02D28A5
:1047500005D0302809D076E041F00201EFE741F0C2
:104760000401ECE741F00801E9E741F01001E6E758
:104770000F9209E00F98484505DA00EB800402EB40
:104780004402303A0F92761C3278A2F130000A28A7
:10479000F0D330782E2818BFCDF8388022D116F803
:1047A000010F2A2807D138683860761C50F8042B8E
:1047B00038600E9216E02D280CBF761C00200022D7
:1047C0000E920AE040B90E9A4A4505DA02EB8204DD
:1047D00003EB4403303B0E93761C3378A3F1300295
:1047E0000A2AEFD3ADF8401021A0317801F08CFDFA
:1047F00008B116F8010B8DF842009DF842006828B8
:1048000004D1307868280AD1622105E06C2804BF01
:1048100030786C2803D171218DF84210761C12A8D3
:1048200006903A4616F8013B02A9504600F064F89B
:1048300038B912AA02A9504600F0CAF900287FF53B
:1048400064AF404618E02A2892D13A683A6052F89C
:10485000040B3A6000280F9003D540420F9041F0BE
:104860000401761C95E70000000000000000000035
:10487000686A6C747A4C000021B0BDE8F08F622841
:1048800020D0682811D06A2803D06C2827D071283E
:1048900025D10868C01D20F007000860D0E900237A
:1048A00008300860194610467047002A0A680A60F6
:1048B000106803D0121D0A6000B217E0121D0A60D2
:1048C00080B217E0002A0A680A60106803D0121D3F
:1048D0000A6040B20AE0121D0A60C0B20AE0002A73
:1048E0000A680A60106803D0121D0A60C117704779
:1048F000121D0A60002170477CB50D4611461C460A
:104900002E69B4F1250200F051811C3A00F0868036
:10491000121F022A40F282800E3A00F00B81521FD1
:104920005AD0093A7AD0921E16D0521E35D0521E55
:10493000022A73D9121F30D0521F00F09A80521EE3
:104940004AD0521E00F0E480D21E00F00181921E77
:1049500042D0D21E40D02FE195F83A406C2C09D0BD
:104960006869421C6A610A680A6052F8043B0A607E
:1049700033542BE10A680A6052F8043B0A60009342
:10498000002201924FF0FF332B636A46294600F064
:104990009AF9002840F11A8105E195F83A000122C0
:1049A000FFF76DFFC5E900010023994204DA686949
:1049B000411C69612D220DE0288F810704D56869AB
:1049C000411C69612B2205E0C00722D56869411CA2
:1049D0006961202232541CE095F83A000022FFF76A
:1049E0004EFFC5E9000195F83800010711D5D5E95A
:1049F00000230020834208BF82420AD044F02000F6
:104A0000782806D1686930213154401C421C6A6103
:104A10003454214668693044E86087E00868C01D66
:104A200020F007000860D0E9002308300860C5E9DD
:104A30000023D5E90001C80F04D06869411C6961F1
:104A40002D220DE0288F810704D56869411C69611A
:104A50002B2205E0C00704D56869411C696120224A
:104A6000325468693044E8602146284600F03AFA3A
:104A7000ACE005F13A02507820B14FF0FF340FF668
:104A8000343074E01078622808D0682824D06A286E
:104A900012D06C282ED071280ED02BE00A680A6044
:104AA00052F8040B0A6020B94FF0FF340FF61C30A7
:104AB0005DE0E96A017089E00A680A6052F8040B57
:104AC0000A6020B94FF0FF340FF600304FE0EA6A79
:104AD000D317C0E9002379E00A680A6052F8040B92
:104AE0000A6020B94FF0FF340FF6E0203FE0E96A9A
:104AF00001806BE00A680A6052F8040B0A6020B972
:104B00004FF0FF340FF6C42031E0E96A01605DE048
:104B10000A680A6052F8040B0A60002120F00002C3
:104B200021F0FF33C5E90023EE607821284600F02C
:104B30002DF94BE06C2285F83A200B680B6053F896
:104B4000042B0B6052BB4FF0FF340FF6B4200EE085
:104B500095F83A206C2AF0D00868086050F8044BA9
:104B60000860EC603CB94FF0FF340FF6782001F09C
:104B7000D7FB201A76BD2E6B002E04D5204601F0FF
:104B8000EFFB044608E032460021204601F004FC19
:104B9000002814BF041B3446AC6117E0294600F01E
:104BA00092F8002812D54FF0FF3076BD6869411C9D
:104BB00069612522325409E06969481C686125222F
:104BC0007254210002D0431C6B613454002076BD26
:104BD0002DE9F0410E4605469046726B7069316AC8
:104BE000B46A121AB069521A716A121AF069521A2A
:104BF000121A96F83800141B41070DD4002C0BDD57
:104C00002746B0682021A8470028B06057D0F06A36
:104C1000401C7F1EF062F4D173694246314628463B
:104C200000F0B0FC00284AD1376A002F0ADDB068D6
:104C30003021A8470028B06041D0F06A401C7F1E98
:104C4000F062F4D1B369F2683146284600F09AFC6C
:104C5000A8BB776A002F09DDB0683021A847B06093
:104C600068B3F06A401C7F1EF062F5D1F068B1694C
:104C7000F36942183146284600F084FCF8B9B76A57
:104C8000002F09DDB0683021A847B060B8B1F06AE4
:104C9000401C7F1EF062F5D196F8380041070BD515
:104CA000002C09DDB0682021A847B06038B1F06A57
:104CB000401C641EF062F5D10020BDE8F0814FF089
:104CC000FF30BDE8F0812DE9F8470D46A3B02F6B0A
:104CD000002F0646904648BF6FF000470FF63C1481
:104CE00001F086FBD4E90023696B4018CDE901236C
:104CF000812828BF4FF0FF3042D20024002F33DD3F
:104D0000D8F8001001AA684601F0F6FA8146B9F118
:104D1000000F38D4D8F8000010B9B9F1010932D425
:104D20004F4521DB6869484481280AD30021696323
:104D300003AA29463046FFF74BFF040014D4002095
:104D4000686103ABD5F814A04A46694603EB0A0034
:104D5000FDF7EAFFCA44C5F814A058F8040B002870
:104D600018BFA7EB0907C9D14CB903AA2946304699
:104D7000FFF72EFF044614B90020686168632046DF
:104D800024B0BDE8F0874FF0FF34F8E72DE9FC4789
:104D900007468C463E69BCF16F0F08BF082405D05A
:104DA0004CF02000782814BF0A2410243C25D7E9B1
:104DB0000023BCF1640F18BFBCF1690F90469946FF
:104DC00006D100218B4203DAD8F1000869EB4909CA
:104DD0004FF0000AD14508BFD0451FD1386BE8B964
:104DE000082C4BD197F83800010747D530203B25D8
:104DF00086F83B0042E000280ED597F8380000F016
:104E00001400102808D17B6B7969386A5B1A1B1A69
:104E10009A1A002AC8BF3A62BDE8F3878DF800C02D
:104E2000404649462246E31701F0E8FA3032D0B254
:104E30006D1E3A28019504DB9DF80000A0F1510198
:104E40008A187255404649462246E31701F0D6FAC1
:104E500089468046D14508BFD04503D0F86871190E
:104E60008842DDD3082C09D197F83800010705D511
:104E7000705D302802D06D1E30207055C5F13C02A7
:104E8000BA617119F960386B8242B4DA821A3A62F7
:104E90004FF6EF70398F01403987BDE8F3872DE970
:104EA000D04306460F4614464FF00008DFF838940A
:104EB00012E0E00707D542464B463046394601F03E
:104EC000B5FB06460F464046494642464B4601F072
:104ED000ADFB641080468946002CEAD13046394645
:104EE000BDE8D0832DE9F34F054641F020048DB095
:104EF000D5E90089612C02AE09D0286B002848BF93
:104F0000062003D408BF672C01D101202863D5E90E
:104F1000002358004015401C0ED119030CD003206B
:104F2000A8619DF8381061391A2902D20FF2F46194
:104F300011E00FF2F4610EE059004915491C0FD140
:104F400018030DD10320A8619DF8381061391A2982
:104F500014D30FF2DC61E8680322FDF7E5FED3E12C
:104F6000194621F00043B3F5801F10460DD20027EB
:104F7000BB4208BFBA42019703D111E00FF2AC6106
:104F8000E9E701AA01F024FC0AE0DFF8607307EB0F
:104F90001352DFF85C3301921940DFF8583319439C
:104FA000C5E90001612C0ED1E86830210170821C36
:104FB000EA609DF8381061290CBF782158214170B2
:104FC0006869801C6861D5E900AB2BF000430020C4
:104FD0002AF00002834204BF8242002300F05B817A
:104FE000612C40F0AA80286B002847BF2121009146
:104FF000401C0090009F7F1C404649460022002331
:1050000001F01EFCD94601998DF8082038BF89F0BF
:105010000049091F002FD04601910DF1090040F30E
:105020004981B349DFF8D0B20C9106464046494663
:105030000022002301F01CFC80F03B814800400D61
:1050400000F11C0211D0002A0FDD40F2FF708242F5
:1050500005DB09F0004040EA0B01002013E00C984A
:10506000014041EA025140460DE029F00043002092
:1050700028F00002834208BF82420FBF40461C2234
:10508000404601F00DFC8046894601F0A7FCFF1F59
:10509000002F044609DD01F0BFFC02460B464046E6
:1050A000494601F0CBFC80468946F01D072104E00B
:1050B00004F00F0200F8012D2411002C01DD491E1F
:1050C000F6D5491E5CBF002200F8012DF9D5ECE0B1
:1050D0000020194602AA0A4400E05B1E12F80149AA
:1050E000491E8442F9D00F2804D10DF10900425C19
:1050F000521C4254002904D50198001D02AE5B1CCD
:105100000190591E12D49DF838007218A0F13A0788
:10511000147804F130085FFA88F43A2CA8BFB84438
:10512000491E02F80189F3D58DF83800286B002854
:1051300040F1B080591E2963ACE040464946002248
:10514000002301F07DFB019938BF89F0004947F247
:1051500097504143694A91FBF2F20192D2F1070262
:1051600004DD40464946FFF79AFE0AE0524200201D
:105170006349FFF794FE02460B464046494601F05C
:10518000CFFC8046662C286BDFF878B106BF019F04
:105190000A3706273F18142FC8BF142730208DF870
:1051A000080089460DF1090000E03046002F34DD8B
:1051B00006464046494601F0D7FD01460A4606F13B
:1051C000080304200A26B2FBF6F606EB860EA2EBD5
:1051D0004E02303203F8012C0A22B6FBF2F202EB47
:1051E000820EA6EB4E063036401E03F8026DE9D162
:1051F000083F002F03F10806D7DD084601F0C8FD7F
:1052000002460B464046494601F018FC00225B4628
:1052100001F00CFA80468946CBE70DF10901401AEE
:105220000DF1090604E00199491E401E0191761C0A
:1052300031783029F7D0662C02D10199491C03E05E
:10524000652C0CBF012100212B6BCB189842B8BFF5
:10525000431E002B1ED4834204DAF05C3528A8BF1D
:10526000392000DA30201946721E02EB010800E0F6
:105270005B1E18F80199491E8145F9D0392802D1E1
:10528000705C401C7054002904D50198401C1646DF
:105290005B1C0190019800B200901BB29DF8381081
:1052A0003246284600F034F82EE0C61D002F3FF7A6
:1052B000BDAE30460DF10901401A009903468842FF
:1052C000C8BF0B46002B0DF109063FF52FAF8342F7
:1052D000BFF6FEAE0DF10900C15C07297FF7F8AEFD
:1052E0000F20F6E6CBCCCC0C0000244002FCFFFFE4
:1052F000FFFF0F800000E03F0000F07FA08601006C
:105300000000F03F84D797410FB0BDE8F08F000058
:105310002DE9F84783B006468A461746984600F0BE
:10532000EDFFB8F1000F406A356B90F8009002DC99
:105330004FF00108BFA74AF02000BDF930406628B1
:1053400008BF641C15D0672840F0848014F1040F56
:10535000C0F28680AC4280F2838096F83800641CEC
:10536000010702D4A845B8BF454620B22D1A48BF50
:1053700000250FFA84FAF068B169BAF1000F25DC54
:105380004A1C30234354002D03DC96F838000107F3
:1053900003D5F06800F80290521C15EB0A0FB8BF55
:1053A0006C4220B2441941424445B8BFA046B261A4
:1053B00071620FFA88F5F561F068B3692A463946DB
:1053C0001844FDF7B1FC641BB462C4E022B29045FE
:1053D000084417DA42463946FDF7A6FCB069404456
:1053E000B061AAEB0801002D716203DC96F8381059
:1053F0000A0705D5F16801F80090F069401CF061DA
:10540000B562A8E03946FDF78FFCB069002D504425
:10541000A8EB040803DC96F838100A0703D5F168F6
:1054200001F80090401CB0610FFA88F08542F368E3
:10543000B069B8BFA8460FFA88F207EB0A01184412
:10544000FDF772FCB1690FFA88F00144B161281AC6
:10545000706280E0BAF1610F14D14FF0700A16E06B
:10546000A84504DA96F838100A0758BF45466D1E5D
:1054700048BF0025BAF1670F14BF4FF0450A4FF03F
:10548000650A04E0BAF1410F08BF4FF0500AB16954
:10549000F368481CB061002D17F8012B5A5403DC47
:1054A00096F838100A071BD5F168431CB36101F860
:1054B0000090002D14DDA8F101080FFA88F039469C
:1054C0008542F768B8BFA8460FFA88F2F818FDF7CA
:1054D0002BFCB0690FFA88F108446D1AB06175624F
:1054E000F068B1690844002C80F800A003D42B2296
:1054F0004270811C03E02D2141706442811C002018
:105500006A460AE023460A2493FBF4F404EB84057C
:10551000A3EB450302F8013B401C24B2002CF1DC54
:10552000012806DC4AF02002652A04BF302201F877
:10553000012B48B9302001F8010B07E0401E1DF88F
:105540000030303301F8013B0028F7DCF268B06925
:105550001044091AF16196F8380000F01400102880
:105560000DD17269B169706A8A18F1698218B06ADE
:105570008A188218706B8242BCBF821A326204B0F1
:10558000BDE8F087F8B505460E4617461C460020D4
:1055900074B117F8011BB068A847B06030B1F06A69
:1055A000401CF0620020641EF3D1F2BD4FF0FF30CA
:1055B000F2BD00007072696E74665F733A20256EEA
:1055C00020646973616C6C6F776564007072696EDA
:1055D00074663A2062616420256E20617267756D81
:1055E000656E74007072696E74665F733A206261F2
:1055F0006420257320617267756D656E740000000C
:105600007072696E74665F733A2062616420256C03
:105610007320617267756D656E7400000000000094
:10562000000000006E616E004E414E00696E660023
:10563000494E460030000268531C036011707047E9
:10564000AE494A781043487070470146AB484078ED
:1056500001400846401E8041C00F704770B50025CC
:10566000A64C2078042800F28380DFE800F0031ABB
:1056700031506A006078C0F3801000287AD06078DA
:1056800000F0BF0060706078C00702D50120207074
:1056900070BD6078C0F3400000286BD001202070FE
:1056A00070BD2E463046C0B2082864DA002000F0F3
:1056B000BCF80028607803D140F00400607005E079
:1056C00000F0FB00607000F0BAF84519761CE9E7BD
:1056D0002E463046C0B2082859DA0E2000F0A5F850
:1056E0000028607803D140F00800607005E000F009
:1056F000F700607000F0A3F84519761CE9E76078C0
:10570000C0F34000002835D00420207070BD2E4624
:105710003046C0B2082849DA0D2000F086F800288B
:10572000607803D140F01000607005E000F0EF00F9
:10573000607000F084F84519761CE9E700202070BD
:1057400070BD2E463046C0B2082844DA042000F06E
:105750006CF80028607803D140F02000607005E00C
:1057600000F0DF00607000F06AF84519761CE9E788
:105770002846207070BD9FED5F0A0021ED08284685
:1057800000F072F884ED030A0220207070BD9FEDD6
:10579000590A0E21ED08284600F066F884ED040A47
:1057A0006078C007ABD50320207070BD94ED040A6B
:1057B0000D21ED08284600F057F884ED010A6078C5
:1057C00000F0FE0060706078C0F340000028B5D0A3
:1057D0000420207070BD94ED040A0421ED082846D1
:1057E00000F042F884ED020A607800F0FD0060707D
:1057F0000020207070BD000010B586B004466846D9
:10580000182101F0D3FA00940120019000200290A9
:1058100069463B4801F06EFD002804D05FF0B701F7
:105820003AA000F092FA06B010BD80B5FFF7E4FF91
:10583000334801F0E8FB401E8041C00F02BD38B57F
:105840002F4C0321204601F086FC0028204603D07F
:1058500001F062FC002032BD01F046FD0546204605
:1058600001F05AFC284632BD38B52DED028B08EE0A
:10587000100A002906D004292ED00D292CD00E297B
:105880001AD034E01F48008801F082FA4FF06632E7
:105890001D4B00F0CBFE04460D4618EE100A01F039
:1058A00077FA02460B462046294601F039F901F005
:1058B000FDFF00EE100A1AE0B8EE480A0F48D0EDDE
:1058C000030A20EE200ADFED0C0A80EE200AF2EE39
:1058D000040A20EE200A0AE0B8EE480A0748D0ED94
:1058E000030A20EE200ADFED040A80EE200ABDEC58
:1058F000028B31BD0000000000F07F450000002059
:105900005C090020AA75FF1F66660A40433A5C5591
:10591000736572735C4E616875656C5C4465736B2E
:10592000746F705C4C756369615C486964726F7018
:105930006F6E69615C486964726F5F76312E325CAC
:105940005372635C484944524F5C6164635F7361A6
:105950006D706C652E63000038B586B004463E4D10
:10596000002201A9284602F0AFF800226946284625
:1059700002F049F99DF80300E0809DF80100607194
:105980009DF8020020719DF8000020709DF8040031
:1059900060709DF80500A0709DF80600E07007B0EB
:1059A00030BD38B586B0044660788DF80400A07824
:1059B0008DF80500E0788DF80600002002908DF843
:1059C000070004900590244D024601A9284602F0E4
:1059D00000F8002801D000201AE020798DF802009C
:1059E00060798DF80100E0888DF8030022796179F3
:1059F000E08800F5FA6080B200F030F88DF8000021
:105A000000226946284602F08EF8401E8041C00FF1
:105A100007B030BD80B501460422491E0E4802F091
:105A200069F9002801D0002002BD002211460320A0
:105A300002F09FFA032002F0ABFA012002BD80B50C
:105A4000054802F0CCF9002801D0002002BD032057
:105A500002F09FFA012002BDE00A002010B40329E1
:105A600000DA401E0446A4B203469BB200EB93004A
:105A7000642394FBF3F3C01A4FF4C87394FBF3F35D
:105A800013EB000007A3194411F8011C40188018FB
:105A900080B2072190FBF1F1C1EBC101401AC0B205
:105AA00010BC704700030205000305010406020450
:105AB0008548817841F001018170704780B5ADF56E
:105AC0000C7D02F087FA00F06BF802F095FA02F014
:105AD000AFFB02F0CDFB02F067FC02F0DBFC02F052
